:020000040800F2
:100000000050002005340008F92A0008FB2A0008E7
:10001000FD2A0008FF2A0008012B0008000000004C
:10002000000000000000000000000000032B00089A
:10003000052B000800000000072B0008092B000812
:100040004D3400084D3400084D3400084D3400088C
:100050004D3400084D3400084D3400084D3400087C
:100060004D3400084D3400084D3400084D3400086C
:100070004D340008112B00084D3400084D340008A1
:100080002D2B00084D3400084D3400084D34000875
:100090003D2B0008CD2B00084D3400084D340008DE
:1000A0004D3400084D3400084D3400084D3400082C
:1000B0004D3400084D3400084D3400084D3400081C
:1000C0004D3400084D3400084D3400084D3400080C
:1000D0004D3400084D340008DD2B0008FD2B0008CE
:1000E0004D3400084D3400084D3400080000000075
:1000F0000000000000000000000000000000000000
:0C01000000000000000000005FF808F1A3
:10010C0010B5054C237833B9044B13B10448AFF345
:10011C0000800123237010BD94000020000000001B
:10012C00B83D000808B5034B1BB103490348AFF3B6
:10013C00008008BD0000000098000020B83D0008B9
:10014C00034613F8012B002AFBD1181A013870470B
:10015C0010B504460E4B18784FF47A73B3FBF0F3DA
:10016C000C4A1068B0FBF3F000F0F0FB68B90F2CF0
:10017C0001D901200AE0002221464FF0FF3000F0A7
:10018C009FFB034B5C60002000E0012010BD00BF12
:10019C00000000202C00002008B5074A136843F02B
:1001AC0010031360032000F079FB0020FFF7D0FF51
:1001BC0002F07AFC002008BD00200240034A1168BE
:1001CC00034B1B780B441360704700BFB00000203A
:1001DC0000000020014B1868704700BFB0000020E1
:1001EC0038B50446FFF7F6FF0546B4F1FF3F02D0E1
:1001FC00044B1B781C44FFF7EDFF401BA042FAD3C5
:10020C0038BD00BF00000020002800F0A18038B5E8
:10021C00044690F82030D3B12268136843F00103F0
:10022C001360FFF7D7FF054623685A6812F0010FD9
:10023C0010D1FFF7CFFF401B0A28F5D9636A43F4AE
:10024C0000336362052384F82030012038BD02F0AE
:10025C00BFF8E1E71A6822F002021A60FFF7BAFF52
:10026C00054623685A6812F0020F0DD0FFF7B2FF53
:10027C00401B0A28F5D9636A43F4003363620523F3
:10028C0084F820300120E1E7227E012A3DD01A6853
:10029C0022F080021A60637E012B3BD02268136827
:1002AC0023F040031360A37E012B39D0226813681E
:1002BC0023F020031360E37E012B37D022681368F0
:1002CC0043F010031360237F012B35D02268136891
:1002DC0023F008031360637F012B33D0226813686B
:1002EC0023F004031360A368E268134322691343E9
:1002FC00626913436268013A21681343CB610020A1
:10030C006062012384F82030A0E71A6842F0800272
:10031C001A60C0E72268136843F040031360C2E719
:10032C002268136843F020031360C4E72268136843
:10033C0023F010031360C6E72268136843F0080328
:10034C001360C8E72268136843F004031360CAE71C
:10035C0001207047026890F82030013BDBB2012B82
:10036C0005D9436A43F4802343620120704710B5DA
:10037C00D2F8003243F00103C2F800324B6903F0AB
:10038C001F03012000FA03F3D2F81C026FEA030CDE
:10039C0020EA0300C2F81C02C869C0B9D2F80C02EA
:1003AC000CEA0000C2F80C028C884869D1F80CE009
:1003BC0044EA0E44483042F830400C884869D1F881
:1003CC0008E044EA0E44483002EBC0004460C869BF
:1003DC0001281AD0886988BBD2F804020CEA000004
:1003EC00C2F80402086978BBD2F814020CEA0000C7
:1003FC00C2F81402096A01292CD0D2F8003223F079
:10040C000103C2F80032002010BDD2F80C021843D0
:10041C00C2F80C028C884869D1F800E044EA0E441A
:10042C00483042F830408C894869D1F808E044EAF9
:10043C000E44483002EBC0004460CBE7D2F8040213
:10044C001843C2F80402CDE7D2F814021843C2F8DC
:10045C001402CFE7D2F81C120B43C2F81C32CCE7C3
:10046C0070B5044690F82050EDB2012D06D0436AC9
:10047C0043F4002343620125284670BD022380F813
:10048C0020300268136823F001031360FFF7A2FE0B
:10049C00064623685B6813F0010F0CD0FFF79AFE39
:1004AC00831B0A2BF5D9636A43F40033636205237B
:1004BC0084F82030E0E700256562DDE790F820C085
:1004CC000CF1FF3C5FFA8CFCBCF1010F00F29B803D
:1004DC0010B451B90468E46814F0030F10D1436AE6
:1004EC0043F40013436201207BE00468246914F098
:1004FC00030F05D1436A43F400134362012070E0FB
:10050C0001F11B042401D0F800C05CF8044004F095
:10051C0004049460002C66D101F11B042401D0F872
:10052C0000C05CF80440640D1460046801F11B0CFD
:10053C004FEA0C1C54F80C4004F00204D46004681C
:10054C006444646804F00F041461046864446468CF
:10055C00C4F307249461046864446468240C5461F3
:10056C00026802EB0112D2F8B8211A70026802EB91
:10057C000112D2F8B821C2F307225A70026802EBBA
:10058C000112D2F8B821C2F307429A70026802EB4A
:10059C000112D2F8B821120EDA70026802EB0112C5
:1005AC00D2F8BC211A71026802EB0112D2F8BC21FC
:1005BC00C2F307225A71026802EB0112D2F8BC2175
:1005CC00C2F307429A71026802EB0112D2F8BC2105
:1005DC00120EDA7189B90268D36843F02003D36034
:1005EC00002010BC704701F11B042401D0F800C09E
:1005FC005CF80440E408546097E70268136943F020
:10060C0020031361ECE7436A43F480234362012027
:10061C00704790F82030013BDBB2012B05D9436ABF
:10062C0043F48023436201207047026853691943E5
:10063C005161002070477047704770477047704792
:10064C0070477047704770477047704770477047E6
:10065C002DE9F84F054603685C69D3F804809F6860
:10066C00D3F80CB0D3F810A0D3F8189014F00106FE
:10067C003BD017F0010616D001229A6017F0020F3A
:10068C0008D117F0040F0CD117F0080606D04FF460
:10069C00805608E0FFF7CFFF002604E0FFF7CEFFFF
:1006AC0001E04FF4006617F4807F0DD02B684FF4F7
:1006BC0080729A6017F4007F40F0868017F4806F88
:1006CC0000F0868046F4005617F4803F0DD02B685E
:1006DC004FF480329A6017F4003F40F0838017F497
:1006EC00802F00F0838046F4004614F0080F07D0EA
:1006FC001BF0100F04D046F400762B681022DA6041
:10070C0014F0040F02D01BF0080F79D114F0020F73
:10071C0004D02B68DB6813F0030F78D114F0400F72
:10072C0007D01AF0100F04D046F480662B68102204
:10073C001A6114F0200F02D01AF0080F6BD114F0CC
:10074C00100F04D02B681B6913F0030F6AD114F43B
:10075C00003F02D018F0100F68D114F4803F02D083
:10076C0018F0080F69D114F4004F7AD018F0040F68
:10077C0074D014F4807F04D019F0010F01D046F02E
:10078C00010614F4007F04D019F0020F01D046F0DA
:10079C00020614F4806F04D019F0040F01D046F057
:1007AC00040614F4006F59D019F0700956D0B9F141
:1007BC00400F65D058D8B9F1200F5ED0B9F1300F89
:1007CC0042D146F0200644E02846FFF735FF7BE790
:1007DC0017F4006F02D046F4804675E72846FFF701
:1007EC002EFF71E72846FFF728FF7EE717F4002F4E
:1007FC0002D046F4803678E72846FFF721FF74E7ED
:10080C002B680822DA602846FFF71CFF7EE7284693
:10081C00FFF717FF82E72B6808221A612846FFF7BB
:10082C0013FF8CE72846FFF70EFF90E72B6810228A
:10083C005A602846FFF709FF8FE72B6808225A6099
:10084C002846FFF703FF8EE7B9F1100F01D146F0F0
:10085C0008062A68936923F0700393612B680422BD
:10086C005A609EB9BDE8F88FB9F1500F0BD0B9F1B1
:10087C00600FEED146F48076EBE746F01006E8E721
:10088C0046F04006E5E746F08006E2E76B6A1E4359
:10089C006E622846FFF7DBFEE4E70000074AD368E8
:1008AC0023F4E0631B041B0C000200F4E060034320
:1008BC0043F0BF6343F40033D360704700ED00E0B6
:1008CC0000B5194BDB68C3F30223C3F1070CBCF171
:1008DC00040F28BF4FF0040C03F1040EBEF1060FF9
:1008EC0018D9033B4FF0FF3E0EFA0CFC21EA0C0129
:1008FC0099400EFA03F322EA0303194300280BDB99
:10090C000901C9B200F1604000F5614080F80013A4
:10091C005DF804FB0023E5E700F00F000901C9B204
:10092C00024B1954F4E700BF00ED00E014ED00E0B9
:10093C00002807DB00F01F02400901239340024A04
:10094C0042F82030704700BF00E100E00138B0F100
:10095C00807F0BD24FF0E0235861054AF02182F8DA
:10096C0023100020986107221A61704701207047FC
:10097C0000ED00E030B40124056CAC40C56B6C603C
:10098C00046863604368102B05D0036899600368A2
:10099C00DA6030BC704703689A600368D960F8E786
:1009AC0060B310B402460168154B0B441548A0FB0C
:1009BC0003031B099B001364134BD363022382F8BC
:1009CC002130086820F47F5020F030005368946880
:1009DC002343D46823431469234354692343946900
:1009EC002343D469234303430B600020906301230A
:1009FC0082F8213082F8200010BC7047012070472B
:100A0C00F8FFFDBFCDCCCCCC0000024038B504467D
:100A1C0090F82000012831D0012084F8200094F8AF
:100A2C002100012804D0002384F82030022038BD96
:100A3C00022084F821000020A0632568286820F09B
:100A4C00010028602046FFF795FFE36A5BB122683E
:100A5C00136843F00E0313602268136843F001031C
:100A6C0013600020E3E72268136823F0040313608B
:100A7C002268136843F00A031360EDE70220D6E7FF
:100A8C0090F82130022B06D004238363002380F8D6
:100A9C002030012070470268136823F00E031360A6
:100AAC000268136823F001031360036CC16B01220D
:100ABC0002FA03F34B6080F82120002380F82030E9
:100ACC001846704708B590F82130022B03D0042348
:100ADC008363012008BD0268136823F00E031360C2
:100AEC000268136823F0010313600368194A9342E8
:100AFC0014D0143293421FD0143293421ED01432AD
:100B0C0093421ED0143293421ED01432934202D020
:100B1C004FF0807203E04FF4801200E001220E4B84
:100B2C005A60012380F82130002380F82030436B79
:100B3C006BB198470020CDE71022F0E74FF480729C
:100B4C00EDE74FF48052EAE74FF48032E7E70020FC
:100B5C00C0E700BF080002400000024038B5C36B7C
:100B6C001A6804682568016C04238B40134235D045
:100B7C0015F0040F32D0236813F0200F03D1236833
:100B8C0023F0040323600368434A934214D01432C5
:100B9C00934218D01432934217D01432934217D088
:100BAC001432934217D01432934202D04FF0806229
:100BBC0003E04FF4800200E00422384B5A60C36A11
:100BCC0003B1984738BD4022F7E74FF48062F4E751
:100BDC004FF48042F1E74FF48022EEE702238B4082
:100BEC0013423CD015F0020F39D0236813F0200FBC
:100BFC0006D1236823F00A032360012380F82130F7
:100C0C000368254A934214D0143293421CD01432F8
:100C1C0093421BD0143293421BD0143293421BD0FC
:100C2C001432934202D04FF0007203E04FF40012E2
:100C3C0000E00222194B5A60002380F82030836AAE
:100C4C00002BBFD09847BDE72022F3E74FF400728A
:100C5C00F0E74FF40052EDE74FF40032EAE70823D7
:100C6C0003FA01F11142ADD015F0080FAAD0236898
:100C7C0023F00E032360026CC16B012303FA02F212
:100C8C004A60836380F82130002380F82030036BA6
:100C9C00002B97D0984795E70800024000000240CF
:100CAC0070B582B00024A446A6E0804DAA4210D0B4
:100CBC0007D97F4DAA420CD005F58035AA4208D041
:100CCC0013E0A5F58015AA4203D005F57025AA42BC
:100CDC0007D18A68002A58D0012A51D043610824D0
:100CEC0003E0A5F58015AA42F3D0BEF1FF0F4ED854
:100CFC000646BEF1FF0F4CD84FEA8C0233680F2525
:100D0C00954023EA050304FA02F2134333604B685F
:100D1C0013F0805F6ED0674B9A6942F001029A61C2
:100D2C009B6903F001030193019B4FEA9C02951C04
:100D3C00614B53F825600CF003039D000F23AB406F
:100D4C0026EA03065D4B984229D003F5806398424E
:100D5C0000F08E8003F58063984200F08B8003F5E1
:100D6C008063984219D004231AE0CC68BDE7CC68A4
:100D7C000434BAE7CC680834B7E7CC680C34B4E771
:100D8C0003610824B1E70024AFE70424ADE7061D96
:100D9C00AFE7ACF108029200B0E7032300E00023B8
:100DAC00AB4033430232444D45F822304B6813F4C8
:100DBC00803F61D0424A136843EA0E0313604B68CC
:100DCC0013F4003F5ED03E4A536843EA0E0353606F
:100DDC004B6813F4801F5BD0394A936843EA0E03C7
:100DEC0093604B6813F4001F58D0354AD36843EA1C
:100DFC000E03D3600CF1010C0A6832FA0CF353D0D9
:100E0C00012303FA0CF302EA030E33EA0202F1D1D6
:100E1C004A68122A3FF649AF122A3FF666AF01A57F
:100E2C0055F822F0DF0C0008770D0008810D000842
:100E3C00930D0008F70C0008F70C0008F70C0008DD
:100E4C00F70C0008F70C0008F70C0008F70C00086A
:100E5C00F70C0008F70C0008F70C0008F70C00085A
:100E6C00F70C0008F70C00087B0D0008870D000834
:100E7C00012395E7022393E7114A136823EA0E0333
:100E8C0013609CE70E4A536823EA0E0353609FE7F6
:100E9C000B4A936823EA0E039360A2E7084AD368CF
:100EAC0023EA0E03D360A5E702B070BD0000221048
:100EBC000000311000100240000001400008014009
:100ECC00000401408368194201D0012070470020C2
:100EDC0070470AB101617047090401617047C3682A
:100EEC0001EA030221EA030141EA02410161704770
:100EFC0040B338B5044603684CF6CC421A6003681C
:100F0C0045F255521A60036842685A600368826859
:100F1C009A60FFF75FF905462368DA6812F0030F51
:100F2C000BD0FFF757F9401B2728F5D92368DB684E
:100F3C0013F0030FF0D0032003E04AF6AA221A6044
:100F4C00002038BD0120704703684AF6AA221A60B7
:100F5C000020704782B0084B1B68084AA2FB032391
:100F6C005B0A00FB03F3019300BF019B5A1E019225
:100F7C00002BF9D102B070472C000020D34D621029
:100F8C00002800F0F18170B582B00446036813F0BC
:100F9C00010F2CD0994B5B6803F00C03042B1DD074
:100FAC00964B5B6803F00C03082B12D06368B3F507
:100FBC00803F41D0002B55D103F1804303F504331E
:100FCC001A6822F480321A601A6822F480221A609D
:100FDC0037E08A4B5B6813F4803FE7D0874B1B6884
:100FEC0013F4003F03D06368002B00F0BF8123682B
:100FFC0013F0020F75D0814B5B6813F00C0F5FD0B0
:10100C007E4B5B6803F00C03082B54D02369002B38
:10101C0000F08A807A4B01221A60FFF7DBF8054654
:10102C00764B1B6813F0020F75D1FFF7D3F8401BFA
:10103C000228F5D903209EE1704A136843F48033EB
:10104C001360636843B3FFF7C5F805466B4B1B6829
:10105C0013F4003FCBD1FFF7BDF8401B6428F5D942
:10106C00032088E1B3F5A02F09D0644B1A6822F451
:10107C0080321A601A6822F480221A60E1E703F1C8
:10108C008043A3F53C331A6842F480221A601A6834
:10109C0042F480321A60D4E7FFF79CF80546574BB0
:1010AC001B6813F4003FA2D0FFF794F8401B642890
:1010BC00F5D903205FE1514B5B6813F4803FA5D158
:1010CC004E4B1B6813F0020F03D02369012B40F029
:1010DC004F814A4A136823F0F803616943EAC1035C
:1010EC001360236813F0080F33D0A369002B5CD076
:1010FC00434B0122C3F88024FFF76CF805463F4BA5
:10110C005B6A13F0020F21D1FFF764F8401B022831
:10111C00F5D903202FE1394A136823F0F8036169EC
:10112C0043EAC1031360DCE7354B00221A60FFF77A
:10113C0051F80546314B1B6813F0020FD1D0FFF765
:10114C0049F8401B0228F5D9032014E10120FFF7D0
:10115C0001FF236813F0040F00F09680274BDB6926
:10116C0013F0805F34D1254BDA6942F08052DA619A
:10117C00DB6903F080530193019B0125214B1B6814
:10118C0013F4807F26D0E368012B3DD0002B53D184
:10119C0003F1804303F504331A6A22F001021A6248
:1011AC001A6A22F004021A6233E0154B0022C3F8CB
:1011BC008024FFF70FF80546104B5B6A13F0020F03
:1011CC00C7D0FFF707F8401B0228F5D90320D2E05F
:1011DC000025D3E70B4A136843F480731360FEF7C2
:1011EC00F9FF0646074B1B6813F4807FCBD1FEF743
:1011FC00F1FF801B6428F5D90320BCE000100240ED
:10120C0000004242007000405F4A136A43F0010341
:10121C001362E36833B3FEF7DDFF06465A4B1B6AD5
:10122C0013F0020F2FD1FEF7D5FF801B41F288334C
:10123C009842F3D903209EE0052B09D0524B1A6A31
:10124C0022F001021A621A6A22F004021A62E0E722
:10125C004D4B1A6A42F004021A621A6A42F00102F9
:10126C001A62D6E7FEF7B6FF0646474B1B6A13F029
:10127C00020F08D0FEF7AEFF801B41F28833984274
:10128C00F3D9032077E0E5B9E369002B72D03E4A2D
:10129C00526802F00C02082A56D0022B17D03B4B96
:1012AC0000221A66FEF796FF0446374B1B6813F0B4
:1012BC00007F47D0FEF78EFF001B0228F5D90320D4
:1012CC0059E0314AD36923F08053D361DCE72F4BCB
:1012DC0000221A66FEF77EFF05462B4B1B6813F0A7
:1012EC00007F06D0FEF776FF401B0228F5D90320BD
:1012FC0041E0236AB3F5803F1AD023494B6823F4AD
:10130C007413226A606A024313434B601F4B012221
:10131C001A66FEF75FFF04461B4B1B6813F0007F39
:10132C000ED1FEF757FF001B0228F5D9032022E04F
:10133C00154A536823F40033A1680B435360DCE770
:10134C00002018E0002016E0012B16D00E4B5B6835
:10135C0003F48031226A914211D103F47013626A52
:10136C0093420ED1002006E001207047012002E0DC
:10137C00012000E0002002B070BD0120FBE701203D
:10138C00F9E70120F7E700BF0010024000004242DD
:10139C0086B0174B0FCB0DF1180C0CE90F0040F277
:1013AC000123ADF80430134B5B6803F00C02082AE0
:1013BC0002D0114806B07047C3F3834218326A4416
:1013CC0012F8100C13F4803F0DD00A4B5B68C3F37A
:1013DC00404318336B4413F8143C074A02FB00F0EB
:1013EC00B0FBF3F0E6E7054B03FB00F0E2E700BFD0
:1013FC00F83D00080010024000127A0000093D0080
:10140C00002800F0A08070B50D460446524B1B68B6
:10141C0003F007038B420BD24F4A136823F00703E8
:10142C000B431360136803F007038B4240F08D806D
:10143C00236813F0020F17D013F0040F04D0474A9F
:10144C00536843F4E0635360236813F0080F04D02F
:10145C00424A536843F460535360404A536823F044
:10146C00F003A1680B435360236813F0010F31D0D4
:10147C006368012B20D0022B25D0384A126812F059
:10148C00020F64D035494A6822F0030213434B60C3
:10149C00FEF7A0FE0646314B5B6803F00C03626856
:1014AC00B3EB820F16D0FEF795FE801B41F288330A
:1014BC009842F0D9032045E0284A126812F4003F04
:1014CC00E0D101203EE0254A126812F0007FD9D10C
:1014DC00012037E0204B1B6803F00703AB420AD90D
:1014EC001D4A136823F007032B431360136803F0A2
:1014FC000703AB422DD1236813F0040F06D0174A13
:10150C00536823F4E063E1680B435360236813F0E2
:10151C00080F07D0114A536823F46053216943EA3A
:10152C00C1035360FFF734FF0C4B5B68C3F3031329
:10153C000B4AD35CD8400B4B18600B4B1868FEF76A
:10154C0007FE002070BD012070470120FAE7012042
:10155C00F8E70120F6E700BF00200240001002402F
:10156C00D03D00082C00002004000020014B18681E
:10157C00704700BF2C00002008B5FFF7F7FF044BA5
:10158C005B68C3F30223034AD35CD84008BD00BF99
:10159C0000100240E03D000808B5FFF7E7FF044BE0
:1015AC005B68C3F3C223034AD35CD84008BD00BFB9
:1015BC0000100240E03D0008002856D010B504464B
:1015CC00436A33B94368B3F5827F05D00023C36106
:1015DC0002E00023036143610023A36294F85130BD
:1015EC00002B3CD0022384F851302268136823F07E
:1015FC0040031360636803F48273A26802F404422C
:10160C001343E26802F400621343226902F00202FF
:10161C001343626902F001021343A26902F40072DF
:10162C001343E26902F038021343226A02F080028B
:10163C001343A26A02F40052216813430B60638BBC
:10164C00226803F0040353602268D36923F4006317
:10165C00D36100206065012384F8513010BD84F8FB
:10166C005030204601F0E6F9BCE70120704710B479
:10167C00036A046A24F001040462846924F0F00C07
:10168C004CEA021223F00A030B438261036210BC82
:10169C00704710B4046A24F0100404628469036A6D
:1016AC0024F4704C4CEA023223F0A00343EA0113F9
:1016BC008261036210BC7047836823F070030B4394
:1016CC0043F007038360704703681B4A90420AD0BB
:1016DC00B0F1804F07D0A2F59432904203D002F5BE
:1016EC008062904203D123F070034A681343124A7C
:1016FC0090420AD0B0F1804F07D0A2F594329042BC
:10170C0003D002F58062904203D123F44073CA687F
:10171C00134323F080034A69134303608B68C3624D
:10172C000B688362044B984202D0012343617047DB
:10173C000B690363F9E700BF002C014040B310B5FF
:10174C00044690F83D30F3B1022384F83D30214635
:10175C0051F8040BFFF7B8FF012384F8463084F8E6
:10176C003E3084F83F3084F8403084F8413084F8BF
:10177C00423084F8433084F8443084F8453084F89F
:10178C003D30002010BD80F83C3001F0EFFBDBE772
:10179C000120704710B4846824F47F4C42EA032281
:1017AC000A4342EA0C02826010BC704790F83C304D
:1017BC00012B66D010B50446012380F83C3002237F
:1017CC0080F83D300268936823F47F4323F077035D
:1017DC0093600B68602B40D022D8402B47D00BD99C
:1017EC00502B0ED1CA6849680068FFF740FF5021A2
:1017FC002068FFF761FF04E0202B0CD008D9302BB8
:10180C0009D0012384F83D30002084F83C0010BD41
:10181C000BB1102BF5D119462068FFF74DFFF0E7FF
:10182C00702B0ED0B3F5005FEBD1CB684A6889689A
:10183C000068FFF7AFFF2268936843F4804393601E
:10184C00DFE7CB684A6889680068FFF7A3FF226866
:10185C00936843F077039360D3E7CA6849680068DC
:10186C00FFF717FF60212068FFF726FFC9E7CA685A
:10187C0049680068FFF7FBFE40212068FFF71CFF5A
:10188C00BFE702207047000090F83C30012B2CD0B1
:10189C0010B4012380F83C30022380F83D300368FB
:1018AC005A689C6822F0700C0A6842EA0C025A6072
:1018BC0003680F4A93420AD0B3F1804F07D0A2F5C8
:1018CC009432934203D002F58062934204D124F007
:1018DC0080044A6814439C60012380F83D30002347
:1018EC0080F83C30184610BC70470220704700BF8F
:1018FC00002C01400268D36823F0C003D36020237E
:10190C0080F83D3070470268D36823F49073D3603D
:10191C000268536923F001035361036B012B05D05B
:10192C00202380F83E300023036370470268D3689D
:10193C0023F01003D360F3E790F83D30DBB2212B9A
:10194C0001D0022070478368B3F5805F17D0036A1B
:10195C005A1C02621A7803685A60C38C9BB2013B12
:10196C009BB2C3844BB90268D36823F08003D36065
:10197C000268D36843F04003D360002070470369CA
:10198C00002BE4D1036A1B880268C3F3080353607D
:10199C00036A02330362E0E710B504460268136978
:1019AC0023F44053C1680B431361836802691343EA
:1019BC0042691A430168CB6823F4B05323F00C033B
:1019CC001343CB600268536923F4407381690B4362
:1019DC0053610268134B9A4220D0FFF7CDFD0246AB
:1019EC0002EB820202EB820263689B00B2FBF3F211
:1019FC000D48A0FB02314909642303FB11231B0191
:101A0C003233A0FB03235B0903F0F00202EB01125B
:101A1C0003F00F03216813448B6010BDFFF7BCFD6E
:101A2C000246DDE7003801401F85EB512DE9F843F4
:101A3C0005460F4616469946DDF820802C6824682A
:101A4C0037EA04030CBF4FF0010C4FF0000CB44507
:101A5C001FD1B8F1FF3FF1D0B8F1000F05D0FEF760
:101A6C00B9FBA0EB09004045E8D92A68D36823F4F8
:101A7C00D073D3602A68536923F001035361202388
:101A8C0085F83D3085F83E30002385F83C30032046
:101A9C0000E00020BDE8F88358B310B5044690F878
:101AAC003D300BB3242384F83D302268D36823F4F3
:101ABC000053D3602046FFF76FFF2268136923F4AD
:101ACC00904313612268536923F02A0353612268FF
:101ADC00D36843F40053D36000202064202384F89F
:101AEC003D3084F83E3010BD80F83C3001F08AFA6D
:101AFC00D8E7012070472DE9F04182B01E4690F8DE
:101B0C003D30DBB2202B54D104460D4690460029C3
:101B1C0053D0002A53D090F83C30012B51D00123E4
:101B2C0080F83C3000230364212380F83D30FEF71D
:101B3C0051FB0746A4F82480A4F82680A368B3F5CB
:101B4C00805F05D04FF00008002384F83C3012E091
:101B5C00236913B14FF00008F6E7A8460025F3E718
:101B6C0038F8023B2268C3F308035360E28C92B24C
:101B7C00013A92B2E284E38C9BB273B100963B467D
:101B8C00002280212046FFF751FFE0B9002DE7D05D
:101B9C0015F8012B23685A60E8E700963B460022B3
:101BAC0040212046FFF742FF78B9202384F83D30CE
:101BBC0000E0022002B0BDE8F0810120FAE701202C
:101BCC00F8E70220F6E70320F4E70320F2E72DE91B
:101BDC00F04182B01E4690F83E30DBB2202B5CD137
:101BEC0004460D46904600295BD0002A5BD090F845
:101BFC003C30012B59D0012380F83C300023036486
:101C0C00222280F83E200363FEF7E4FA0746A4F88C
:101C1C002C80A4F82E80A368B3F5805F05D04FF01C
:101C2C000008002384F83C3017E0236913B14FF00F
:101C3C000008F6E7A8460025F3E723685B68C3F3C2
:101C4C00080328F8023B03E023685B682B7001351E
:101C5C00E28D92B2013A92B2E285E38D9BB2BBB1B6
:101C6C0000963B46002220212046FFF7DFFEF0B90C
:101C7C00002DE2D0A368B3F5805FE5D013B92369DA
:101C8C00002BE1D023685B6803F07F032B70DEE749
:101C9C00202384F83E30002000E0022002B0BDE892
:101CAC00F0810120FAE70120F8E70220F6E7032093
:101CBC00F4E7704708B50168CA6822F04002CA60B0
:101CCC00202280F83D20FFF7F4FF002008BD70476C
:101CDC007047704710B5446A23685A6994F83D30D0
:101CEC00DBB2212B10D023685A6902F0400294F821
:101CFC003E30DBB2222B11D0236C43F01003236453
:101D0C002046FFF7E6FF10BD02F08002002AEAD061
:101D1C000023E3842046FFF7EDFDE4E7002AEBD037
:101D2C000023E3852046FFF7EEFDE5E708B5406AA2
:101D3C000023C385C384FFF7CCFF08BD704790F820
:101D4C003E30DBB2222B60D18368B3F5805F46D086
:101D5C00826AB3F5805F04D0002B4DD10369002B50
:101D6C004AD103685B681370836A01338362C38D45
:101D7C009BB2013B9BB2C385002B48D100B583B00D
:101D8C000268D36823F02003D3600268D36823F47D
:101D9C008073D3600268536923F0010353612023DD
:101DAC0080F83E30036B012B2CD1002303630268B7
:101DBC00D36823F01003D36003681A6812F0100F75
:101DCC0006D0002201921A6801925B680193019B74
:101DDC00818DFFF7B3FF002003B05DF804FB0269AF
:101DEC00002AB5D1826A03685B68C3F308031380C9
:101DFC00836A02338362BAE703685B6803F07F038C
:101E0C001370B1E7FFF763FFE5E70220704700208E
:101E1C007047000030B583B0044602681368D06880
:101E2C00516913F00F0505D113F0200F02D010F0FB
:101E3C00200F19D12DB111F0010119D110F4907F9F
:101E4C0016D1216B012975D013F0800F03D010F03F
:101E5C00800F40F0D78013F0400F03D010F0400FEC
:101E6C0040F0D48003B030BD2046FFF768FFF9E79F
:101E7C0013F0010F06D010F4807F03D0226C42F0D7
:101E8C000102226413F0040F04D019B1226C42F049
:101E9C000202226413F0020F04D019B1226C42F03A
:101EAC000402226413F0080F07D010F0200F00D1A9
:101EBC0019B1226C42F008022264226C002AD1D0A3
:101ECC0013F0200F02D010F0200F21D123685B6992
:101EDC0003F04003226C12F0080F00D123B320460C
:101EEC00FFF711FD23685A6912F0400F18D05A6998
:101EFC0022F040025A61A36B73B1464A5A63A06B3D
:101F0C00FEF7E0FD0028ADD0A06B436B9847A9E726
:101F1C002046FFF714FFD9E72046FFF7DAFEA1E7CA
:101F2C002046FFF7D6FE9DE72046FFF7D2FE0023A2
:101F3C00236497E713F0100F86D010F0100F83D0A6
:101F4C00002301931368019353680193019B536918
:101F5C0013F0400F32D0A16B0B685B689BB2002B67
:101F6C0080D0A08D98427FF67DAFE3858B69202BC6
:101F7C0008D1A18DE38D9BB2C91A89B22046FFF717
:101F8C00DDFE6FE7D36823F48073D3602268536956
:101F9C0023F0010353612268536923F0400353611A
:101FAC00202384F83E30002323632268D36823F077
:101FBC001003D360A06BFEF763FDDAE7A18DE38D10
:101FCC009BB2C91A89B2E38D9BB2002B3FF44AAF86
:101FDC0000293FF447AFD36823F49073D360226891
:101FEC00536923F001035361202384F83E3000230E
:101FFC0023632268D36823F01003D3602046FFF7D5
:10200C009DFE2FE72046FFF797FC2BE72046FFF7B6
:10201C0051FE27E7391D000808B5406A036B012BF8
:10202C0002D0FFF755FE08BD818D4908FFF786FEEB
:10203C00F9E708B50346406A1B681B6813F0200FCC
:10204C0016D10023C3850268D36823F48073D36050
:10205C000268536923F0010353610268536923F04A
:10206C0040035361202380F83E30036B012B05D0D5
:10207C00036B012B08D0FFF72AFE08BD0268D3685A
:10208C0023F01003D360F3E7818DFFF757FEF4E7DD
:10209C0030B583B004461346816282850025056401
:1020AC00222280F83E20826B14489062A26B144866
:1020BC00D062A26B13481063A26B556320680A466A
:1020CC00011DA06BFEF7A2FC019523681A68019212
:1020DC005A680192019A84F83C50DA6842F4807292
:1020EC00DA602268536943F0010353612268536933
:1020FC0043F040035361284603B030BD3F20000835
:10210C0025200008E11C000808B590F83E30DBB231
:10211C00202B0DD171B17AB190F83C30012B0DD040
:10212C00012380F83C3000230363FFF7B1FF00E08C
:10213C00022008BD0120FCE70120FAE70220F8E7A5
:10214C0010B50268D36843F01003D3600A681368B3
:10215C0043F0020313600A68136823F0040313604E
:10216C00044C4FF480722146FFF7CEFF84F8000137
:10217C0010BD00BFB400002070B5C56B03681A68B1
:10218C0012F0020F29D00446254A934214D014327F
:10219C00934223D01432934222D01432934222D051
:1021AC001432934222D01432934202D04FF0007278
:1021BC0003E04FF4001200E002221A4B5A604FF475
:1021CC0080720021184801F06FF923685A6892B2A6
:1021DC00C2F5807292B2FF2A0BD970BD2022ECE7B7
:1021EC004FF40072E9E74FF40052E6E74FF4003287
:1021FC00E3E70E4E314606F5827001F047F9226C8A
:10220C003F239340AB602368DE6023684FF48072F9
:10221C005A602268136843F001031360DDE700BFC6
:10222C000800024000000240B8010020B400002069
:10223C00034608461A68116811F0100F00D1704758
:10224C0000B583B0116801915268019201680A6867
:10225C0022F001020A601946FFF78EFF03B05DF809
:10226C0004FB000008B513491348FFF769FF134935
:10227C001348FFF765FF00230AE0124A002122F8F9
:10228C00331002EBC30251809180D18001339BB299
:10229C00B3F5B47FF1D300F0F9FA00F0A5F9FDF72E
:1022AC0099FF084BC3F8400B4FF47A72A3F8442BF8
:1022BC0008BD00BFB41000202C10002070100020AE
:1022CC00E80F0020B8020020B0F5B47F0BD20A88CA
:1022DC00054B23F830204A8803EBC00042808B88E2
:1022EC008380CB88C3807047B802002008B51021CA
:1022FC000148FEF7F4FD08BD0008014008B5FDF7E4
:10230C0069FF024BC3F8480B08BD00BFB8020020A0
:10231C0038B505460C46FDF75DFF401BA04201D2C7
:10232C00002038BD0120FCE710B50446FDF752FF34
:10233C00206010BD08B52448244B0360092343607A
:10234C0000238360C3604FF4A022026143610376D3
:10235C0043768376C37603774377FDF755FF30BB1F
:10236C0019480023C3630364012242648362C3627D
:10237C0003634363836382640E23C36400F1280107
:10238C00FDF7E8FFB0B91048FEF76AF8A8B90221CA
:10239C000D48FEF73EF998B90B4B01225A65002205
:1023AC00DA659A650821196683F8642008BD00F087
:1023BC0021FAD5E700F01EFAE5E700F01BFAE6E794
:1023CC0000F018FAE8E700BF880E00200064004017
:1023DC0010B586B00023029303930493059302680F
:1023EC00224B9A4201D006B010BD03F5D633DA6900
:1023FC0042F00072DA61DA6902F000720092009A1F
:10240C009A6942F008029A619B6903F008030193F0
:10241C00019B4FF480730293154C02A92046FEF7E2
:10242C003FFC4FF4007302930223039303230593A1
:10243C0002A92046FEF734FC0E4A536823F4C0432D
:10244C0043F0E06343F480435360002211461420B0
:10245C00FEF736FA1420FEF76BFA0022114615200F
:10246C00FEF72EFA1520FEF763FABCE70064004075
:10247C00000C01400000014000B583B00E4B5A69BE
:10248C0042F001025A615B6903F001030193019B65
:10249C00002211460D20FEF713FA0D20FEF748FA24
:1024AC00002211461020FEF70BFA1020FEF740FA1E
:1024BC0003B05DF804FB00BF001002402DE9F043AF
:1024CC0089B000240494059406940794304B9A69BF
:1024DC0042F010029A619A6902F010020092009A7E
:1024EC009A6942F020029A619A6902F020020192E4
:1024FC00019A9A6942F004029A619A6902F0040204
:10250C000292029A9A6942F008029A619B6903F05E
:10251C0008030393039BDFF87C9022464FF4005191
:10252C004846FEF7D6FCDFF8708022461321404661
:10253C00FEF7CFFC194E224601213046FEF7C9FCAE
:10254C004FF4005304930125059506940227079731
:10255C0004A94846FEF7A4FB13230493059506949F
:10256C00079704A94046FEF79BFB04950595069436
:10257C00079704A93046FEF793FB40230493059478
:10258C00069504A93046FEF78BFB09B0BDE8F08335
:10259C00001002400010014000080140000C0140F6
:1025AC0008B50748074B0360042343604FF42F73AF
:1025BC008360FEF79DFC00B908BD00F01BF9FBE73A
:1025CC00200F002000300040054B1B78662B00D0FC
:1025DC007047044B01221A70014A52785A70F7E77F
:1025EC00B80100202C0F002008B50F48002300F87C
:1025FC00043BFFF799FE0C4B1B7873B90B4800F0AA
:10260C00FBF84FF49671084B5868FFF781FE0028D1
:10261C00F1D0054B00221A70EDE7034B00221A7221
:10262C005A785A7208BD00BF2C0F00200C3E0008CF
:10263C0010B53221424BD868FFF76AFE002830D023
:10264C003F48002300F8043BFFF76EFE3D4800F0C6
:10265C00D3F83B4B1B7853B93221394B5868FFF7F1
:10266C0057FE0028F5D0364B00221A701CE0344B74
:10267C005A78587A824218D140213348FEF722FC0E
:10268C00D0B92F4B1B7CBBB92D4A01331374537A31
:10269C00032B0DD001332A4A5372294B5B78012B43
:1026AC0018D02A48FFF740FE10BD00F0FDF8E3E714
:1026BC00134600225A72F0E740212348FEF702FC31
:1026CC000028EAD01E4B1B7C002BE6D01C4B0022B2
:1026DC001A74E2E71A4B1B7A43B9194B197AB1FAFF
:1026EC0081F14909012000F06BF9DAE7184C2178E7
:1026FC00002000F01DF96188012000F019F9217902
:10270C00022000F015F9E188002000F029F9218958
:10271C00012000F025F96189022000F021F904F173
:10272C000C01002000F0D6F804F11801012000F093
:10273C00D1F8034B597C3231012000F029F9CCE758
:10274C002C0F00200C3E0008000C0140380F00201C
:10275C000800002030B591B02822002106A800F016
:10276C00A3FE002401940294039404940594092379
:10277C0006934FF48033079301220A920C920225A0
:10278C000D950E934FF4E0130F9306A8FEF7F8FB8C
:10279C000F230193029503944FF4806304930594E3
:1027AC00294601A8FEF72CFE11B030BD08B5FDF787
:1027BC00F3FCFFF7CFFFFFF781FEFFF75DFEFFF79E
:1027CC00B9FD00F015F900F09BFB00F0E5FB00F003
:1027DC00FDFBFFF7E5FEFFF745FD01210448FEF781
:1027EC007EFB00F075FBFFF723FFFFF787FDF8E793
:1027FC00000801407047000038B5044600E05B68F3
:10280C000B4B1B681A6812F0200FF8D12046FDF70D
:10281C0097FC074D322382B221462846FFF76BF90D
:10282C003223032203492846FFF765F938BD00BF60
:10283C002C1000202800002000B583B00023019349
:10284C00642304220DEB02010F48FFF7C0F99DF839
:10285C000430012B03D0002003B05DF804FB9DF87D
:10286C000530FF2B01D00020F6E79DF80630FF2B3A
:10287C0001D00020F0E79DF80730FF2B01D000209D
:10288C00EAE70120E8E700BF2C10002008B5044857
:10289C00FFF7B2FF0348FFF7AFFFFFF7CDFF08BD0F
:1028AC00083E0008143E000800B585B0024600231F
:1028BC0001930293ADF80C30054901A800F0FCFD22
:1028CC0001A8FFF799FFFFF7B7FF05B05DF804FB10
:1028DC001C3E0008F0B59BB006460D4600240D9436
:1028EC002E273A4621460EA800F0DEFD00943A460B
:1028FC00214601A800F0D8FD234608E015F803C0D6
:10290C0003F168020DEB020404F868CC0133132BBD
:10291C00F4DD6B46324605490DA800F0CDFD0DA83F
:10292C00FFF76AFFFFF788FF1BB0F0BD243E0008DD
:10293C0010B584B002460B46002400940194029416
:10294C00CDF80B400549684600F0B6FD6846FFF728
:10295C0053FFFFF771FF04B010BD00BF403E0008ED
:10296C0010B584B002460B460024009401940294E6
:10297C00CDF80B400549684600F09EFD6846FFF710
:10298C003BFFFFF759FF04B010BD00BF583E0008D5
:10299C0010B584B002460B460024009401940294B6
:1029AC00CDF80B400549684600F086FD6846FFF7F8
:1029BC0023FFFFF741FF04B010BD00BF643E0008C9
:1029CC0010B584B002460B46002400940194029486
:1029DC00CDF80B400549684600F06EFD6846FFF7E0
:1029EC000BFFFFF729FF04B010BD00BF383F0008F4
:1029FC0008B50E480E4B03604FF4827343600023FE
:102A0C008360C360036143614FF4007282610822EA
:102A1C00C2610362436283620A23C362FEF7CCFD88
:102A2C0000B908BDFFF7E6FEFBE700BF400F002032
:102A3C000030014010B586B0002302930393049339
:102A4C0005930268164B9A4201D006B010BD03F5EF
:102A5C0060439A6942F480529A619A6902F48052F6
:102A6C000092009A9A6942F004029A619B6903F001
:102A7C0004030193019BA0230293022303930323DA
:102A8C000593084C02A92046FEF70AF9402302934D
:102A9C0000230393049302A92046FEF701F9D4E71F
:102AAC00003001400008014082B00E4B9A6942F0A0
:102ABC0001029A619A6902F001020092009ADA69A5
:102ACC0042F08052DA61DB6903F080530193019B81
:102ADC00054A536823F0E06343F00073536002B07F
:102AEC00704700BF00100240000001407047FEE735
:102AFC00FEE7FEE7FEE770477047704708B5FDF745
:102B0C005DFB08BD10B5044C2046FEF727F80349C1
:102B1C002046FFF731FB10BDB41000202C10002014
:102B2C0008B50248FEF71AF808BD00BF7010002067
:102B3C0038B51A48FDF78CFDFDF74CFB184B1B689C
:102B4C00C01A1E281DD8174B1B782BB9154B012208
:102B5C001A70154B00221A70144D154C2B46224638
:102B6C0000210E48FDF7AAFC29462088FFF7ACFB94
:102B7C00FDF730FB0F4B1B68C01AB0F5FA7F09D379
:102B8C0038BD01210C48FEF7AAF9FDF723FB044BD5
:102B9C001860D8E70948FEF7D7F9F1E7880E00204E
:102BAC00980F0020340F00203D0F0020F40E002061
:102BBC00040F0020F810002000080140200F002016
:102BCC0008B50248FDF744FD08BD00BF880E002083
:102BDC0010B5054C2046FFF71DF904492046FFF7B8
:102BEC0027FB00F04BF810BDE80F00207010002000
:102BFC0010B5054C2046FFF70DF904492046FFF7A8
:102C0C0017FBFFF7E1FC10BD2C100020B4100020C6
:102C1C000F4B1A6842F001021A6059680D4A0A40BB
:102C2C005A601A6822F0847222F480321A601A6890
:102C3C0022F480221A605A6822F4FE025A604FF481
:102C4C001F029A60044B4FF000629A60704700BFFD
:102C5C00001002400000FFF800ED00E001E0013040
:102C6C00013190F800C00B789C4505D1013A92B225
:102C7C00002AF4D1012070470020704708B5104B92
:102C8C00DB78902B08D104220E490F48FFF7E6FFA2
:102C9C0010B90E4B1B7803B108BDFFF727FB084991
:102CAC004B781B020A4A138089780B449BB2138021
:102CBC00FF2BF1D8024BDA7B064B1A70ECE700BF06
:102CCC00B8010020643F0008C7010020FC10002060
:102CDC009C0F00203D0F002010B582B04FF4827481
:102CEC000DE03B4901EBC402D388009393885288D2
:102CFC0031F83410204600F005FB0134A4B2B4F5D1
:102D0C00847FEED340F209140DE0314901EBC4028B
:102D1C00D38800939388528831F83410204600F001
:102D2C00F1FA0134A4B2B4F5867FEED94FF487746E
:102D3C000DE0274901EBC402D38800939388528895
:102D4C0031F83410204600F0DDFA0134A4B2B4F5A9
:102D5C00897FEED340F213140DE01D4901EBC40240
:102D6C00D38800939388528831F83410204600F0B1
:102D7C00C9FA0134A4B2B4F58B7FEED94FF48C743C
:102D8C000DE0134901EBC402D38800939388528859
:102D9C0031F83410204600F0B5FA0134A4B2B4F581
:102DAC008E7FEED340F21D140DE0094901EBC402F5
:102DBC00D38800939388528831F83410204600F061
:102DCC00A1FA0134A4B2B4F5907FEED902B010BDD3
:102DDC00B802002010B582B00020009003460246D5
:102DEC003A49098800F08EFA3324362C0ED837492C
:102DFC0001EBC402D38800939388528831F83410C5
:102E0C00204600F07FFA0134A4B2EEE72F4CB4F860
:102E1C0056350093B4F85435B4F85225B4F850151F
:102E2C00AA2000F06FFAB4F85E350093B4F85C3564
:102E3C00B4F85A25B4F85815AB2000F063FAB4F87E
:102E4C000E350093B4F80C35B4F80A25B4F808150F
:102E5C00A12000F057FAB4F80E350093B4F80C35F5
:102E6C00B4F80A25B4F80815A22000F04BFA9C24FB
:102E7C009F2C0ED8154901EBC402D388009393887C
:102E8C00528831F83410204600F03CFA0134A4B2D8
:102E9C00EEE70E49CB8900938B894A890989012079
:102EAC0000F030FA65240DE0084901EBC402D38828
:102EBC0000939388528831F83410204600F022FA9F
:102ECC000134A4B26B2CEFD902B010BDB8020020B3
:102EDC0008B5094A1168094B1B685B1A9288934222
:102EEC0002D8FFF777FF08BDFFF7F6FEFDF772F982
:102EFC00014B1860F5E700BFF80D0020000E002014
:102F0C0000B587B0002302930393049305930093B9
:102F1C0001931448144A0260436083604FF6FF72B9
:102F2C00C26003618361FEF709FC90B94FF48053D2
:102F3C00029302A90B48FEF739FC68B900230093F1
:102F4C00019369460748FEF79FFC40B907B05DF84E
:102F5C0004FBFFF74FFCE9E7FFF74CFCEEE7FFF74C
:102F6C0049FCF3E7A00F0020000400400268094B65
:102F7C009A4200D0704782B003F50333DA6942F00D
:102F8C000202DA61DB6903F002030193019B02B0D8
:102F9C00704700BF0004004008B50A480A4B0360A4
:102FAC004FF4E133436000238360C36003610C2260
:102FBC0042618361C361FEF76FFD00B908BDFFF785
:102FCC0019FCFBE7E80F00200044004008B50B4853
:102FDC000B4B43644FF4E13383640023C3640365F8
:102FEC0043650C228265C36503664430FEF754FDCD
:102FFC0000B908BDFFF7FEFBFBE700BFE80F0020A0
:10300C000048004070B588B0044600230493059333
:10301C00069307930368554A934204D0544A93424B
:10302C0051D008B070BD534BDA6942F40032DA610A
:10303C00DA6902F400320092009A9A6942F00402B2
:10304C009A619B6903F004030193019B042304938D
:10305C000223059303230793474E04A93046FDF73B
:10306C001FFE0823049300250595069504A93046F8
:10307C00FDF716FE4148424BC0F88830C0F88C5022
:10308C00C0F890508023C0F89430C0F89850C0F825
:10309C009C50C0F8A050C0F8A4508830FDF780FCBC
:1030AC0070B9364B03F18802A263C3F8AC4000221E
:1030BC0011462620FDF704FC2620FDF739FCB0E76D
:1030CC00FFF798FBEDE72B4BDA6942F48022DA61CB
:1030DC00DA6902F480220292029A9A6942F008029A
:1030EC009A619B6903F008030393039B4FF480637D
:1030FC0004930223059303230793224E04A930461D
:10310C00FDF7CEFD4FF4006304930025059506955D
:10311C0004A93046FDF7C4FD18481B4BC0F8CC3051
:10312C00C0F8D050C0F8D4508023C0F8D830C0F8C4
:10313C00DC50C0F8E050C0F8E450C0F8E850CC3097
:10314C00FDF72EFC70B90D4B03F1CC02A263C3F852
:10315C00F040002211462720FDF7B2FB2720FDF797
:10316C00E7FB5EE7FFF746FBEDE700BF00440040DE
:10317C00004800400010024000080140E80F002009
:10318C006C000240000C014030000240F0B589B0E8
:10319C0005460C467E238DF81F3010238DF81E300B
:1031AC0000278DF81D70534E05AB96E8070003C33E
:1031BC001A70F368ADF810301B0C8DF812308DF8C6
:1031CC000F7040238DF80E30FF2C00F3918004F12A
:1031DC000E06102302933B4608E003F120026A44DA
:1031EC0012F80C1C029A0A4402920133072BF4DDEC
:1031FC00002308E003F120026A4412F8101C029A22
:10320C000A4402920133012BF4DD029B40330293FA
:10321C00002304E0E95C029A0A4402920133A342BF
:10322C00F8DB9DF808300293C3F1FF030293324F91
:10323C00642301220DF11F013846FEF75CFC06F4F5
:10324C007F4301936423012201A93846FEF753FC06
:10325C00F6B201966423012201A93846FEF74BFC15
:10326C00642301220DF11E013846FEF744FC642351
:10327C0001220DF11D013846FEF73DFC64230822A6
:10328C0005A93846FEF737FC6423022204A9384608
:10329C00FEF731FC642301220DF10F013846FEF7D5
:1032AC002AFC642301220DF10E013846FEF723FCA3
:1032BC006423A2B229463846FEF71DFC6423012282
:1032CC0002A93846FEF717FCFCF784FF0B4B1B6872
:1032DC00C01A3C2802D8012009B0F0BD02210848D0
:1032EC00FDF7FDFDFCF776FF044B18600120F3E7BA
:1032FC000020F1E7E83D0008E80F0020F81000205E
:10330C00000801400FB400B5A9B02AAB53F8042B48
:10331C002793002309E02799081D2790088828A9DE
:10332C0001EB430121F80C0C0133032BF3DD2E4B85
:10333C001B79032B12D8DFE803F002192D438DF80B
:10334C00142012128DF8152025AB03CBCDF81600E6
:10335C00CDF81A100A2105A8FFF718FF0020FCF77A
:10336C003FFF29B05DF804EB04B07047BDF8963010
:10337C00BDF89810BDF89A00029001910093BDF829
:10338C0094301A4905A800F097F8014605A8FFF7F4
:10339C00FDFEE3E7BDF89630BDF89810BDF89A0035
:1033AC00029001910093BDF89430114905A800F0EA
:1033BC0083F8642382B205A90E48FEF79CFBCDE787
:1033CC001388ADF8143025AB03CBCDF81600CDF82F
:1033DC001A1000239B7A8DF81E3064230B2205A94A
:1033EC000448FEF788FBB9E7F81000206C3F000892
:1033FC007C3F0008E80F0020002103E00B4B5B58DA
:10340C00435004310A480B4B42189A42F6D30A4AED
:10341C0002E0002342F8043B084B9A42F9D3FFF731
:10342C00F7FB00F00FF8FFF7C1F97047C83F000831
:10343C0000000020940000209400002014110020B3
:10344C00FEE7000070B500260C4D0D4C641BA4105B
:10345C00A64209D100F0AAFC00260A4D0A4C641BB6
:10346C00A410A64205D170BD55F8043B984701360F
:10347C00EEE755F8043B98470136F2E7C03F0008E9
:10348C00C03F0008C03F0008C43F00080A449142F6
:10349C0000F1FF3300D1704710B511F8014B914288
:1034AC0003F8014FF9D110BD03460244934200D1F9
:1034BC00704703F8011BF9E70EB46FF0004100B53B
:1034CC009CB01DAB029006900791049108480949E5
:1034DC0053F8042B0591006802A9019300F068F8D9
:1034EC000022029B1A701CB05DF804EB03B070470D
:1034FC00300000200802FFFF2DE9F0478E6882465D
:10350C009E420C4690461F4638D88A8912F4906F1A
:10351C0032D0256809690133A5EB010965694B4473
:10352C0005EB450505EBD5756D109D4238BF1D4665
:10353C00530531D5294600F061FB064650B90C23E2
:10354C004FF0FF30CAF80030A38943F04003A38149
:10355C00BDE8F0874A462169FFF798FFA38923F459
:10356C00906343F08003A38126614E4426603E465F
:10357C006561A5EB0905A560BE4200D93E46324601
:10358C004146206800F0B8FAA36800209B1BA3609A
:10359C00236833442360DBE72A4600F0A3FB06468E
:1035AC000028E1D15046216900F0C0FAC7E70000BD
:1035BC002DE9F04F98468B8907461B060D4614469D
:1035CC009DB00ED50B6963B9402100F017FB286044
:1035DC00286120B90C233B604FF0FF30D1E0402331
:1035EC006B610023099320238DF8293030234FF091
:1035FC000109CDF80C80DFF8A4818DF82A30234620
:10360C009A4613F8012B0AB1252AF9D1BAEB040B0F
:10361C000BD05B46224629463846FFF76DFF01303A
:10362C0000F0AA80099A5A4409929AF80030002BAB
:10363C0000F0A28000234FF0FF32CDE905230AF100
:10364C00010A049307938DF853301A9354460522BC
:10365C0014F8011B514800F041FA049AD8B9D0066D
:10366C0044BF20238DF85330110744BF2B238DF812
:10367C0053309AF800302A2B15D0544600204FF0C6
:10368C000A0C079A214611F8013B303B092B4ED905
:10369C00B0B1079214E0A0EB080309FA03F313434B
:1036AC00A2460493D2E7039B191D1B680391002BC0
:1036BC00BBBF5B4242F0020207930793B8BF049270
:1036CC0023782E2B0CD163782A2B35D1039B023413
:1036DC001A1D1B680392002BB8BF4FF0FF330593E4
:1036EC00DFF8BCA003225046217800F0F7F940B176
:1036FC004023A0EB0A0003FA00F0049B01340343BF
:10370C00049314F8011B062226488DF8281000F0AB
:10371C00E5F9002838D0244B1BBB039B073323F05F
:10372C00070308330393099B3344099367E70C465B
:10373C0001200CFB0232A5E700234FF00A0C1946BE
:10374C0001340593204610F8012B303A092A03D98D
:10375C00002BC5D00591C3E7044601230CFB0121C6
:10376C00F0E703AB00932A463846104B04A9AFF39D
:10377C000080421C0646D6D1AB895B063FF52CAFC8
:10378C0009981DB0BDE8F08F03AB00932A4638466C
:10379C00064B04A900F07CF8EBE700BF8C3F000857
:1037AC00923F0008963F0008000000000535000815
:1037BC002DE9F047164699468A680B6907469342ED
:1037CC00B8BF1346336091F843200C46DDF82080D7
:1037DC000AB1013333602368990642BF3368023360
:1037EC003360256815F0060506D104F1190AE36863
:1037FC0032689B1AAB4228DC94F84320131E2268D3
:10380C0018BF012392062DD44946384604F14302D1
:10381C00C047013020D02368E56803F00603042B71
:10382C0018BF002532684FF00006A36808BFAD1A18
:10383C00226908BF25EAE5759342C4BF9B1AED18AF
:10384C001A34B5421AD1002008E0012352464946E9
:10385C003846C047013003D14FF0FF30BDE8F08748
:10386C000135C4E73020E11881F843005A1C94F864
:10387C0045102244023382F84310C5E70123224647
:10388C0049463846C0470130E6D00136D9E700003A
:10389C002DE9FF470F7E9146782F80460C469A46BD
:1038AC000C9D01F1430207D8622F0AD8002F00F0BB
:1038BC00D980582F00F0A48004F1420584F842709E
:1038CC003AE0A7F16303152BF6D801A151F823F0C8
:1038DC003539000849390008C5380008C5380008D2
:1038EC00C5380008C538000849390008C538000833
:1038FC00C5380008C5380008C5380008573A000814
:10390C0079390008393A0008C5380008C53800086C
:10391C00793A0008C538000879390008C53800081C
:10392C00C5380008413A00082B681A1D1B682A602C
:10393C0004F1420584F842300123A4E02068296890
:10394C00060601F104030AD50E682B60002E03DA7B
:10395C002D23764284F843300A235E4819E00E6822
:10396C0010F0400F2B6018BF36B2EFE72B682068C1
:10397C00191D2960010601D51E6802E04606FBD51B
:10398C001E886F2F0CBF08230A235248002184F88D
:10399C0043106568002DA8BF2168A560A4BF21F065
:1039AC00040121600EB9002D4DD01546B6FBF3F184
:1039BC0003FB1167C75D05F8017D3746BB420E4618
:1039CC00F4D9082B0BD12368DE0708D5236961686D
:1039DC009942DEBF302305F8013C05F1FF35521B3F
:1039EC0022614B4621464046CDF800A003AAFFF7C2
:1039FC00DFFE01304CD14FF0FF3004B0BDE8F08752
:103A0C00344881F845702968236851F8046B2960A3
:103A1C001D0614D5DF0744BF43F0200323601EB9F5
:103A2C00236823F0200323601023AFE7236843F0BF
:103A3C00200323607823284884F84530E3E75906AF
:103A4C0048BFB6B2E6E71546BBE72B682668181DDB
:103A5C006169286035061B6801D5196002E07006A3
:103A6C00FBD51980002315462361BAE72B6800218A
:103A7C001A1D2A601D686268284600F02FF808B1EC
:103A8C00401B606063682361002384F84330A8E71F
:103A9C002A46494640462369D0470130ABD02368BB
:103AAC009B0713D4E068039B9842B8BF1846A4E761
:103ABC000123324649464046D04701309BD0013560
:103ACC00E36803995B1AAB42F2DCEBE7002504F1E7
:103ADC001906F5E79D3F0008AE3F0008034610B5F8
:103AEC00C9B202449342184601D1002003E0047885
:103AFC0001338C42F6D110BD884210B501EB0204A3
:103B0C0002D98442234607D8431EA14208D011F89B
:103B1C00012B03F8012FF8E7014602448A4200D139
:103B2C0010BD13F8014D02F8014DF7E738B5054605
:103B3C00002940D051F8043C0C1F002BB8BFE418EE
:103B4C0000F010F91C4A136833B9636014602846FE
:103B5C00BDE8384000F00CB9A34208D92068211800
:103B6C008B4201BF19685B6809182160EDE71A46A2
:103B7C005B680BB1A342FAD911685018A0420BD163
:103B8C0020680144501883421160E0D118685B68CA
:103B9C00014411605360DAE702D90C232B60D6E79D
:103BAC00206821188B4201BF19685B6809182160D5
:103BBC0063605460CBE738BD0011002070B50E4E29
:103BCC000C463168054611B900F0BCF8306021464E
:103BDC00284600F0B7F8431C0AD0C41C24F0030498
:103BEC00A04207D0211A284600F0ACF8013001D1D0
:103BFC004FF0FF34204670BD041100202DE9F04138
:103C0C00CD1C25F0030508350C2D38BF0C25002DD7
:103C1C00074601DBA94205D90C2300263B60304640
:103C2C00BDE8F0812E4E00F09DF833681C4634BB85
:103C3C0029463846FFF7C2FF431C04464DD1346871
:103C4C002646002E40D123683146384604EB030843
:103C5C0000F078F880453AD1216803356D1A25F0CB
:103C6C00030508350C2D38BF0C2538462946FFF7BF
:103C7C00A5FF01302BD023682B4423600EE0226873
:103C8C00521B1ED40B2A16D96119A342256018BFEA
:103C9C005960636808BF316062514B60384604F16B
:103CAC000B0600F065F826F00706231DF21AB6D0B5
:103CBC009B1BA350B3E76268A3420CBF32605A60EF
:103CCC00ECE723466468B2E734467668B9E70C2320
:103CDC0038463B6000F04CF8A1E72560DEE700BFFA
:103CEC00001100202DE9F041804614460E4621B902
:103CFC001146BDE8F041FFF781BF2AB9FFF716FF67
:103D0C0025462846BDE8F08100F038F88442074685
:103D1C0002D8B4EB500F12D821464046FFF76EFF85
:103D2C0005460028EDD0BC422246314628BF3A4613
:103D3C00FFF7ACFB31464046FFF7F8FEE1E73546AE
:103D4C00DFE7000038B50023054D044608462B601C
:103D5C0000F01EF8431C02D12B6803B1236038BD60
:103D6C0008110020014800F011B800BF0C11002010
:103D7C00014800F00CB800BF0C11002051F8043CB5
:103D8C00181F002BBCBF0B58C018704770477047EA
:103D9C00044A0346116809B90349116010680344C9
:103DAC00136070471011002018110020F8B500BFE7
:103DBC00F8BC08BC9E467047F8B500BFF8BC08BC00
:043DCC009E46704758
:103DD00000000000000000000102030406070809BB
:103DE0000000000001020304000000000000FFFFCB
:103DF0000000000000000000020304050607080997
:103E00000A0B0C0D0E0F10100000000073656E649D
:103E10006D650000626B636D643D310070616765C4
:103E2000202564007425642E7478743D2225732245
:103E300000000000676574207425642E7478740097
:103E40006E25642E76616C3D2564000067657420E4
:103E50006E25642E76616C007825642E76616C3D4B
:103E6000256400007025642E7069633D25640000A0
:103E7000676574206225642E747874006225642E50
:103E80007478743D22257322000000006765742059
:103E90006325642E76616C006325642E76616C3D2B
:103EA0002564000067657420627425642E76616C59
:103EB00000000000627425642E76616C3D2564006C
:103EC00067657420627425642E74787400000000A5
:103ED000627425642E7478743D22257322000000DC
:103EE000676574207A25642E76616C007A25642ECD
:103EF00076616C3D25640000676574206A25642E38
:103F000076616C006A25642E76616C3D2564000044
:103F1000676574207225642E76616C007225642EAC
:103F200076616C3D256400006765742076612564C8
:103F30002E76616C00000000766125642E76616C3F
:103F40003D25640067657420766125642E7478745D
:103F500000000000766125642E7478743D2225737C
:103F60002200000070696E670000000025750925B9
:103F7000750925750925750925750000257509251B
:103F8000750925750925750925750A00232D302B1E
:103F90002000686C4C00656667454647003031324A
:103FA00033343536373839414243444546003031A1
:103FB0003233343536373839616263646566000000
:043FC00031010008C3
:043FC4000D010008E3
:103FC800010000001000000042009B00380070064D
:103FD8000901A201536B696450616400000000008C
:103FE800332F340000000000FFFFFF0000A24A0446
:103FF8003400002000000000000000000000000065
:1040080000000000000000000000000000000000A8
:104018000000000000000000000000000000000098
:104028000000000000000000000000000000000088
:104038000000000000000000000000000000000078
:104048000000000000000000000000000000000068
:044058000000000064
:0400000508003405B6
:00000001FF
