:020000040800F2
:1000000000500020314600084D3C00084F3C0008DD
:10001000513C0008533C0008553C0008000000001B
:10002000000000000000000000000000573C000835
:10003000593C0008000000005B3C00085D3C0008E3
:100040007946000879460008794600087946000894
:100050007946000879460008794600087946000884
:100060007946000879460008794600087946000874
:10007000653C0008753C0008794600087946000890
:10008000853C000879460008794600087946000852
:10009000953C0008113D00087946000879460008A3
:1000A0007946000879460008794600087946000834
:1000B0007946000879460008794600087946000824
:1000C0007946000879460008794600087946000814
:1000D0007946000879460008213D0008353D0008B2
:1000E00079460008794600087946000800000000BB
:1000F0000000000000000000000000000000000000
:0C01000000000000000000005FF808F1A3
:1001100010B5054C237833B9044B13B10448AFF341
:1001200000800123237010BD80000020000000002B
:10013000E44F000808B5034B1BB103490348AFF374
:10014000008008BD0000000084000020E44F00088B
:10015000034613F8012B002AFBD1181A0138704707
:100160004FF0FF0C1CEAD0521EBF1CEAD15392EA9A
:100170000C0F93EA0C0F6FD01A4480EA010C400276
:1001800018BF5FEA41211ED04FF0006343EA5010D0
:1001900043EA5111A0FB01310CF00040B1F5000F12
:1001A0003EBF490041EAD3715B0040EA010062F1C1
:1001B0007F02FD2A1DD8B3F1004F40EBC25008BFAB
:1001C00020F00100704790F0000F0CF0004C08BFC9
:1001D00049024CEA502040EA51207F3AC2BFD2F196
:1001E000FF0340EAC250704740F400004FF00003A4
:1001F000013A5DDC12F1190FDCBF00F000407047DE
:10020000C2F10002410021FA02F1C2F1200200FA1B
:1002100002FC5FEA310040F1000053EA4C0308BFE2
:1002200020EADC70704792F0000F00F0004C02BF33
:10023000400010F4000F013AF9D040EA0C0093F0AE
:10024000000F01F0004C02BF490011F4000F013B08
:10025000F9D041EA0C018FE70CEAD15392EA0C0F76
:1002600018BF93EA0C0F0AD030F0004C18BF31F0E1
:10027000004CD8D180EA010000F00040704790F0B7
:10028000000F17BF90F0004F084691F0000F91F05B
:10029000004F14D092EA0C0F01D142020FD193EA21
:1002A0000C0F03D14B0218BF084608D180EA0100A9
:1002B00000F0004040F0FE4040F40000704740F085
:1002C000FE4040F44000704781F0004102E000BF72
:1002D00083F0004330B54FEA41044FEA430594EA06
:1002E000050F08BF90EA020F1FBF54EA000C55EA41
:1002F000020C7FEA645C7FEA655C00F0E2804FEA12
:100300005454D4EB5555B8BF6D420CDD2C4480EAF3
:10031000020281EA030382EA000083EA010180EA23
:10032000020281EA0303362D88BF30BD11F0004F71
:100330004FEA01314FF4801C4CEA113102D04042A7
:1003400061EB410113F0004F4FEA03334CEA1333E2
:1003500002D0524263EB430394EA050F00F0A780FA
:10036000A4F10104D5F1200E0DDB02FA0EFC22FAF5
:1003700005F2801841F1000103FA0EF2801843FAE9
:1003800005F359410EE0A5F120050EF1200E012ADA
:1003900003FA0EFC28BF4CF0020C43FA05F3C01818
:1003A00051EBE37101F0004507D54FF0000EDCF191
:1003B000000C7EEB00006EEB0101B1F5801F1BD33A
:1003C000B1F5001F0CD349085FEA30004FEA3C0C3E
:1003D00004F101044FEA445212F5800F80F09A8034
:1003E000BCF1004F08BF5FEA500C50F1000041EB38
:1003F000045141EA050130BD5FEA4C0C404141EB3C
:100400000101013C28BFB1F5801FE9D291F0000F36
:1004100004BF01460020B1FA81F308BF2033A3F1E5
:100420000B03B3F120020CDA0C3208DD02F1140CDC
:10043000C2F10C0201FA0CF021FA02F10CE002F117
:100440001402D8BFC2F1200C01FA02F120FA0CFC10
:10045000DCBF41EA0C019040E41AA2BF01EB045159
:10046000294330BD6FEA04041F3C1CDA0C340EDC57
:1004700004F11404C4F1200220FA04F001FA02F39A
:1004800040EA030021FA04F345EA030130BDC4F158
:100490000C04C4F1200220FA02F001FA04F340EA4D
:1004A0000300294630BD21FA04F0294630BD94F0FE
:1004B000000F83F4801306BF81F480110134013DE5
:1004C0004EE77FEA645C18BF7FEA655C29D094EA56
:1004D000050F08BF90EA020F05D054EA000C04BFD4
:1004E0001946104630BD91EA030F1EBF00210020BF
:1004F00030BD5FEA545C05D14000494128BF41F05E
:10050000004130BD14F580043CBF01F5801130BDC1
:1005100001F0004545F0FE4141F470014FF000004C
:1005200030BD7FEA645C1ABF194610467FEA655CFD
:100530001CBF0B46024650EA013406BF52EA03359F
:1005400091EA030F41F4002130BD00BF90F0000F8D
:1005500004BF0021704730B54FF4806404F13204C9
:100560004FF000054FF0000150E700BF90F0000F82
:1005700004BF0021704730B54FF4806404F13204A9
:1005800010F0004548BF40424FF000013EE700BF79
:1005900042004FEAE2014FEA31014FEA02701FBF09
:1005A00012F07F4393F07F4F81F06051704732F03B
:1005B0007F4208BF704793F07F4F04BF41F4002192
:1005C000704730B54FF4607401F0004521F00041F0
:1005D0001CE700BF50EA010208BF704730B54FF07A
:1005E00000050AE050EA010208BF704730B511F07B
:1005F000004502D5404261EB41014FF4806404F1B3
:1006000032045FEA915C3FF4D8AE4FF003025FEA38
:10061000DC0C18BF03325FEADC0C18BF033202EBBC
:10062000DC02C2F1200300FA03FC20FA02F001FA16
:1006300003FE40EA0E0021FA02F11444BDE600BFB9
:1006400070B54FF0FF0C4CF4E06C1CEA11541DBF68
:100650001CEA135594EA0C0F95EA0C0F00F0DEF833
:100660002C4481EA030621EA4C5123EA4C5350EA18
:10067000013518BF52EA033541F4801143F4801369
:1006800038D0A0FB02CE4FF00005E1FB02E506F0FA
:100690000042E0FB03E54FF00006E1FB03569CF04F
:1006A000000F18BF4EF0010EA4F1FF04B6F5007F55
:1006B00064F5407404D25FEA4E0E6D4146EB0606C7
:1006C00042EAC62141EA55514FEAC52040EA5E5050
:1006D0004FEACE2EB4F1FD0C88BFBCF5E06F1ED8FA
:1006E000BEF1004F08BF5FEA500E50F1000041EB31
:1006F000045170BD06F0004646EA010140EA0200DE
:1007000081EA0301B4EB5C04C2BFD4EB0C0541EAFF
:10071000045170BD41F480114FF0000E013C00F314
:10072000AB8014F1360FDEBF002001F0004170BD38
:10073000C4F10004203C35DA0C341BDC04F1140451
:10074000C4F1200500FA05F320FA04F001FA05F2DD
:1007500040EA020001F0004221F0004110EBD370AA
:1007600021FA04F642EB06015EEA430E08BF20EAD6
:10077000D37070BDC4F10C04C4F1200500FA04F379
:1007800020FA05F001FA04F240EA020001F000410B
:1007900010EBD37041F100015EEA430E08BF20EA7E
:1007A000D37070BDC4F1200500FA05F24EEA020EC6
:1007B00020FA04F301FA05F243EA020321FA04F0F5
:1007C00001F0004121FA04F220EA020000EBD370AC
:1007D0005EEA430E08BF20EAD37070BD94F0000FAC
:1007E0000FD101F00046400041EB010111F4801FE0
:1007F00008BF013CF7D041EA060195F0000F18BF91
:10080000704703F00046520043EB030313F4801FCC
:1008100008BF013DF7D043EA0603704794EA0C0F86
:100820000CEA135518BF95EA0C0F0CD050EA41069C
:1008300018BF52EA4306D1D181EA030101F0004119
:100840004FF0000070BD50EA410606BF1046194641
:1008500052EA430619D094EA0C0F02D150EA01364D
:1008600013D195EA0C0F05D152EA03361CBF10468E
:1008700019460AD181EA030101F0004141F0FE412D
:1008800041F470014FF0000070BD41F0FE4141F4B1
:10089000780170BD70B54FF0FF0C4CF4E06C1CEAB1
:1008A00011541DBF1CEA135594EA0C0F95EA0C0F66
:1008B00000F0A7F8A4EB050481EA030E52EA033521
:1008C0004FEA013100F088804FEA03334FF0805542
:1008D00045EA131343EA12634FEA022245EA11156F
:1008E00045EA10654FEA00260EF000419D4208BF20
:1008F000964244F1FD0404F5407402D25B084FEACD
:100900003202B61A65EB03055B084FEA32024FF478
:1009100080104FF4002CB6EB020E75EB030E22BFD5
:10092000B61A754640EA0C005B084FEA3202B6EB95
:10093000020E75EB030E22BFB61A754640EA5C0044
:100940005B084FEA3202B6EB020E75EB030E22BFD4
:10095000B61A754640EA9C005B084FEA3202B6EBD5
:10096000020E75EB030E22BFB61A754640EADC0094
:1009700055EA060E18D04FEA051545EA16754FEAF6
:1009800006164FEAC30343EA52734FEAC2025FEA14
:100990001C1CC0D111F4801F0BD141EA00014FF0A3
:1009A00000004FF0004CB6E711F4801F04BF014374
:1009B0000020B4F1FD0C88BFBCF5E06F3FF6AFAE90
:1009C000B5EB030C04BFB6EB020C5FEA500C50F120
:1009D000000041EB045170BD0EF0004E4EEA1131A3
:1009E00014EB5C04C2BFD4EB0C0541EA045170BDAA
:1009F00041F480114FF0000E013C90E645EA060EEE
:100A00008DE60CEA135594EA0C0F08BF95EA0C0F1B
:100A10003FF43BAF94EA0C0F0AD150EA01347FF463
:100A200034AF95EA0C0F7FF425AF104619462CE73A
:100A300095EA0C0F06D152EA03353FF4FDAE10469D
:100A4000194622E750EA410618BF52EA43067FF4EE
:100A5000C5AE50EA41047FF40DAF52EA43057FF47E
:100A6000EBAE12E74A0011D212F5001211D20DD5E9
:100A70006FF47873B3EB62520ED44FEAC12343F0A4
:100A8000004343EA505323FA02F070474FF000004E
:100A9000704750EA013002D14FF0FF3070474FF0FD
:100AA000000070474FEA4102B2F1E04324BFB3F5C2
:100AB000001CDCF1FE5C0DD901F0004C4FEAC002D5
:100AC0004CEA5070B2F1004F40EB830008BF20F0B9
:100AD0000100704711F0804F21D113F13872BCBF73
:100AE00001F00040704741F480114FEA5252C2F1C8
:100AF0001802C2F1200C10FA0CF320FA02F018BF11
:100B000040F001004FEAC1234FEAD32303FA0CFC63
:100B100040EA0C0023FA02F34FEA4303CCE77FEAF2
:100B2000625307D150EA01331EBF4FF0FE4040F43C
:100B30004000704701F0004040F0FE4040F40000EB
:100B4000704700BF10B504460E4B18784FF47A7307
:100B5000B3FBF0F30C4A1068B0FBF3F000F0F0FBCD
:100B600068B90F2C01D901200AE0002221464FF07C
:100B7000FF3000F09FFB034B5C60002000E0012091
:100B800010BD00BF000000201400002008B5074A77
:100B9000136843F010031360032000F079FB00207A
:100BA000FFF7D0FF03F030F8002008BD002002401E
:100BB000034A1168034B1B780B441360704700BF56
:100BC0009C00002000000020014B1868704700BF07
:100BD0009C00002038B50446FFF7F6FF0546B4F147
:100BE000FF3F02D0044B1B781C44FFF7EDFF401B76
:100BF000A042FAD338BD00BF00000020002800F05A
:100C0000A18038B5044690F82030D3B1226813682B
:100C100043F001031360FFF7D7FF054623685A68C6
:100C200012F0010F10D1FFF7CFFF401B0A28F5D9B2
:100C3000636A43F400336362052384F820300120A3
:100C400038BD02F071FAE1E71A6822F002021A6078
:100C5000FFF7BAFF054623685A6812F0020F0DD05D
:100C6000FFF7B2FF401B0A28F5D9636A43F400334B
:100C70006362052384F820300120E1E7227E012A07
:100C80003DD01A6822F080021A60637E012B3BD0AF
:100C90002268136823F040031360A37E012B39D030
:100CA0002268136823F020031360E37E012B37D002
:100CB0002268136843F010031360237F012B35D0A3
:100CC0002268136823F008031360637F012B33D07D
:100CD0002268136823F004031360A368E2681343D7
:100CE00022691343626913436268013A216813431E
:100CF000CB6100206062012384F82030A0E71A68ED
:100D000042F080021A60C0E72268136843F0400393
:100D10001360C2E72268136843F020031360C4E73E
:100D20002268136823F010031360C6E72268136873
:100D300043F008031360C8E72268136843F0040314
:100D40001360CAE701207047026890F82030013B29
:100D5000DBB2012B05D9436A43F4802343620120AF
:100D6000704710B5D2F8003243F00103C2F80032E8
:100D70004B6903F01F03012000FA03F3D2F81C02B1
:100D80006FEA030C20EA0300C2F81C02C869C0B96C
:100D9000D2F80C020CEA0000C2F80C028C884869F8
:100DA000D1F80CE044EA0E44483042F830400C8858
:100DB0004869D1F808E044EA0E44483002EBC0002C
:100DC0004460C86901281AD0886988BBD2F8040237
:100DD0000CEA0000C2F80402086978BBD2F81402D9
:100DE0000CEA0000C2F81402096A01292CD0D2F8DA
:100DF000003223F00103C2F80032002010BDD2F807
:100E00000C021843C2F80C028C884869D1F800E043
:100E100044EA0E44483042F830408C894869D1F8A1
:100E200008E044EA0E44483002EBC0004460CBE7DF
:100E3000D2F804021843C2F80402CDE7D2F8140233
:100E40001843C2F81402CFE7D2F81C120B43C2F8C1
:100E50001C32CCE770B5044690F82050EDB2012D5D
:100E600006D0436A43F4002343620125284670BD3F
:100E7000022380F820300268136823F00103136016
:100E8000FFF7A2FE064623685B6813F0010F0CD043
:100E9000FFF79AFE831B0A2BF5D9636A43F40033EC
:100EA0006362052384F82030E0E700256562DDE712
:100EB00090F820C00CF1FF3C5FFA8CFCBCF1010FF4
:100EC00000F29B8010B451B90468E46814F0030F79
:100ED00010D1436A43F40013436201207BE00468AD
:100EE000246914F0030F05D1436A43F400134362ED
:100EF000012070E001F11B042401D0F800C05CF86F
:100F0000044004F004049460002C66D101F11B0439
:100F10002401D0F800C05CF80440640D146004683B
:100F200001F11B0C4FEA0C1C54F80C4004F00204B5
:100F3000D46004686444646804F00F0414610468B5
:100F400064446468C4F30724946104686444646876
:100F5000240C5461026802EB0112D2F8B8211A7015
:100F6000026802EB0112D2F8B821C2F307225A70CC
:100F7000026802EB0112D2F8B821C2F307429A705C
:100F8000026802EB0112D2F8B821120EDA70026880
:100F900002EB0112D2F8BC211A71026802EB0112B5
:100FA000D2F8BC21C2F307225A71026802EB011287
:100FB000D2F8BC21C2F307429A71026802EB011217
:100FC000D2F8BC21120EDA7189B90268D36843F0F5
:100FD0002003D360002010BC704701F11B042401E2
:100FE000D0F800C05CF80440E408546097E7026859
:100FF000136943F020031361ECE7436A43F4802351
:1010000043620120704790F82030013BDBB2012B96
:1010100005D9436A43F48023436201207047026884
:1010200053691943516100207047704770477047FA
:1010300070477047704770477047704770477047F8
:10104000704770472DE9F84F054603685C69D3F88F
:1010500004809F68D3F80CB0D3F810A0D3F8189090
:1010600014F001063BD017F0010616D001229A6059
:1010700017F0020F08D117F0040F0CD117F0080673
:1010800006D04FF4805608E0FFF7CFFF002604E0BB
:10109000FFF7CEFF01E04FF4006617F4807F0DD01C
:1010A0002B684FF480729A6017F4007F40F08680BE
:1010B00017F4806F00F0868046F4005617F4803FE6
:1010C0000DD02B684FF480329A6017F4003F40F047
:1010D000838017F4802F00F0838046F4004614F0DC
:1010E000080F07D01BF0100F04D046F400762B68D1
:1010F0001022DA6014F0040F02D01BF0080F79D12F
:1011000014F0020F04D02B68DB6813F0030F78D1C2
:1011100014F0400F07D01AF0100F04D046F4806688
:101120002B6810221A6114F0200F02D01AF0080F59
:101130006BD114F0100F04D02B681B6913F0030F50
:101140006AD114F4003F02D018F0100F68D114F4E3
:10115000803F02D018F0080F69D114F4004F7AD004
:1011600018F0040F74D014F4807F04D019F0010F2C
:1011700001D046F0010614F4007F04D019F0020FEC
:1011800001D046F0020614F4806F04D019F0040F69
:1011900001D046F0040614F4006F59D019F070091C
:1011A00056D0B9F1400F65D058D8B9F1200F5ED0B4
:1011B000B9F1300F42D146F0200644E02846FFF74F
:1011C00035FF7BE717F4006F02D046F4804675E7E1
:1011D0002846FFF72EFF71E72846FFF728FF7EE736
:1011E00017F4002F02D046F4803678E72846FFF740
:1011F00021FF74E72B680822DA602846FFF71CFFFE
:101200007EE72846FFF717FF82E72B6808221A615E
:101210002846FFF713FF8CE72846FFF70EFF90E7FD
:101220002B6810225A602846FFF709FF8FE72B68CA
:1012300008225A602846FFF703FF8EE7B9F1100F26
:1012400001D146F008062A68936923F07003936180
:101250002B6804225A609EB9BDE8F88FB9F1500F8F
:101260000BD0B9F1600FEED146F48076EBE746F093
:101270001006E8E746F04006E5E746F08006E2E7BC
:101280006B6A1E436E622846FFF7DBFEE4E7000050
:10129000074AD36823F4E0631B041B0C000200F42C
:1012A000E060034343F0BF6343F40033D36070470F
:1012B00000ED00E000B5194BDB68C3F30223C3F176
:1012C000070CBCF1040F28BF4FF0040C03F1040E0F
:1012D000BEF1060F18D9033B4FF0FF3E0EFA0CFC8F
:1012E00021EA0C0199400EFA03F322EA03031943A1
:1012F00000280BDB0901C9B200F1604000F5614034
:1013000080F800135DF804FB0023E5E700F00F0010
:101310000901C9B2024B1954F4E700BF00ED00E027
:1013200014ED00E0002807DB00F01F024009012354
:101330009340024A42F82030704700BF00E100E0CD
:101340000138B0F1807F0BD24FF0E0235861054A9D
:10135000F02182F823100020986107221A6170475B
:101360000120704700ED00E030B40124056CAC4072
:10137000C56B6C60046863604368102B05D003681C
:1013800099600368DA6030BC704703689A6003684C
:10139000D960F8E760B310B402460168154B0B44FE
:1013A0001548A0FB03031B099B001364134BD36375
:1013B000022382F82130086820F47F5020F03000AA
:1013C000536894682343D4682343146923435469BE
:1013D000234394692343D469234303430B600020D0
:1013E0009063012382F8213082F8200010BC7047FE
:1013F00001207047F8FFFDBFCDCCCCCC00000240EF
:1014000038B5044690F82000012831D0012084F836
:10141000200094F82100012804D0002384F8203013
:10142000022038BD022084F821000020A063256836
:10143000286820F0010028602046FFF795FFE36A46
:101440005BB12268136843F00E03136022681368CF
:1014500043F0010313600020E3E72268136823F0E0
:10146000040313602268136843F00A031360EDE776
:101470000220D6E790F82130022B06D004238363A4
:10148000002380F82030012070470268136823F0A1
:101490000E0313600268136823F001031360036CEA
:1014A000C16B012202FA03F34B6080F82120002374
:1014B00080F820301846704708B590F82130022B8C
:1014C00003D004238363012008BD0268136823F05E
:1014D0000E0313600268136823F0010313600368AE
:1014E000194A934214D0143293421FD014329342BB
:1014F0001ED0143293421ED0143293421ED01432A6
:10150000934202D04FF0807203E04FF4801200E06B
:1015100001220E4B5A60012380F82130002380F80D
:101520002030436B6BB198470020CDE71022F0E7E5
:101530004FF48072EDE74FF48052EAE74FF48032C7
:10154000E7E70020C0E700BF0800024000000240BB
:1015500038B5C36B1A6804682568016C04238B4096
:10156000134235D015F0040F32D0236813F0200F4A
:1015700003D1236823F0040323600368434A9342A2
:1015800014D01432934218D01432934217D014322C
:10159000934217D01432934217D01432934202D0A0
:1015A0004FF0806203E04FF4800200E00422384BE9
:1015B0005A60C36A03B1984738BD4022F7E74FF439
:1015C0008062F4E74FF48042F1E74FF48022EEE7C7
:1015D00002238B4013423CD015F0020F39D0236810
:1015E00013F0200F06D1236823F00A0323600123A0
:1015F00080F821300368254A934214D01432934274
:101600001CD0143293421BD0143293421BD014329C
:1016100093421BD01432934202D04FF0007203E089
:101620004FF4001200E00222194B5A60002380F8A8
:101630002030836A002BBFD09847BDE72022F3E714
:101640004FF40072F0E74FF40052EDE74FF4003230
:10165000EAE7082303FA01F11142ADD015F0080FB3
:10166000AAD0236823F00E032360026CC16B012310
:1016700003FA02F24A60836380F82130002380F885
:101680002030036B002B97D0984795E70800024065
:101690000000024070B582B00024A446A6E0804D50
:1016A000AA4210D007D97F4DAA420CD005F580354B
:1016B000AA4208D013E0A5F58015AA4203D005F58B
:1016C0007025AA4207D18A68002A58D0012A51D031
:1016D0004361082403E0A5F58015AA42F3D0BEF1CA
:1016E000FF0F4ED80646BEF1FF0F4CD84FEA8C02D2
:1016F00033680F25954023EA050304FA02F21343E9
:1017000033604B6813F0805F6ED0674B9A6942F08C
:1017100001029A619B6903F001030193019B4FEA67
:101720009C02951C614B53F825600CF003039D004F
:101730000F23AB4026EA03065D4B984229D003F500
:101740008063984200F08E8003F58063984200F039
:101750008B8003F58063984219D004231AE0CC688B
:10176000BDE7CC680434BAE7CC680834B7E7CC6886
:101770000C34B4E703610824B1E70024AFE7042484
:10178000ADE7061DAFE7ACF108029200B0E7032316
:1017900000E00023AB4033430232444D45F8223091
:1017A0004B6813F4803F61D0424A136843EA0E034A
:1017B00013604B6813F4003F5ED03E4A536843EA1F
:1017C0000E0353604B6813F4801F5BD0394A936853
:1017D00043EA0E0393604B6813F4001F58D0354A58
:1017E000D36843EA0E03D3600CF1010C0A6832FAA5
:1017F0000CF353D0012303FA0CF302EA030E33EA8D
:101800000202F1D14A68122A3FF649AF122A3FF686
:1018100066AF01A555F822F0C71600085F1700084B
:10182000691700087B170008DF160008DF1600089C
:10183000DF160008DF160008DF160008DF160008B4
:10184000DF160008DF160008DF160008DF160008A4
:10185000DF160008DF160008DF160008631700080F
:101860006F170008012395E7022393E7114A1368D5
:1018700023EA0E0313609CE70E4A536823EA0E0323
:1018800053609FE70B4A936823EA0E039360A2E735
:10189000084AD36823EA0E03D360A5E702B070BDFF
:1018A0000000221000003110001002400000014032
:1018B00000080140000401408368194201D0012062
:1018C0007047002070470AB1016170470904016147
:1018D0007047C36801EA030221EA030141EA0241B9
:1018E0000161704740B338B5044603684CF6CC42FA
:1018F0001A60036845F255521A60036842685A60DC
:10190000036882689A60FFF75FF905462368DA6822
:1019100012F0030F0BD0FFF757F9401B2728F5D91A
:101920002368DB6813F0030FF0D0032003E04AF6CE
:10193000AA221A60002038BD0120704703684AF6C9
:10194000AA221A600020704782B0084B1B68084A20
:10195000A2FB03235B0A00FB03F3019300BF019B7F
:101960005A1E0192002BF9D102B0704714000020DA
:10197000D34D6210002800F0F18170B582B00446AA
:10198000036813F0010F2CD0994B5B6803F00C0334
:10199000042B1DD0964B5B6803F00C03082B12D070
:1019A0006368B3F5803F41D0002B55D103F18043EC
:1019B00003F504331A6822F480321A601A6822F49C
:1019C00080221A6037E08A4B5B6813F4803FE7D0CF
:1019D000874B1B6813F4003F03D06368002B00F0B3
:1019E000BF81236813F0020F75D0814B5B6813F041
:1019F0000C0F5FD07E4B5B6803F00C03082B54D0B8
:101A00002369002B00F08A807A4B01221A60FFF7CD
:101A1000DBF80546764B1B6813F0020F75D1FFF714
:101A2000D3F8401B0228F5D903209EE1704A1368C1
:101A300043F480331360636843B3FFF7C5F805468A
:101A40006B4B1B6813F4003FCBD1FFF7BDF8401B75
:101A50006428F5D9032088E1B3F5A02F09D0644BA1
:101A60001A6822F480321A601A6822F480221A60FE
:101A7000E1E703F18043A3F53C331A6842F4802286
:101A80001A601A6842F480321A60D4E7FFF79CF8B3
:101A90000546574B1B6813F4003FA2D0FFF794F89C
:101AA000401B6428F5D903205FE1514B5B6813F4B8
:101AB000803FA5D14E4B1B6813F0020F03D0236962
:101AC000012B40F04F814A4A136823F0F803616903
:101AD00043EAC1031360236813F0080F33D0A369EE
:101AE000002B5CD0434B0122C3F88024FFF76CF835
:101AF00005463F4B5B6A13F0020F21D1FFF764F8F4
:101B0000401B0228F5D903202FE1394A136823F03E
:101B1000F803616943EAC1031360DCE7354B002237
:101B20001A60FFF751F80546314B1B6813F0020F9E
:101B3000D1D0FFF749F8401B0228F5D9032014E162
:101B40000120FFF701FF236813F0040F00F09680D7
:101B5000274BDB6913F0805F34D1254BDA6942F003
:101B60008052DA61DB6903F080530193019B012508
:101B7000214B1B6813F4807F26D0E368012B3DD0F6
:101B8000002B53D103F1804303F504331A6A22F08A
:101B900001021A621A6A22F004021A6233E0154B3B
:101BA0000022C3F88024FFF70FF80546104B5B6A4C
:101BB00013F0020FC7D0FFF707F8401B0228F5D932
:101BC0000320D2E00025D3E70B4A136843F4807367
:101BD0001360FEF7F9FF0646074B1B6813F4807F7E
:101BE000CBD1FEF7F1FF801B6428F5D90320BCE0C0
:101BF0000010024000004242007000405F4A136A39
:101C000043F001031362E36833B3FEF7DDFF0646DA
:101C10005A4B1B6A13F0020F2FD1FEF7D5FF801B22
:101C200041F288339842F3D903209EE0052B09D076
:101C3000524B1A6A22F001021A621A6A22F0040256
:101C40001A62E0E74D4B1A6A42F004021A621A6AFD
:101C500042F001021A62D6E7FEF7B6FF0646474B8E
:101C60001B6A13F0020F08D0FEF7AEFF801B41F293
:101C700088339842F3D9032077E0E5B9E369002B74
:101C800072D03E4A526802F00C02082A56D0022B4B
:101C900017D03B4B00221A66FEF796FF0446374BDF
:101CA0001B6813F0007F47D0FEF78EFF001B022851
:101CB000F5D9032059E0314AD36923F08053D36129
:101CC000DCE72F4B00221A66FEF77EFF05462B4B02
:101CD0001B6813F0007F06D0FEF776FF401B02283A
:101CE000F5D9032041E0236AB3F5803F1AD0234998
:101CF0004B6823F47413226A606A024313434B60F7
:101D00001F4B01221A66FEF75FFF04461B4B1B6840
:101D100013F0007F0ED1FEF757FF001B0228F5D904
:101D2000032022E0154A536823F40033A1680B43D3
:101D30005360DCE7002018E0002016E0012B16D0ED
:101D40000E4B5B6803F48031226A914211D103F497
:101D50007013626A93420ED1002006E001207047A2
:101D6000012002E0012000E0002002B070BD01204F
:101D7000FBE70120F9E70120F7E700BF0010024070
:101D80000000424286B0174B0FCB0DF1180C0CE946
:101D90000F0040F20123ADF80430134B5B6803F0F1
:101DA0000C02082A02D0114806B07047C3F38342E0
:101DB00018326A4412F8100C13F4803F0DD00A4B0D
:101DC0005B68C3F3404318336B4413F8143C074A71
:101DD00002FB00F0B0FBF3F0E6E7054B03FB00F07D
:101DE000E2E700BF245000080010024000127A0011
:101DF00000093D00002800F0A08070B50D460446A3
:101E0000524B1B6803F007038B420BD24F4A1368F7
:101E100023F007030B431360136803F007038B429F
:101E200040F08D80236813F0020F17D013F0040FD9
:101E300004D0474A536843F4E0635360236813F0C7
:101E4000080F04D0424A536843F460535360404A39
:101E5000536823F0F003A1680B435360236813F029
:101E6000010F31D06368012B20D0022B25D0384AD6
:101E7000126812F0020F64D035494A6822F003025A
:101E800013434B60FEF7A0FE0646314B5B6803F040
:101E90000C036268B3EB820F16D0FEF795FE801B31
:101EA00041F288339842F0D9032045E0284A12686D
:101EB00012F4003FE0D101203EE0254A126812F002
:101EC000007FD9D1012037E0204B1B6803F00703C6
:101ED000AB420AD91D4A136823F007032B43136052
:101EE000136803F00703AB422DD1236813F0040FEE
:101EF00006D0174A536823F4E063E1680B4353604C
:101F0000236813F0080F07D0114A536823F4605375
:101F1000216943EAC1035360FFF734FF0C4B5B6850
:101F2000C3F303130B4AD35CD8400B4B18600B4B25
:101F30001868FEF707FE002070BD012070470120E1
:101F4000FAE70120F8E70120F6E700BF0020024091
:101F500000100240FC4F0008140000200400002084
:101F6000014B1868704700BF1400002008B5FFF748
:101F7000F7FF044B5B68C3F30223034AD35CD840EA
:101F800008BD00BF001002400C50000808B5FFF764
:101F9000E7FF044B5B68C3F3C223034AD35CD8401A
:101FA00008BD00BF001002400C500008002856D0A9
:101FB00010B50446436A33B94368B3F5827F05D050
:101FC0000023C36102E00023036143610023A36295
:101FD00094F85130002B3CD0022384F85130226811
:101FE000136823F040031360636803F48273A268EC
:101FF00002F404421343E26802F4006213432269CC
:1020000002F002021343626902F001021343A26963
:1020100002F400721343E26902F038021343226AA9
:1020200002F080021343A26A02F4005221681343B3
:102030000B60638B226803F0040353602268D3694A
:1020400023F40063D36100206065012384F85130DC
:1020500010BD84F85030204601F09CFDBCE7012003
:10206000704710B4036A046A24F0010404628469AE
:1020700024F0F00C4CEA021223F00A030B438261B5
:10208000036210BC704710B4046A24F010040462A8
:102090008469036A24F4704C4CEA023223F0A003F2
:1020A00043EA01138261036210BC7047836823F026
:1020B00070030B4343F007038360704703681B4AB8
:1020C00090420AD0B0F1804F07D0A2F594329042EE
:1020D00003D002F58062904203D123F070034A6876
:1020E0001343124A90420AD0B0F1804F07D0A2F5B4
:1020F0009432904203D002F58062904203D123F4DF
:102100004073CA68134323F080034A691343036092
:102110008B68C3620B688362044B984202D0012330
:10212000436170470B690363F9E700BF002C01406E
:1021300040B310B5044690F83D30F3B1022384F863
:102140003D30214651F8040BFFF7B8FF012384F816
:10215000463084F83E3084F83F3084F8403084F8CC
:10216000413084F8423084F8433084F8443084F8B5
:10217000453084F83D30002010BD80F83C3001F03F
:10218000EDFFDBE70120704710B4846824F47F4C36
:1021900042EA03220A4342EA0C02826010BC704702
:1021A00090F83C30012B66D010B50446012380F82E
:1021B0003C30022380F83D300268936823F47F436B
:1021C00023F0770393600B68602B40D022D8402B1C
:1021D00047D00BD9502B0ED1CA6849680068FFF769
:1021E00040FF50212068FFF761FF04E0202B0CD056
:1021F00008D9302B09D0012384F83D30002084F821
:102200003C0010BD0BB1102BF5D119462068FFF72B
:102210004DFFF0E7702B0ED0B3F5005FEBD1CB682C
:102220004A6889680068FFF7AFFF2268936843F443
:1022300080439360DFE7CB684A6889680068FFF7EE
:10224000A3FF2268936843F077039360D3E7CA68DB
:1022500049680068FFF717FF60212068FFF726FF35
:10226000C9E7CA6849680068FFF7FBFE402120689B
:10227000FFF71CFFBFE702207047000090F83C30DA
:10228000012B2CD010B4012380F83C30022380F8BD
:102290003D3003685A689C6822F0700C0A6842EA74
:1022A0000C025A6003680F4A93420AD0B3F1804F80
:1022B00007D0A2F59432934203D002F58062934294
:1022C00004D124F080044A6814439C60012380F800
:1022D0003D30002380F83C30184610BC7047022087
:1022E000704700BF002C01400268D36823F0C00390
:1022F000D360202380F83D3070470268D36823F410
:102300009073D3600268536923F001035361036B38
:10231000012B05D0202380F83E3000230363704753
:102320000268D36823F01003D360F3E790F83D30E0
:10233000DBB2212B01D0022070478368B3F5805FA8
:1023400017D0036A5A1C02621A7803685A60C38C59
:102350009BB2013B9BB2C3844BB90268D36823F0A4
:102360008003D3600268D36843F04003D360002049
:1023700070470369002BE4D1036A1B880268C3F32A
:1023800008035360036A02330362E0E710B50446B2
:102390000268136923F44053C1680B4313618368D7
:1023A0000269134342691A430168CB6823F4B053AE
:1023B00023F00C031343CB600268536923F440738A
:1023C00081690B4353610268134B9A4220D0FFF797
:1023D000CDFD024602EB820202EB820263689B00A3
:1023E000B2FBF3F20D48A0FB02314909642303FB61
:1023F00011231B013233A0FB03235B0903F0F0021E
:1024000002EB011203F00F03216813448B6010BD2F
:10241000FFF7BCFD0246DDE7003801401F85EB51A8
:102420002DE9F84305460F4616469946DDF820800B
:102430002C68246837EA04030CBF4FF0010C4FF0FE
:10244000000CB4451FD1B8F1FF3FF1D0B8F1000F37
:1024500005D0FEF7B9FBA0EB09004045E8D92A6892
:10246000D36823F4D073D3602A68536923F001033F
:102470005361202385F83D3085F83E30002385F8F0
:102480003C30032000E00020BDE8F88358B310B5CD
:10249000044690F83D300BB3242384F83D30226885
:1024A000D36823F40053D3602046FFF76FFF226800
:1024B000136923F4904313612268536923F02A03BC
:1024C00053612268D36843F40053D3600020206432
:1024D000202384F83D3084F83E3010BD80F83C3035
:1024E00001F088FED8E7012070472DE9F04182B065
:1024F0001E4690F83D30DBB2202B54D104460D46E9
:102500009046002953D0002A53D090F83C30012B3C
:1025100051D0012380F83C3000230364212380F84C
:102520003D30FEF751FB0746A4F82480A4F826802E
:10253000A368B3F5805F05D04FF00008002384F84E
:102540003C3012E0236913B14FF00008F6E7A846CB
:102550000025F3E738F8023B2268C3F30803536011
:10256000E28C92B2013A92B2E284E38C9BB273B1F4
:1025700000963B46002280212046FFF751FFE0B93C
:10258000002DE7D015F8012B23685A60E8E7009684
:102590003B46002240212046FFF742FF78B9202326
:1025A00084F83D3000E0022002B0BDE8F081012057
:1025B000FAE70120F8E70220F6E70320F4E703201A
:1025C000F2E7704708B50168CA6822F04002CA60A5
:1025D000202280F83D20FFF7F4FF002008BD70475F
:1025E0007047704710B5446A23685A6994F83D30C3
:1025F000DBB2212B10D023685A6902F0400294F814
:102600003E30DBB2222B11D0236C43F01003236445
:102610002046FFF7E6FF10BD02F08002002AEAD054
:102620000023E3842046FFF75FFEE4E7002AEBD0B7
:102630000023E3852046FFF760FEE5E708B5406A22
:102640000023C385C384FFF7CCFF08BD90F83E305C
:10265000DBB2222B60D18368B3F5805F46D0826AFB
:10266000B3F5805F04D0002B4DD10369002B4AD114
:1026700003685B681370836A01338362C38D9BB206
:10268000013B9BB2C385002B48D100B583B00268E3
:10269000D36823F02003D3600268D36823F48073E7
:1026A000D3600268536923F001035361202380F84B
:1026B0003E30036B012B2CD1002303630268D368E7
:1026C00023F01003D36003681A6812F0100F06D0CD
:1026D000002201921A6801925B680193019B818D2F
:1026E00000F0C8F9002003B05DF804FB0269002A7D
:1026F000B5D1826A03685B68C3F308031380836AF9
:1027000002338362BAE703685B6803F07F031370E8
:10271000B1E7FFF764FFE5E702207047002070474C
:1027200030B583B0044602681368D068516913F06D
:102730000F0505D113F0200F02D010F0200F19D192
:102740002DB111F0010119D110F4907F16D1216B38
:10275000012975D013F0800F03D010F0800F40F0E6
:10276000D78013F0400F03D010F0400F40F0D4801A
:1027700003B030BD2046FFF769FFF9E713F0010F02
:1027800006D010F4807F03D0226C42F00102226454
:1027900013F0040F04D019B1226C42F0020222643B
:1027A00013F0020F04D019B1226C42F0040222642B
:1027B00013F0080F07D010F0200F00D119B1226CD0
:1027C00042F008022264226C002AD1D013F0200FBC
:1027D00002D010F0200F21D123685B6903F0400381
:1027E000226C12F0080F00D123B32046FFF785FDBD
:1027F00023685A6912F0400F18D05A6922F040023B
:102800005A61A36B73B1464A5A63A06BFEF754FE3C
:102810000028ADD0A06B436B9847A9E72046FFF78F
:1028200015FFD9E72046FFF7DCFEA1E72046FFF7BA
:10283000D8FE9DE72046FFF7D4FE0023236497E7E8
:1028400013F0100F86D010F0100F83D000230193E7
:102850001368019353680193019B536913F0400F70
:1028600032D0A16B0B685B689BB2002B80D0A08D2F
:1028700098427FF67DAFE3858B69202B08D1A18D2F
:10288000E38D9BB2C91A89B2204600F0F3F86FE7D6
:10289000D36823F48073D3602268536923F0010363
:1028A00053612268536923F040035361202384F865
:1028B0003E30002323632268D36823F01003D360E3
:1028C000A06BFEF7D7FDDAE7A18DE38D9BB2C91AA5
:1028D00089B2E38D9BB2002B3FF44AAF00293FF44D
:1028E00047AFD36823F49073D3602268536923F011
:1028F00001035361202384F83E30002323632268C0
:10290000D36823F01003D360204600F0B3F82FE71C
:102910002046FFF70BFD2BE72046FFF753FE27E786
:102920003D26000808B5406A036B012B02D0FFF773
:1029300057FE08BD818D490800F09CF8F9E708B5FD
:102940000346406A1B681B6813F0200F16D1002352
:10295000C3850268D36823F48073D3600268536927
:1029600023F0010353610268536923F0400353616C
:10297000202380F83E30036B012B05D0036B012B25
:1029800008D0FFF72CFE08BD0268D36823F01003BF
:10299000D360F3E7818D00F06DF8F4E730B583B0D4
:1029A000044613468162828500250564222280F850
:1029B0003E20826B14489062A26B1448D062A26BD6
:1029C00013481063A26B556320680A46011DA06B73
:1029D000FEF716FD019523681A6801925A68019264
:1029E000019A84F83C50DA6842F48072DA60226816
:1029F000536943F0010353612268536943F0400374
:102A00005361284603B030BD3F290008252900083E
:102A1000E525000890F83E30DBB2202B21D110B51F
:102A200082B00446F9B102B390F83C30012B1FD0BC
:102A3000012380F83C300363FFF7B0FFB0B9236B8C
:102A4000012B01D0012011E00023019323681A68B3
:102A500001925A680192019ADA6842F01002DA6033
:102A600004E002207047012000E0012002B010BD08
:102A70000220FBE710B5044610210E48FEF729FF9F
:102A800022680D4B9A4204D022680C4B9A4208D01F
:102A900010BD00F07FFC802209490A48FFF7BAFF09
:102AA000F2E701F085F9802207490848FFF7B2FFF5
:102AB000EEE700BF0008014000440040004800402D
:102AC000A0000020740F002020010020B80F00207B
:102AD00010B5064C8022A1180548FFF79BFF802205
:102AE00021460448FFF796FF10BD00BFA00000205C
:102AF000B80F0020740F00200F23002B0BDB074AB8
:102B0000B2F870221A41012A02D0013B5BB2F4E70D
:102B10000133D8B270470020704700BFB4010020D5
:102B20000823002B0BDB074AB2F81A271A41012AA7
:102B300002D0013B5BB2F4E70133D8B2704700200A
:102B4000704700BFB4010020094BB3F8C222B3F8AC
:102B50001203824200D91046054BB3F8C422B3F8E1
:102B600014339A4200D9134600B91846704700BF83
:102B7000B401002010B5FFF7BFFF1F4C2080FFF706
:102B8000E3FF6080FFF7CCFFA080A379032B00F266
:102B90002C82DFE813F004003900F4010F02FFF784
:102BA000ABFF154B18814FF4FA61D86800F05CFA5E
:102BB00010B1114B00221A810F4B1B89013B092BCD
:102BC0001CD8DFE803F005091B1B1B1B1B0D11158F
:102BD000094B01221A7408E2074B02221A7404E21C
:102BE000054B2E221A7400E2034B2F221A74FCE1CB
:102BF000014B30221A74F8E1A00100207B48012328
:102C000083710C3000F03CFAFFF79EFF774B188180
:102C10004FF4FA61D86800F027FA10B1734B002224
:102C20001A81724B1B89EB2B00F2E280152BC0F04E
:102C3000A081153BD62B00F29C81DFE813F02A011E
:102C40002E019A019A019A019A019A019A019A0118
:102C500032019A019A019A0136019A019A019A0168
:102C60003A019A019A019A019A019A019A019A01EC
:102C7000EE00F2003E019A01F60042019A019A012B
:102C80009A019A019A019A019A019A019A019A016C
:102C90009A019A019A019A019A0146019A019A01B0
:102CA0009A014A014E019A019A019A019A019A01E8
:102CB000520156015A019A019A019A015E019A0144
:102CC0009A019A019A019A01FA0062019A019A0105
:102CD0009A019A019A019A01FE0066019A019A01ED
:102CE0009A019A019A019A019A019A019A019A010C
:102CF00002019A019A019A019A019A019A019A0194
:102D00009A019A019A019A019A019A019A019A01EB
:102D10009A019A0106019A019A019A019A010A01FF
:102D20000E01120116019A019A019A019A019A0163
:102D30009A019A019A019A019A019A019A019A01BB
:102D40006A019A011A016E019A019A0172017601D3
:102D50007A019A019A019A019A019A019A019A01BB
:102D60009A019A019A019A019A019A019A019A018B
:102D70009A019A019A019A019A019A019A019A017B
:102D80007E0182019A0186019A019A019A019A01B3
:102D90009A019A019A019A019A019A019A019A015B
:102DA0009A019A019A019A019A019A019A019A014B
:102DB0009A019A019A019A019A019A019A019A013B
:102DC0009A019A019A019A019A019A019A019A012B
:102DD0009A019A019A019A019A019A018A019A012B
:102DE0009A019A019A019A018E019201A001002094
:102DF000B3F5327F80F0BD8040F2BE229342C0F036
:102E0000B880A3F2BE23092B00F2B380DFE803F001
:102E100035B139B13DB1B1B1B1AD7A4B03221A74BC
:102E2000E3E0784B04221A74DFE0764B05221A7433
:102E3000DBE0744B06221A74D7E0724B07221A7437
:102E4000D3E0704B08221A74CFE06E4B09221A743B
:102E5000CBE06C4B0A221A74C7E06A4B0B221A743F
:102E6000C3E0684B0C221A74BFE0664B0D221A7443
:102E7000BBE0644B0E221A74B7E0624B0F221A7447
:102E8000B3E0604B10221A74AFE05E4B11221A744B
:102E9000ABE05C4B12221A74A7E05A4B13221A744F
:102EA000A3E0584B14221A749FE0564B15221A7453
:102EB0009BE0544B16221A7497E0524B17221A7457
:102EC00093E0504B18221A748FE04E4B19221A745B
:102ED0008BE04C4B1A221A7487E04A4B1B221A745F
:102EE00083E0484B1C221A747FE0464B1D221A7463
:102EF0007BE0444B1E221A7477E0424B1F221A7467
:102F000073E0404B20221A746FE03E4B21221A746A
:102F10006BE03C4B22221A7467E03A4B23221A746E
:102F200063E0384B24221A745FE0364B25221A7472
:102F30005BE0344B26221A7457E0324B27221A7476
:102F400053E0304B28221A744FE02E4B29221A747A
:102F50004BE02C4B2A221A7447E02A4B2B221A747E
:102F600043E0284B2C221A743FE0264B2D221A7482
:102F70003BE02448022383710C3000F081F8FFF716
:102F8000CFFD204B18814FF4FA61D86800F06CF83F
:102F900010B11C4B00221A811A4B1B89022B29D01D
:102FA000032B2BD0012B21D01648032383710C3027
:102FB00000F066F8FFF7A0FD40B9FFF7C5FD28B99E
:102FC000FFF7AEFD10B90F4B00221A740D4B93F9A9
:102FD000103023B90C4B1B785B420A4A1374094822
:102FE000002383710C3000F04BF810BD054B3122EB
:102FF0001A74FAE7034B32221A74F6E7014B3322B4
:103000001A74F2E7A0010020220F002008B5642006
:10301000FDF7E0FDFFF75CFD00F0CEFC08BD000011
:10302000B0F5B47F0BD20A88054B23F830204A88CC
:1030300003EBC00042808B888380CB88C3807047BD
:10304000B401002008B510210148FEF742FC08BD7C
:103050000008014008B5FDF7B7FD024BC3F8400B6F
:1030600008BD00BFB401002038B505460C46FDF789
:10307000ABFD401BA04201D2002038BD0120FCE77F
:1030800010B50446FDF7A0FD206010BD08B524482A
:10309000244B03600923436000238360C3604FF423
:1030A000A02202614361037643768376C376037779
:1030B0004377FDF7A3FD30BB19480023C3630364C6
:1030C000012242648362C362036343638363826455
:1030D0000E23C36400F12801FDF736FEB0B9104895
:1030E000FDF7B8FEA8B902210D48FDF78CFF98B98D
:1030F0000B4B01225A650022DA659A650821196690
:1031000083F8642008BD00F039FCD5E700F036FCF8
:10311000E5E700F033FCE6E700F030FCE8E700BF4D
:103120007C0D00200064004010B586B0002302939F
:103130000393049305930268224B9A4201D006B090
:1031400010BD03F5D633DA6942F00072DA61DA694C
:1031500002F000720092009A9A6942F008029A61A5
:103160009B6903F008030193019B4FF48073029362
:10317000154C02A92046FEF78DFA4FF40073029316
:10318000022303930323059302A92046FEF782FA44
:103190000E4A536823F4C04343F0E06343F4804392
:1031A0005360002211461420FEF784F81420FEF725
:1031B000B9F8002211461520FEF77CF81520FEF71D
:1031C000B1F8BCE700640040000C01400000014081
:1031D00000B583B0124B5A6942F001025A615B6933
:1031E00003F001030193019B002211460C20FEF71E
:1031F00061F80C20FEF796F8002211460D20FEF72C
:1032000059F80D20FEF78EF8002211461020FEF727
:1032100051F81020FEF786F803B05DF804FB00BFFC
:10322000001002402DE9F04389B000240494059475
:1032300006940794304B9A6942F010029A619A6999
:1032400002F010020092009A9A6942F020029A61FC
:103250009A6902F020020192019A9A6942F00402EE
:103260009A619A6902F004020292029A9A6942F003
:1032700008029A619B6903F008030393039BDFF83C
:103280007C9022464FF400514846FEF71CFBDFF8C5
:103290007080224613214046FEF715FB194E224648
:1032A00001213046FEF70FFB4FF400530493012534
:1032B000059506940227079704A94846FEF7EAF900
:1032C0001323049305950694079704A94046FEF737
:1032D000E1F9049505950694079704A93046FEF791
:1032E000D9F9402304930594069504A93046FEF7C6
:1032F000D1F909B0BDE8F083001002400010014090
:1033000000080140000C014008B50748074B036066
:103310000323436096238360FEF7E4FA00B908BDF7
:1033200000F02CFBFBE700BF140E00200030004033
:1033300008B5174BB3F8A802B3F8F8321844FDF7F4
:1033400015F90DA3D3E90023FDF7A4FAFDF7AAFBB5
:103350004FF07C51FCF704FFFDF71AF908A3D3E9FD
:103360000023FDF76DF908A3D3E90023FDF768F901
:10337000FDF778FBC0B208BD48E17A14AEC7214022
:1033800054E3A59BC420C83FA4703D0AD7A3E03FE7
:10339000B401002038B5164D164CAC462068616863
:1033A000A268E368ACE80F0020696169A269E3697B
:1033B000ACE80F002B78662B0FD00D4B93F8220052
:1033C00093F82130984203D0094B93F823305BB92E
:1033D000FDF7FAFB064B586238BD012285F8202024
:1033E0006A7885F82120E8E700F0F4FAF0E700BFFA
:1033F000200E00202001002008B5104B93F8283043
:10340000012B08D0FDF7E0FB0C4B5B6AC01AB0F54E
:10341000C87F0CD808BD094B93F82930002BF1D197
:10342000074BB3F86822054B83F82920EAE780228E
:1034300004490548FFF7EEFAECE700BF200E002034
:10344000B401002020010020B80F00200E4BB3F87B
:103450001C3743B1012B0DD00C4B0D4A92E80300F1
:103460005863198770470B4B0B4A92E8030083E8B7
:1034700003007047054B094A92E803005863198717
:10348000090C83F83A107047B4010020200E002088
:1034900050500008540E00204050000848500008CA
:1034A00010B5FDF791FB0446052000F093FA6F215B
:1034B000002000F01DFB0C4BB3F8BA14002000F004
:1034C000E7FAFDF781FB001B40F6B7339842F8D9C5
:1034D000064C94F8220000F07DFA034BB3F8BA349E
:1034E00084F83F3010BD00BFB4010020200E002042
:1034F00008B50F4B002283F8202093F83030022BC0
:1035000003D90B4B012283F82220094B93F8212089
:1035100093F82200824203D1064800F031FA08BD38
:1035200000F058FA024B93F8222083F82120F3E7A9
:10353000200E00203850000810B5394BB3F868321F
:103540005A1E032A2FD8DFE802F002192228354A32
:10355000354903C91064A2F84410090C82F84610DA
:10356000304A92F8292091B28B4200D00ABB2D4BF1
:1035700093F8222083F83020002010BD2B4A2C4CD9
:1035800007CA03C424F8022B120C2270E8E7284A69
:10359000284903C982E80300E2E7274A244C07CA06
:1035A00003C42280DCE7224A244903C982E80300DD
:1035B000D6E71C4B93F84B30A3B11A4C042384F884
:1035C0002230FFF795FF164BB3F868126A310020DE
:1035D00000F08EFA4FF4FA61E06CFFF745FD80B918
:1035E0000120CAE70F4C04F14C00FFF749FD94F8A5
:1035F000223084F8303094F84B30013384F84B306B
:10360000DBE7074BB3F8682284F8292094F83020D0
:1036100084F82220002284F84B20FFF769FFDFE7BF
:10362000B4010020200E0020585000087C500008F3
:10363000600E0020605000086850000874500008B8
:1036400010B540211F48FEF737F918B91E4B93F803
:1036500050304BB140211B48FEF72EF918B11A4BE0
:1036600093F8503023BB10BD3221174B586DFFF734
:10367000FBFC0028F7D0144A92F85030013382F84E
:103680005030124B93F900304BB90F4B93F8223066
:10369000022B08D001330C4A82F82230E3E70B4BAF
:1036A00000221A70DFE7084B012283F82220DAE7B4
:1036B000054C04F15400FFF7E3FC002384F850307C
:1036C000D1E700BF000C0140200E0020220F002097
:1036D00010B5FFF791FE00217A4B986DFFF7C4FCFF
:1036E00010B3794BB3F87232FBB1764B012283F8F9
:1036F0002220FFF73FFA744BB3F87232F3B1FFF7B1
:10370000F7FE704B93F83F206F4BB3F8BA349A42F0
:1037100019D16C4B93F82130012B17D0022B00F0FC
:1037200083806A48FFF7ACFC10BDFFF705FF012856
:10373000DFD1FDF749FA634B5862F5E7FFF786FEE4
:10374000FFF77EFFDBE7FFF7ABFEEDE75D4B93F89E
:1037500028304BB95B4B93F82810B1FA81F1490935
:10376000012000F0DDF9DCE7594B93F90010363108
:10377000012000F0BDF9FFF7DBFD0146002000F05D
:1037800087F9514CB4F86A1201EB8101490001201C
:1037900000F07EF9B4F83017022000F079F9B4F89F
:1037A00012174C4BA3FB01314909002000F088F9A6
:1037B000B4F86E12484BA3FB0131C908012000F098
:1037C0007FF9B4F81617022000F07AF94349002077
:1037D00000F016F9B4F86832013B032B1ED8DFE87D
:1037E00003F0020C12184FF4FC61002000F036F9CF
:1037F0003B49012000F004F9ACE74FF61801002026
:1038000000F02CF9F4E740F2FF71002000F026F9F7
:10381000EEE71521002000F021F9E9E74FF47841A7
:10382000002000F01BF9E3E7274CB4F86E122A4B96
:10383000A3FB0131C908032000F042F9B4F81617C0
:10384000042000F03DF92549002000F0D9F8B4F833
:103850006832013B032B28D8DFE803F002161C2254
:103860004FF4FC61002000F0F9F81E49032000F03D
:10387000C7F8154BB3F81C37012B1CD04FF4784117
:10388000032000F0EBF84CE74FF61801002000F0A1
:10389000E5F8EAE740F2FF71002000F0DFF8E4E726
:1038A0001521002000F0DAF8DFE74FF4784100201E
:1038B00000F0D4F8D9E74FF4FC61032000F0CEF813
:1038C0002FE700BF200E0020B4010020780E00205A
:1038D000B00100201F85EB51CDCCCCCC600E002078
:1038E00008000020540E002030B591B0282200219D
:1038F00006A800F0E7FE00240194029403940494C7
:103900000594092306934FF48033079301220A920A
:103910000C9202250D950E934FF4E0130F9306A819
:10392000FEF728F80F230193029503944FF4806368
:1039300004930594294601A8FEF75CFA11B030BD46
:1039400008B5FDF723F9FFF7CFFFFFF76BFCFFF793
:103950003FFCFFF79BFB00F0FBF800F0C9FB00F019
:1039600013FC00F02BFCFFF7CFFCFFF74FFB00F040
:103970006BFBFFF7ADFEFFF76DFBF8E7704700004C
:1039800038B50446FCF7E4FB064D642382B22146B9
:103990002846FEF7AAFD6423032203492846FEF7C2
:1039A000A4FD38BDB80F00201000002082B0002018
:1039B000019002B07047000008B50448FFF7E0FF2F
:1039C0000348FFF7DDFFFFF7F1FF08BD34500008A3
:1039D0008850000800B585B0024600230193029389
:1039E000ADF80C30054901A800F074FE01A8FFF7FE
:1039F000C7FFFFF7DBFF05B05DF804FB9050000840
:103A000070B598B006460D4600240B942E22214630
:103A10000CA800F057FE01942422214602A800F0D1
:103A200051FE234608E015F803C003F160020DEBD8
:103A3000020404F85CCC0133132BF4DD01AB3246F5
:103A400005490BA800F046FE0BA8FFF799FFFFF70A
:103A5000ADFF18B070BD00BF9850000830B58FB0F2
:103A600004460D46002101912E2202A800F02AFEF4
:103A70002B462246054901A800F02CFE01A8FFF7BD
:103A80007FFFFFF793FF0FB030BD00BFA8500008C5
:103A900010B584B002460B460024009401940294B1
:103AA000CDF80B400549684600F014FE6846FFF764
:103AB00067FFFFF77BFF04B010BD00BFC0500008D8
:103AC00010B584B002460B46002400940194029481
:103AD000CDF80B400549684600F0FCFD6846FFF74D
:103AE0004FFFFFF763FF04B010BD00BFD8500008C0
:103AF00010B584B002460B46002400940194029451
:103B0000CDF80B400549684600F0E4FD6846FFF734
:103B100037FFFFF74BFF04B010BD00BFE4500008B3
:103B200010B584B002460B46002400940194029420
:103B3000CDF80B400549684600F0CCFD6846FFF71C
:103B40001FFFFFF733FF04B010BD00BFB8510008DE
:103B500008B50E480E4B03604FF482734360002398
:103B60008360C360036143614FF400728261082285
:103B7000C2610362436283620A23C362FEF716FADC
:103B800000B908BDFFF7FAFEFBE700BF840E002076
:103B90000030014010B586B00023029303930493D4
:103BA00005930268164B9A4201D006B010BD03F58A
:103BB00060439A6942F480529A619A6902F4805291
:103BC0000092009A9A6942F004029A619B6903F09C
:103BD00004030193019BA023029302230393032375
:103BE0000593084C02A92046FDF754FD402302939B
:103BF00000230393049302A92046FDF74BFDD4E76D
:103C0000003001400008014082B00E4B9A6942F03A
:103C100001029A619A6902F001020092009ADA693F
:103C200042F08052DA61DB6903F080530193019B1B
:103C3000054A536823F0E06343F00073536002B019
:103C4000704700BF00100240000001407047FEE7CF
:103C5000FEE7FEE7FEE770477047704708B5FCF7E0
:103C6000A7FF08BD08B50248FDF772FC08BD00BFFC
:103C70008410002008B50248FDF76AFC08BD00BFAB
:103C80004010002008B50248FDF762FC08BD00BFE7
:103C9000FC0F002038B51648FDF7D4F9FCF794FF67
:103CA000144B1B68C01A1E2818D8134B1B782BB94D
:103CB000114B01221A70114B00221A70104D114C39
:103CC0002B46224600210A48FDF7F2F829462088B3
:103CD000FFF7A6F90C48FDF731FE38BD01210B486E
:103CE000FDF7F7FDFCF770FF024B1860DDE700BF42
:103CF0007C0D0020DC0E0020480E0020B0010020CA
:103D0000E80D0020F80D0020140E002000080140EE
:103D100008B50248FDF796F908BD00BF7C0D0020EC
:103D200008B50348FEF7FCFC00F042F808BD00BFF0
:103D3000740F002008B50248FEF7F2FC08BD00BF72
:103D4000B80F00200F4B1A6842F001021A60596840
:103D50000D4A0A405A601A6822F0847222F48032B6
:103D60001A601A6822F480221A605A6822F4FE024D
:103D70005A604FF41F029A60044B4FF000629A6041
:103D8000704700BF001002400000FFF800ED00E0A7
:103D900001E00130013190F800C00B789C4505D15D
:103DA000013A92B2002AF4D10120704700207047F6
:103DB00038B5184C184D04F1400EAC4620686168C7
:103DC000A268E368ACE80F00103465467445F4D18E
:103DD000114BDB78902B08D1042210491048FFF7D3
:103DE000D7FF10B90F4B1B7803B138BDFFF72AF985
:103DF000094A53781B02A2F8403091780B449BB2D9
:103E0000A2F84030FF2BF0D8134692F90F2083F828
:103E10004220EAE720010020E00E0020E4510008E3
:103E2000EF0E0020CC10002010B582B040F22D140F
:103E30000CE0094901EBC402D388009393885288AF
:103E400031F83410204600F07BFB0134B4F5997F43
:103E5000EFDB02B010BD00BFB401002010B582B08E
:103E60004FF499740CE0094901EBC402D388009324
:103E70009388528831F83410204600F061FB0134F9
:103E8000B4F59B7FEFDD02B010BD00BFB401002090
:103E900010B582B040F237140CE0094901EBC402BE
:103EA000D38800939388528831F83410204600F06C
:103EB00047FB0134B4F59E7FEFDB02B010BD00BFBD
:103EC000B401002010B582B04FF49E740CE0094993
:103ED00001EBC402D38800939388528831F83410E0
:103EE000204600F02DFB0134B4F5A07FEFDD02B0D9
:103EF00010BD00BFB401002030B583B0254CB4F82C
:103F0000163700930023B4F81227B4F81017E220F4
:103F100000F016FBB4F81857FEF702FE0246B4F89C
:103F20001E370093B4F81C372946E32000F008FB45
:103F3000B4F8363700930023B4F832271946E62048
:103F400000F0FEFAB4F83637009300231A46B4F8AE
:103F50003017E62000F0F4FA002500952B462A469B
:103F6000B4F84017E82000F0EBFA00952B46B4F8BF
:103F7000AA22B4F8A812552000F0E2FA00952B46C8
:103F8000B4F8FA22B4F8F8125F2000F0D9FA03B0BE
:103F900030BD00BFB401002030B583B0294C0025EE
:103FA0000095B4F81C39B4F81A29B4F8181940F27D
:103FB000231000F0C5FA0095B4F82439B4F822298A
:103FC000B4F820194FF4927000F0BAFAB4F86632DF
:103FD0000093B4F86432B4F8622229464C2000F011
:103FE000AFFAB4F86E320093B4F86C32B4F86A22C7
:103FF000B4F868124D2000F0A3FAFEF77DFD0146EB
:1040000000952B46B4F872224E2000F099FAB4F8CD
:104010007E320093B4F87C32B4F87A22B4F8781285
:104020004F2000F08DFAB4F8C6340093B4F8C434CD
:10403000B4F8C224B4F8C014982000F081FA03B098
:1040400030BD00BFB401002008B5264B93F84330C3
:104050008BB1012B16D040F6C411224B586CFFF7E0
:1040600003F8F0B1204B1B78033B032B19D8DFE892
:1040700003F0101D262FFFF73FFF1A4B012283F894
:10408000432012E0FFF788FF164B022283F84320FB
:104090000BE0FFF7C9FE144B04221A701348FEF719
:1040A000EFFF104B002283F8432008BDFFF7D6FE38
:1040B0000D4B05221A700D48FEF7E2FFF1E7FFF7FE
:1040C000E7FE094B06221A700848FEF7D9FFE8E719
:1040D000FFF7F8FE044B03221A700448FEF7D0FFE6
:1040E000DFE700BFE00E002018000020240F0020B2
:1040F00000B587B0002302930393049305930093C4
:1041000001931448144A0260436083604FF6FF72C3
:10411000C26003618361FEF70BF890B94FF48053DE
:10412000029302A90B48FEF73BF868B900230093FD
:10413000019369460748FEF7A1F840B907B05DF85A
:1041400004FBFFF71BFCE9E7FFF718FCEEE7FFF7BE
:1041500015FCF3E72C0F0020000400400268094B17
:104160009A4200D0704782B003F50333DA6942F017
:104170000202DA61DB6903F002030193019B02B0E2
:10418000704700BF0004004008B50A480A4B0360AE
:104190004FF4E133436000238360C36003610C226A
:1041A00042618361C361FEF771F900B908BDFFF791
:1041B000E5FBFBE7740F00200044004008B50B4806
:1041C0000B4B43644FF4E13383640023C364036502
:1041D00043650C228265C36503664430FEF756F9D9
:1041E00000B908BDFFF7CAFBFBE700BF740F002052
:1041F0000048004070B588B004460023049305933E
:10420000069307930368674A934204D0664A934231
:1042100051D008B070BD654BDA6942F40032DA6102
:10422000DA6902F400320092009A9A6942F00402BC
:104230009A619B6903F004030193019B0423049397
:104240000223059303230793594E04A93046FDF733
:1042500021FA0823049300250595069504A9304604
:10426000FDF718FA5348544BC0F88830C0F88C500A
:10427000C0F890508023C0F89430C0F89850C0F82F
:104280009C50C0F8A050C0F8A4508830FDF782F8C8
:1042900070B9484B03F18802A263C3F8AC40002216
:1042A00011462620FDF706F82620FDF73BF8B0E77B
:1042B000FFF764FBEDE73D4BDA6942F48022DA61F7
:1042C000DA6902F480220292029A9A6942F00802A4
:1042D0009A619B6903F008030393039B4FF4806387
:1042E00004930223059303230793344E04A9304615
:1042F000FDF7D0F94FF4006304930025059506956A
:1043000004A93046FDF7C6F92A482D4BC0F8CC3039
:10431000C0F8D050C0F8D4508023C0F8D830C0F8CE
:10432000DC50C0F8E050C0F8E4504FF48053C0F8BF
:10433000E830CC30FDF72EF868BB1E4800F1CC0306
:10434000A363C0F8F0401F4BC0F810311023C0F831
:1043500014310023C0F818318022C0F81C21C0F8A5
:104360002031C0F82431C0F82831C0F82C3100F5D4
:104370008870FDF70FF888B90E4B03F588726263F9
:10438000C3F83441002211462720FCF793FF272071
:10439000FCF7C8FF3DE7FFF7F1FACEE7FFF7EEFACB
:1043A000EAE700BF0044004000480040001002401F
:1043B00000080140740F00206C000240000C014016
:1043C000300002401C000240F0B589B005460C46A2
:1043D0007E238DF81F3010238DF81E3000278DF8B6
:1043E0001D70534E05AB96E8070003C31A70F368BF
:1043F000ADF810301B0C8DF812308DF80F70402383
:104400008DF80E30FF2C00F3918004F10E0610237E
:1044100002933B4608E003F120026A4412F80C1CA8
:10442000029A0A4402920133072BF4DD002308E0CC
:1044300003F120026A4412F8101C029A0A44029204
:104440000133012BF4DD029B40330293002304E08F
:10445000E95C029A0A4402920133A342F8DB9DF818
:1044600008300293C3F1FF030293324F6423012209
:104470000DF11F013846FEF738F806F47F4301932B
:104480006423012201A93846FEF72FF8F6B20196FF
:104490006423012201A93846FEF727F8642301228C
:1044A0000DF11E013846FEF720F8642301220DF1BC
:1044B0001D013846FEF719F86423082205A938467D
:1044C000FEF713F86423022204A93846FEF70DF81C
:1044D000642301220DF10F013846FEF706F864232C
:1044E00001220DF10E013846FDF7FFFF6423A2B251
:1044F00029463846FDF7F9FF6423012202A9384610
:10450000FDF7F3FFFCF760FB0B4B1B68C01A3C2860
:1045100002D8012009B0F0BD02210848FDF7D9F901
:10452000FCF752FB044B18600120F3E70020F1E791
:1045300014500008740F0020C8100020000801402B
:104540000FB400B5A9B02AAB53F8042B279300236E
:1045500009E02799081D2790088828A901EB430145
:1045600021F80C0C0133032BF3DD2D4B1B79032BAE
:1045700012D8DFE803F002162A408DF81420121238
:104580008DF8152025AB03CBCDF81600CDF81A1009
:104590000A2105A8FFF718FF29B05DF804EB04B065
:1045A0007047BDF89630BDF89810BDF89A0002909B
:1045B00001910093BDF894301A4905A800F08AF8DB
:1045C000014605A8FFF700FFE6E7BDF89630BDF805
:1045D0009810BDF89A00029001910093BDF89430B4
:1045E000114905A800F076F8642382B205A90F48A6
:1045F000FDF77BFFD0E71388ADF8143025AB03CB74
:10460000CDF81600CDF81A1000239B7A8DF81E30D5
:1046100064230B2205A90548FDF767FFBCE700BF2F
:10462000C8100020EC510008FC510008740F002055
:10463000002103E00B4B5B58435004310A480B4BFD
:1046400042189A42F6D30A4A02E0002342F8043B99
:10465000084B9A42F9D3FFF775FB00F00FF8FFF70C
:104660006FF97047485200080000002080000020C9
:1046700080000020E4100020FEE7000070B5002656
:104680000C4D0D4C641BA410A64209D100F0AAFCED
:1046900000260A4D0A4C641BA410A64205D170BD29
:1046A00055F8043B98470136EEE755F8043B984728
:1046B0000136F2E74052000840520008405200081C
:1046C0004452000803460244934200D1704703F865
:1046D000011BF9E70EB46FF0004100B59CB01DABB3
:1046E00002900690079104910848094953F8042B59
:1046F0000591006802A9019300F068F80022029B6E
:104700001A701CB05DF804EB03B070471C00002069
:104710000802FFFF2DE9F0478E6882469E420C4654
:1047200090461F4638D88A8912F4906F32D0256897
:1047300009690133A5EB010965694B4405EB4505A2
:1047400005EBD5756D109D4238BF1D46530531D51B
:10475000294600F06FFB064650B90C234FF0FF309E
:10476000CAF80030A38943F04003A381BDE8F08775
:104770004A46216900F0CEFAA38923F4906343F0FE
:104780008003A38126614E4426603E466561A5EB09
:104790000905A560BE4200D93E4632464146206822
:1047A00000F0C6FAA36800209B1BA3602368334473
:1047B0002360DBE72A4600F0B1FB06460028E1D182
:1047C0005046216900F0CEFAC7E700002DE9F04F0E
:1047D00098468B8907461B060D4614469DB00ED59C
:1047E0000B6963B9402100F025FB2860286120B9DE
:1047F0000C233B604FF0FF30D1E040236B6100237E
:10480000099320238DF8293030234FF00109CDF88A
:104810000C80DFF8A4818DF82A3023469A4613F8DD
:10482000012B0AB1252AF9D1BAEB040B0BD05B4658
:10483000224629463846FFF76DFF013000F0AA8076
:10484000099A5A4409929AF80030002B00F0A2808D
:1048500000234FF0FF32CDE905230AF1010A04934A
:1048600007938DF853301A935446052214F8011B10
:10487000514800F041FA049AD8B9D00644BF202329
:104880008DF85330110744BF2B238DF853309AF81D
:1048900000302A2B15D0544600204FF00A0C079AFE
:1048A000214611F8013B303B092B4ED9B0B107929C
:1048B00014E0A0EB080309FA03F31343A2460493A0
:1048C000D2E7039B191D1B680391002BBBBF5B4202
:1048D00042F0020207930793B8BF049223782E2B6D
:1048E0000CD163782A2B35D1039B02341A1D1B6827
:1048F0000392002BB8BF4FF0FF330593DFF8BCA045
:1049000003225046217800F0F7F940B14023A0EB94
:104910000A0003FA00F0049B01340343049314F8E3
:10492000011B062226488DF8281000F0E5F9002822
:1049300038D0244B1BBB039B073323F007030833FA
:104940000393099B3344099367E70C4601200CFB52
:104950000232A5E700234FF00A0C194601340593F3
:10496000204610F8012B303A092A03D9002BC5D074
:104970000591C3E7044601230CFB0121F0E703ABDB
:1049800000932A463846104B04A9AFF30080421C1E
:104990000646D6D1AB895B063FF52CAF09981DB012
:1049A000BDE8F08F03AB00932A463846064B04A9B6
:1049B00000F07CF8EBE700BF0C5200081252000830
:1049C0001652000800000000154700082DE9F047C6
:1049D000164699468A680B6907469342B8BF134644
:1049E000336091F843200C46DDF820800AB1013392
:1049F00033602368990642BF336802333360256809
:104A000015F0060506D104F1190AE36832689B1A0D
:104A1000AB4228DC94F84320131E226818BF012300
:104A200092062DD44946384604F14302C04701306E
:104A300020D02368E56803F00603042B18BF002587
:104A400032684FF00006A36808BFAD1A226908BF9C
:104A500025EAE5759342C4BF9B1AED181A34B54296
:104A60001AD1002008E00123524649463846C04783
:104A7000013003D14FF0FF30BDE8F0870135C4E7C6
:104A80003020E11881F843005A1C94F84510224464
:104A9000023382F84310C5E70123224649463846CF
:104AA000C0470130E6D00136D9E700002DE9FF47C5
:104AB0000F7E9146782F80460C469A460C9D01F158
:104AC000430207D8622F0AD8002F00F0D980582F50
:104AD00000F0A48004F1420584F842703AE0A7F1A6
:104AE0006303152BF6D801A151F823F0454B0008BC
:104AF000594B0008D54A0008D54A0008D54A000895
:104B0000D54A0008594B0008D54A0008D54A000884
:104B1000D54A0008D54A0008674C0008894B0008B0
:104B2000494C0008D54A0008D54A0008894C0008BD
:104B3000D54A0008894B0008D54A0008D54A000824
:104B4000514C00082B681A1D1B682A6004F14205AD
:104B500084F842300123A4E020682968060601F1A8
:104B600004030AD50E682B60002E03DA2D2376424B
:104B700084F843300A235E4819E00E6810F0400FB5
:104B80002B6018BF36B2EFE72B682068191D29602B
:104B9000010601D51E6802E04606FBD51E886F2F70
:104BA0000CBF08230A235248002184F8431065688B
:104BB000002DA8BF2168A560A4BF21F004012160D9
:104BC0000EB9002D4DD01546B6FBF3F103FB11676E
:104BD000C75D05F8017D3746BB420E46F4D9082B68
:104BE0000BD12368DE0708D5236961689942DEBFCF
:104BF000302305F8013C05F1FF35521B22614B467D
:104C000021464046CDF800A003AAFFF7DFFE0130A1
:104C10004CD14FF0FF3004B0BDE8F087344881F844
:104C200045702968236851F8046B29601D0614D566
:104C3000DF0744BF43F0200323601EB9236823F03D
:104C4000200323601023AFE7236843F02003236091
:104C50007823284884F84530E3E7590648BFB6B2C0
:104C6000E6E71546BBE72B682668181D61692860D2
:104C700035061B6801D5196002E07006FBD5198066
:104C8000002315462361BAE72B6800211A1D2A600C
:104C90001D686268284600F02FF808B1401B60606C
:104CA00063682361002384F84330A8E72A46494615
:104CB00040462369D0470130ABD023689B0713D40B
:104CC000E068039B9842B8BF1846A4E70123324628
:104CD00049464046D04701309BD00135E3680399EF
:104CE0005B1AAB42F2DCEBE7002504F11906F5E7AD
:104CF0001D5200082E520008034610B5C9B20244E6
:104D00009342184601D1002003E0047801338C421D
:104D1000F6D110BD0A44914200F1FF3300D1704733
:104D200010B511F8014B914203F8014FF9D110BDB4
:104D3000884210B501EB020402D98442234607D809
:104D4000431EA14208D011F8012B03F8012FF8E708
:104D5000014602448A4200D110BD13F8014D02F809
:104D6000014DF7E738B50546002940D051F8043C1D
:104D70000C1F002BB8BFE41800F010F91C4A136890
:104D800033B9636014602846BDE8384000F00CB9C0
:104D9000A34208D9206821188B4201BF19685B68BB
:104DA00009182160EDE71A465B680BB1A342FAD9F6
:104DB00011685018A0420BD120680144501883425A
:104DC0001160E0D118685B68014411605360DAE754
:104DD00002D90C232B60D6E7206821188B4201BF33
:104DE00019685B680918216063605460CBE738BDBF
:104DF000D010002070B50E4E0C463168054611B932
:104E000000F0BCF830602146284600F0B7F8431C9B
:104E10000AD0C41C24F00304A04207D0211A28465B
:104E200000F0ACF8013001D14FF0FF34204670BDE6
:104E3000D41000202DE9F041CD1C25F003050835E4
:104E40000C2D38BF0C25002D074601DBA94205D9E2
:104E50000C2300263B603046BDE8F0812E4E00F06A
:104E60009DF833681C4634BB29463846FFF7C2FF1D
:104E7000431C04464DD134682646002E40D1236899
:104E80003146384604EB030800F078F880453AD103
:104E9000216803356D1A25F0030508350C2D38BF40
:104EA0000C2538462946FFF7A5FF01302BD0236893
:104EB0002B4423600EE02268521B1ED40B2A16D905
:104EC0006119A342256018BF5960636808BF31604B
:104ED00062514B60384604F10B0600F065F826F08D
:104EE0000706231DF21AB6D09B1BA350B3E76268D6
:104EF000A3420CBF32605A60ECE723466468B2E715
:104F000034467668B9E70C2338463B6000F04CF82D
:104F1000A1E72560DEE700BFD01000202DE9F041B9
:104F2000804614460E4621B91146BDE8F041FFF710
:104F300081BF2AB9FFF716FF25462846BDE8F08154
:104F400000F038F88442074602D8B4EB500F12D86C
:104F500021464046FFF76EFF05460028EDD0BC42D3
:104F60002246314628BF3A46FFF7D4FE3146404636
:104F7000FFF7F8FEE1E73546DFE7000038B500232C
:104F8000054D044608462B6000F01EF8431C02D174
:104F90002B6803B1236038BDD8100020014800F011
:104FA00011B800BFDC100020014800F00CB800BFB1
:104FB000DC10002051F8043C181F002BBCBF0B581C
:104FC000C018704770477047044A0346116809B912
:104FD000034911601068034413607047E01000201B
:104FE000E8100020F8B500BFF8BC08BC9E4670472A
:0C4FF000F8B500BFF8BC08BC9E46704736
:104FFC00000000000000000001020304060708097D
:10500C000000000001020304000000000000FFFF8C
:10501C000000000000000000020304050607080958
:10502C000A0B0C0D0E0F10100000000073656E645F
:10503C006D6500004645434841444F00414245528E
:10504C00544F000046414C4841000000456E6475C9
:10505C00726F0000536B6964706164004175746F0A
:10506C0063726F73730000004641494C5552450002
:10507C004163656C65726163616F0000626B636DA7
:10508C00643D310070616765202564007425642ED1
:10509C007478743D22257322000000007425642E60
:1050AC0070636F3D25640000676574207425642E61
:1050BC00747874006E25642E76616C3D2564000056
:1050CC00676574206E25642E76616C007825642EDD
:1050DC0076616C3D256400007025642E7069633D1B
:1050EC0025640000676574206225642E7478740052
:1050FC006225642E7478743D222573220000000012
:10510C00676574206325642E76616C006325642EBC
:10511C0076616C3D256400006765742062742564BB
:10512C002E76616C00000000627425642E76616C32
:10513C003D25640067657420627425642E74787450
:10514C0000000000627425642E7478743D2225736F
:10515C0022000000676574207A25642E76616C004D
:10516C007A25642E76616C3D256400006765742099
:10517C006A25642E76616C006A25642E76616C3D1E
:10518C0025640000676574207225642E76616C00BE
:10519C007225642E76616C3D256400006765742071
:1051AC00766125642E76616C0000000076612564C2
:1051BC002E76616C3D2564006765742076612564EC
:1051CC002E74787400000000766125642E74787457
:1051DC003D2225732200000070696E6700000000FC
:1051EC00257509257509257509257509257500008D
:1051FC0025750925750925750925750925750A0073
:10520C00232D302B2000686C4C00656667454647A3
:10521C000030313233343536373839414243444526
:10522C004600303132333435363738396162636495
:04523C0065660000A3
:04524000350100082C
:04524400110100084C
:105248000100000010000000352F380000000000A9
:10525800FFFFFF0000A24A04030000002000002016
:105268000000000000000000000000000000000036
:105278000000000000000000000000000000000026
:105288000000000000000000000000000000000016
:105298000000000000000000000000000000000006
:1052A80000000000000000000000000000000000F6
:1052B80000000000000000000000000000000000E6
:040000050800463178
:00000001FF
