:020000040800F2
:1000000000500020113300087D2B00087F2B0008D2
:10001000812B0008832B0008852B000800000000BE
:10002000000000000000000000000000872B000816
:10003000892B0008000000008B2B00088D2B000886
:100040005933000859330008593300085933000860
:100050005933000859330008593300085933000850
:100060005933000859330008593300085933000840
:1000700059330008992B00085933000859330008F8
:10008000AD2B00085933000859330008C12B000874
:10009000D12B0008593300085933000859330008A0
:1000A0005933000859330008593300085933000800
:1000B00059330008593300085933000859330008F0
:1000C00059330008593300085933000859330008E0
:1000D0005933000859330008F12B0008052C00089B
:1000E0005933000859330008593300080000000054
:1000F0000000000000000000000000000000000000
:0C01000000000000000000005FF808F1A3
:10010C0010B5054C237833B9044B13B10448AFF345
:10011C0000800123237010BD74000020000000003B
:10012C00443C000808B5034B1BB103490348AFF32B
:10013C00008008BD0000000078000020443C00084E
:10014C00034613F8012B002AFBD1181A013870470B
:10015C0010B504460E4B18784FF47A73B3FBF0F3DA
:10016C000C4A1068B0FBF3F000F0EEFC68B90F2CF1
:10017C0001D901200AE0002221464FF0FF3000F0A7
:10018C00A3FC034B5C60002000E0012010BD00BF0D
:10019C00000000200C00002008B5074A136843F04B
:1001AC0010031360032000F07DFC0020FFF7D0FF4C
:1001BC0002F08EFC002008BD00200240034A1168AA
:1001CC00034B1B780B441360704700BFE400002006
:1001DC0000000020014B1868704700BFE4000020AD
:1001EC0038B50446FFF7F6FF0546B4F1FF3F02D0E1
:1001FC00044B1B781C44FFF7EDFF401BA042FAD3C5
:10020C0038BD00BF00000020F0B44B6901229A40B9
:10021C000468D4F8003223F47C534D6A43EA052376
:10022C0043F00103C4F800320568D5F81C32D443FE
:10023C0023EA0203C5F81C32CB69C3B90568D5F8AB
:10024C000C322340C5F80C32CF688D8806684B6998
:10025C0045EA0745483346F833508F680D880368E4
:10026C004E6945EA0745483603EBC6035D60CB692A
:10027C00012B1ED08B69002B35D10568D5F80432C3
:10028C002340C5F804320B69002B33D10368D3F833
:10029C0014522C40C3F814420B6A012B31D0026863
:1002AC00D2F8003223F00103C2F800320020F0BC77
:1002BC0070470568D5F80C321343C5F80C320F683B
:1002CC008D8806684B6945EA0745483346F8335034
:1002DC008F688D8903684E6945EA0745483603EBFC
:1002EC00C6035D60C6E70568D5F804321343C5F84C
:1002FC000432C8E70468D4F814321343C4F8143237
:10030C00CAE70168D1F81C321A43C1F81C22C6E7AF
:10031C00002800F0968038B5044690F83C3003B3C2
:10032C00022384F83C302268136823F00203136024
:10033C002268136843F001031360FFF74BFF054677
:10034C0023685A6812F0010F10D1FFF743FF401BCE
:10035C000A28F5D9032084F83C00002384F83D30AA
:10036C0038BD80F83D3001F0E5FCD9E75A6812F051
:10037C00010F61D0A269012A43D00022E169012951
:10038C0041D022F04002216A01293FD022F0200204
:10039C00616A01293DD022F01002A16A01293BD0EB
:1003AC0022F00802E16A012939D022F0040219680E
:1003BC0021F0FC010A431A60A368E2681343226926
:1003CC001343626913436268013A21681343CB619A
:1003DC002268136823F001031360FFF7FBFE054648
:1003EC0023685A6812F0010F1CD0FFF7F3FE401B74
:1003FC000A28F5D9032084F83C00002384F83D300A
:10040C00AEE78022BAE742F04002BCE742F020029D
:10041C00BEE742F01002C0E742F00802C2E742F029
:10042C000402C4E75B6813F0010F05D100202064BF
:10043C00012384F83C3093E7042384F83C300120FA
:10044C008EE7012070470268936813F0806F08D123
:10045C00936813F0006F04D1936813F0805F00F081
:10046C009C8090F83D30012B00F09C80F0B401236F
:10047C0080F83D30936813F0806F05D1936813F0CA
:10048C00006F5BD0012300E0002303F11801090188
:10049C00545804F001045450016B8A68002A4FD15F
:1004AC00056803F118021201AC580E68C96841EADC
:1004BC0046512143A950016B0A6902F00F020A61EF
:1004CC00016803F1180501EB05114C6824F00F04C9
:1004DC004C60026802EB05125168046B24692143DD
:1004EC005160016BCC7D8A7D120442EA04624C7D22
:1004FC0042EA04220C7D0168224301EB0311C1F88E
:10050C008821016BCC7E8A7E120442EA04624C7E06
:10051C0042EA04220C7E0168224301EB0311C1F86C
:10052C008C2190F83C20D2B2322A2ED0622A30D0C4
:10053C00222A12D0122280F83C2011E00223A4E7D8
:10054C00066803F11804240135594F6842EAC702C2
:10055C00C9680A432A433251ADE7422280F83C2055
:10056C000022026480F83D20046818331B01E15816
:10057C0041F00101E15001684B6943F40F4343F032
:10058C0001034B611046F0BC7047522280F83C20AE
:10059C00E6E7722280F83C20E2E7042380F83C3046
:1005AC0001207047022070470B4699B990F83C2007
:1005BC00D2B2222A7CD090F83C20D2B2422A79D0F6
:1005CC0090F83C20D2B2622A76D090F83C20D2B27D
:1005DC00722A73D0012B16D090F83D20012A75D0C9
:1005EC0010B4012280F83D20002B41D190F83C2022
:1005FC00D2B2322A34D0522A36D0122A19D0222220
:10060C0080F83C2018E090F83C20D2B2322A57D027
:10061C0090F83C20D2B2522A54D090F83C20D2B25E
:10062C00622A51D090F83C20D2B2722AD4D1022046
:10063C007047422280F83C20002101640468626902
:10064C0042F40F4242F00102626180F83D1043BB5C
:10065C0001684A6942F00A024A61184610BC7047A8
:10066C00622280F83C20E7E7722280F83C20E3E726
:10067C0090F83C20D2B2222A0BD0422A0DD0122A5A
:10068C0003D0322280F83C20D6E7522280F83C205E
:10069C00D2E7622280F83C20CEE7722280F83C2020
:1006AC00CAE70268536943F0500353610020D5E751
:1006BC0002207047022070470220704702207047CA
:1006CC0002207047022070470220704702207047BA
:1006DC00704708B50268536923F00103536190F821
:1006EC003C30DBB2122B0CD090F83C30DBB2522BEE
:1006FC0014D0722B16D0422B09D0012380F83C3039
:10070C0008E00268536923F40F435361ECE722239A
:10071C0080F83C30FFF7DCFF002008BD322380F866
:10072C003C30F7E7622380F83C30F3E7704710B5B4
:10073C000B4600297FD1426B046803F11B010901B0
:10074C00615801F004019160002976D1046803F12D
:10075C001B0109016158490D1160046803F11B016B
:10076C000901645804F00204D46004680C44646801
:10077C0004F00F0414611362046821444968C1F346
:10078C000721D161016801EB0311D1F8B811117582
:10079C00016801EB0311D1F8B811090A5175016810
:1007AC0001EB0311D1F8B811090C9175016801EB3B
:1007BC000311D1F8B811090ED175016801EB0311C1
:1007CC00D1F8BC111176016801EB0311D1F8BC1101
:1007DC00090A5176016801EB0311D1F8BC11090C1F
:1007EC009176016801EB0311D1F8BC11090ED17699
:1007FC005BBB02682021D16001684A6922F00A02C1
:10080C004A6190F83C20D2B2222A01D0322A04D17B
:10081C0001684A6922F40F424A6173BB90F83C307C
:10082C00DBB2622B21D0722B23D0422B16D00123AA
:10083C0080F83C3015E0826B7EE7046803F11B0105
:10084C0009016158C908516087E7026820211161CC
:10085C0001684A6922F050024A61D2E7122380F8FB
:10086C003C30FFF763FF002010BD322380F83C3092
:10087C00F7E7522380F83C30F3E790F83C30DBB2DA
:10088C00622B0BD0722B0DD0522B03D0012380F88E
:10089C003C30E6E7122380F83C30E2E7222380F874
:1008AC003C30DEE7422380F83C30DAE770B5044692
:1008BC000268D568536915F0100508D003F00803D9
:1008CC00002B00F0A2801023D3604FF40075226837
:1008DC001169536903F0400311F0100F04D01BB1E0
:1008EC0045F480651023136123685A6912F0010FD7
:1008FC0028D09E689968674A0A40996821F06F4130
:10090C0021F47E01090C09046348B04305D0614809
:10091C00824202D0614A914214D199689A6802F4D9
:10092C0000729B6803F0010311F0020F02D10AB9A7
:10093C00002B6CD02046FFF7CCFE22689168584BF8
:10094C000B4393602368DA685B6903F0020312F0CF
:10095C00030F01D0002B5DD123681A695B6903F08A
:10096C00100312F0030F01D0002B58D1236C1D4340
:10097C002564236898695A6902F48072596901F4F4
:10098C00004110F0010F05D022B119B1226C42F0D8
:10099C000102226498695A6902F40072596901F4DF
:1009AC00004110F0020F05D022B119B1226C42F0B7
:1009BC000202226498695A6902F48062596901F44E
:1009CC00004110F0040F05D022B119B1226C42F095
:1009DC000402226498695A6902F40062596901F4AC
:1009EC00004110F0700F29D042B339B39A6902F06C
:1009FC007002402A33D024D8202A2BD0302A13D18D
:100A0C00226C42F02002226414E01D465FE745F49C
:100A1C00006592E700212046FFF789FE9CE7012143
:100A2C002046FFF784FEA1E7102A03D1226C42F086
:100A3C00080222649A6922F070029A61236CC3B98D
:100A4C0070BD502A10D0602AF4D1226C42F480720E
:100A5C002264EFE7226C42F010022264EAE7226C77
:100A6C0042F040022264E5E7226C42F080022264EC
:100A7C00E0E7236804225A60012384F83C302268A2
:100A8C00536923F40F4323F05B035361204601F0B9
:100A9C0019FAD5E70001000801000004000001105C
:100AAC0009050100074AD36823F4E0631B041B0CFF
:100ABC00000200F4E060034343F0BF6343F40033EF
:100ACC00D360704700ED00E030B4174BDB68C3F324
:100ADC000223C3F10704042C28BF04241D1D062D7A
:100AEC0018D9033B4FF0FF3505FA04F421EA040151
:100AFC00994005FA03F322EA0303194300280BDBA0
:100B0C000901C9B200F1604000F5614080F80013A2
:100B1C0030BC70470023E5E700F00F000901C9B2B3
:100B2C00024B1954F4E700BF00ED00E014ED00E0B7
:100B3C0000F01F02400901239340024A42F8203082
:100B4C00704700BF00E100E00138B0F1807F0AD2AD
:100B5C00064B5860064AF02182F82310002098605A
:100B6C0007221A6070470120704700BF10E000E0B8
:100B7C0000ED00E0042805D0054A136823F00403B7
:100B8C0013607047024A136843F004031360704704
:100B9C0010E000E0704708B5FFF7FCFF08BD70B42B
:100BAC00066CC56B0124B4406C60046863604368D8
:100BBC00102B05D0036899600368DA6070BC70472D
:100BCC0003689A600368D960F8E70000002830D009
:100BDC0010B403460168184A0A441848A0FB0202E4
:100BEC00120992001A64164ADA63022283F8212051
:100BFC00086820F47F5020F030005A689C6822432B
:100C0C00DC6822431C6922435C6922439C692243B1
:100C1C00DC69224302430A6000209862D8621863A0
:100C2C0058639863012283F8212083F8200010BCBC
:100C3C0070470120704700BFF8FFFDBFCDCCCCCC76
:100C4C000000024038B5044690F82000012831D04D
:100C5C00012084F8200094F82100012804D00023FE
:100C6C0084F82030022038BD022084F821000020B6
:100C7C00A0632568286820F0010028602046FFF753
:100C8C008EFFE36A5BB12268136843F00E031360B6
:100C9C002268136843F0010313600020E3E7226825
:100CAC00136823F0040313602268136843F00A03EB
:100CBC001360EDE70220D6E7F0B482B000252C4695
:100CCC00A3E07F4FBB4210D007D97E4FBB420CD064
:100CDC0007F58037BB4208D013E0A7F58017BB425D
:100CEC0003D007F57027BB4207D18B68002B58D077
:100CFC00012B51D04261082503E0A7F58017BB42B8
:100D0C00F3D0FF2E4FD88446FF2E4FD8A200DCF82C
:100D1C0000300F27974023EA070305FA02F213432A
:100D2C00CCF800304B6813F0805F6DD0664B9A693D
:100D3C0042F001029A619B6903F001030193019B4C
:100D4C00A208971C614B53F8273004F00307BF002F
:100D5C004FF00F0C0CFA07FC23EA0C0C5C4B98427E
:100D6C002AD003F58063984200F08A8003F58063F3
:100D7C00984200F0878003F5806398421AD00423D0
:100D8C001BE0CD68BDE7CD680435BAE7CD68083502
:100D9C00B7E7CD680C35B4E702610825B1E700254B
:100DAC00AFE70425ADE700F1040CADE7A4F10802B0
:100DBC009200ACE7032300E00023BB4043EA0C03A2
:100DCC000232424F47F822304B6813F4803F5BD01D
:100DDC00404A1368334313604B6813F4003F59D0F7
:100DEC003C4A5368334353604B6813F4801F57D00D
:100DFC00384A9368334393604B6813F4001F55D003
:100E0C00344AD3681E43D66001340F2C54D80122C7
:100E1C00A2400B6803EA020632EA0303F4D14B68E2
:100E2C00122B3FF64EAF122B3FF66BAF01A757F8C4
:100E3C0023F000BFF70C00088F0D0008990D000877
:100E4C00AB0D00080F0D00080F0D00080F0D00086A
:100E5C000F0D00080F0D00080F0D00080F0D0008F6
:100E6C000F0D00080F0D00080F0D00080F0D0008E6
:100E7C000F0D00080F0D0008930D00089F0D0008C2
:100E8C0001239AE7022398E7124A136823EA060320
:100E9C001360A1E70F4A536823EA06035360A3E7E4
:100EAC000C4A936823EA06039360A5E7094AD368C2
:100EBC0023EA0606D660A7E702B0F0BC704700BF75
:100ECC000000221000003110001002400000014010
:100EDC0000080140000401400AB101617047090497
:100EEC0001617047C3685940C160704782B0084BBC
:100EFC001B68084AA2FB03235B0A00FB03F3019364
:100F0C0000BF019B5A1E0192002BF9D102B0704711
:100F1C000C000020D34D621070B582B004460368FB
:100F2C0013F0010F2CD0AB4B5B6803F00C03042BBC
:100F3C001DD0A84B5B6803F00C03082B12D0636820
:100F4C00B3F5803F41D0002B55D103F1804303F51D
:100F5C0004331A6822F480321A601A6822F4802250
:100F6C001A6037E09B4B5B6813F4803FE7D0994BDA
:100F7C001B6813F4003F03D06368002B00F0AE81B4
:100F8C00236813F0020F75D0924B5B6813F00C0FB3
:100F9C005FD0904B5B6803F00C03082B54D0236993
:100FAC00002B00F089808C4B01221A60FFF712F99C
:100FBC000546884B1B6813F0020F74D1FFF70AF932
:100FCC00401B0228F5D903208DE1824A136843F4B3
:100FDC0080331360636843B3FFF7FCF805467D4B21
:100FEC001B6813F4003FCBD1FFF7F4F8401B6428C7
:100FFC00F5D9032077E1B3F5A02F09D0754B1A680A
:10100C0022F480321A601A6822F480221A60E1E716
:10101C0003F18043A3F53C331A6842F480221A6032
:10102C001A6842F480321A60D4E7FFF7D3F8054609
:10103C00684B1B6813F4003FA2D0FFF7CBF8401BA2
:10104C006428F5D903204EE1624B5B6813F4803FB2
:10105C00A5D1604B1B6813F0020F03D02369012B41
:10106C0040F03E815B4A136823F0F803616943EA60
:10107C00C1031360236813F0080F32D0A369002B4F
:10108C0045D0564B01221A60FFF7A4F80546514B88
:10109C005B6A13F0020F21D1FFF79CF8401B02286A
:1010AC00F5D903201FE14B4A136823F0F80361695B
:1010BC0043EAC1031360DDE7474B00221A60FFF7D8
:1010CC0089F80546434B1B6813F0020FD2D0FFF78B
:1010DC0081F8401B0228F5D9032004E10120FFF719
:1010EC0005FF236813F0040F00F09880394BDB697F
:1010FC0013F0805F1DD1374BDA6942F08052DA6110
:10110C00DB6903F080530193019B012512E0334B03
:10111C0000221A60FFF75EF805462E4B5B6A13F04F
:10112C00020FDED0FFF756F8401B0228F5D903203A
:10113C00D9E000252A4B1B6813F4807F11D0E3689B
:10114C00012B22D0002B38D103F1804303F504335B
:10115C001A6A22F001021A621A6A22F004021A6256
:10116C0018E01F4A136843F480731360FFF732F8DA
:10117C0006461B4B1B6813F4807FE0D1FFF72AF85F
:10118C00801B6428F5D90320ADE0124A136A43F0A2
:10119C0001031362E3687BB3FFF71CF806460D4BA3
:1011AC001B6A13F0020F38D1FFF714F8801B41F2C1
:1011BC0088339842F3D9032095E0052B12D0054BC8
:1011CC001A6A22F001021A621A6A22F004021A62E6
:1011DC00E0E700BF0010024000004242800442429F
:1011EC0000700040424B1A6A42F004021A621A6AFA
:1011FC0042F001021A62CDE7FEF7ECFF06463C4BCB
:10120C001B6A13F0020F08D0FEF7E4FF801B41F2BB
:10121C0088339842F3D9032065E0E5B9E369002BE4
:10122C0060D0334A526802F00C02082A5DD0022BBF
:10123C0017D0304B00221A60FEF7CCFF04462C4B23
:10124C001B6813F0007F47D0FEF7C4FF001B022879
:10125C00F5D9032047E0264AD36923F08053D361A4
:10126C00DCE7244B00221A60FEF7B4FF0546204B46
:10127C001B6813F0007F06D0FEF7ACFF401B022862
:10128C00F5D903202FE0236AB3F5803F1AD0184913
:10129C004B6823F47413226A606A024313434B6055
:1012AC00144B01221A60FEF795FF0446104B1B6885
:1012BC0013F0007F0ED1FEF78DFF001B0228F5D92D
:1012CC00032010E00A4A536823F40033A1680B434F
:1012DC005360DCE7002006E0002004E0012002E07F
:1012EC00012000E0002002B070BD0120FBE700BF30
:1012FC00001002406000424286B0164B0FCB0DF13D
:10130C00180C0CE90F0040F20123ADF80430124B1D
:10131C005B6803F00C02082A02D0104806B0704734
:10132C00C3F38342624412F8102C13F4803F0CD0A8
:10133C00094B5B68C3F34043634413F8143C074800
:10134C0000FB02F0B0FBF3F0E8E7054800FB02F00D
:10135C00E4E700BF843C00080010024000127A0051
:10136C0000093D0070B504460D46594B1B6803F04F
:10137C0007038B420BD2564A136823F007030B4327
:10138C001360136803F007038B4240F09A802368C4
:10139C0013F0020F06D04F4A536823F0F003A168F4
:1013AC000B435360236813F0010F52D06368012B79
:1013BC0023D0022B28D0474A126812F0020F00F0FB
:1013CC00828044494A6822F0030213434B60FEF7C3
:1013DC0001FF06466368012B1DD0022B2AD03D4B22
:1013EC005B6813F00C0F34D0FEF7F4FE831B41F254
:1013FC0088329342F3D9032062E0364A126812F421
:10140C00003FDED101205BE0324A126812F0007F0F
:10141C00D7D1012054E02F4B5B6803F00C03042B55
:10142C0017D0FEF7D7FE831B41F288329342F2D9D4
:10143C00032045E0274B5B6803F00C03082B08D016
:10144C00FEF7C8FE801B41F288339842F2D9032084
:10145C0036E01F4B1B6803F00703AB420AD91C4A4A
:10146C00136823F007032B431360136803F007037F
:10147C00AB422AD1236813F0040F06D0154A5368E7
:10148C0023F4E063E1680B435360236813F0080F07
:10149C0007D0104A536823F46053216943EAC1030F
:1014AC005360FFF729FF0B4B5B68C3F303130A4A26
:1014BC00D35CD840094B18600020FEF749FE002091
:1014CC0070BD0120FCE70120FAE70120F8E700BF1E
:1014DC0000200240001002405C3C00080C00002080
:1014EC00014B1868704700BF0C00002008B5FFF7CF
:1014FC00F7FF044B5B68C3F30223034AD35CD84069
:10150C0008BD00BF001002406C3C000808B5FFF796
:10151C00E7FF044B5B68C3F3C223034AD35CD84098
:10152C0008BD00BF001002406C3C00080268D36884
:10153C0023F0C003D360202380F839307047026851
:10154C00D36823F49073D3600268536923F00103CA
:10155C005361202380F83A30704700002DE9F8439E
:10156C0005460268136923F44053C1680B431361A9
:10157C00836802691343426913430168CA6822F401
:10158C00B05222F00C021343CB600268536923F46F
:10159C00407381690B4353610268594B9A4257D08F
:1015AC00FFF7A4FF00EB800000EB80006C68A40048
:1015BC00B0FBF4F4534EA6FB043464092701FFF787
:1015CC0095FF00EB800404EB84046B689B00B4FB78
:1015DC00F3F9FFF78BFF00EB800303EB83036C68DD
:1015EC00A400B3FBF4F4A6FB043464094FF06408C4
:1015FC0008FB149424013234A6FB0434640904F06F
:10160C00F0043C44FFF772FF00EB800000EB80001D
:10161C006F68BF00B0FBF7F7FFF768FF00EB8000C7
:10162C0000EB80006B689B00B0FBF3F0A6FB003076
:10163C00400908FB10784FEA081808F13208A6FB9D
:10164C000836C6F343162B6826449E60BDE8F88323
:10165C00FFF75CFF00EB800000EB80006C68A400DF
:10166C00B0FBF4F4274EA6FB043464092701FFF702
:10167C004DFF00EB800404EB84046B689B00B4FB0F
:10168C00F3F9FFF743FF00EB800000EB80006C6880
:10169C00A400B0FBF4F4A6FB043464094FF0640816
:1016AC0008FB149424013234A6FB0434640904F0BE
:1016BC00F0043C44FFF72AFF00EB800000EB8000B5
:1016CC006F68BF00B0FBF7F7FFF720FF00EB80005F
:1016DC0000EB80006B689B00B0FBF3F0A6FB0030C6
:1016EC00400908FB10784FEA081808F13208A6FBED
:1016FC000836C6F343162B6826449E60A6E700BF47
:10170C00003801401F85EB512DE9F84305460F4683
:10171C0016469946DDF820802C68246837EA0403C5
:10172C000CBF01240024B4421FD1B8F1FF3FF3D009
:10173C00B8F1000F05D0FEF74DFDA0EB09004045B8
:10174C00EAD92A68D36823F4D073D3602A68536922
:10175C0023F001035361202385F8393085F83A30A2
:10176C00002385F83830032000E00020BDE8F88322
:10177C0058B310B5044690F839300BB3242384F8D1
:10178C0039302268D36823F40053D3602046FFF726
:10179C00E5FE2268136923F49043136122685369B0
:1017AC0023F02A0353612268D36843F40053D360B7
:1017BC000020E063202384F8393084F83A3010BDDF
:1017CC0080F8383001F0B8FBD8E7012070472DE9DC
:1017DC00F04182B01E4690F83930DBB2202B58D144
:1017EC0004460D469046002957D0002A57D090F851
:1017FC003830012B55D0012380F838300023C363D7
:10180C00212380F83930FEF7E5FC0746A4F8248044
:10181C00A4F8268017E000963B4600228021204643
:10182C00FFF772FF00283ED12B882268C3F3080310
:10183C00536023690BB9023505E0013503E015F857
:10184C00012B23685A60E38C9BB29BB1E28C92B261
:10185C00013A92B2E284A368B3F5805FDBD00096C4
:10186C003B46002280212046FFF74EFF0028E6D0A1
:10187C0003200FE000963B46002240212046FFF754
:10188C0043FF90B9202384F83930002384F8383092
:10189C0000E0022002B0BDE8F0810120FAE701204F
:1018AC00F8E70220F6E70320F4E70320F2E72DE93E
:1018BC00F04182B01E4690F83A30DBB2202B5BD15F
:1018CC0004460D46904600295AD0002A5AD090F86A
:1018DC003830012B58D0012380F838300023C363F3
:1018EC00222380F83A30FEF775FC0746A4F82C80CA
:1018FC00A4F82E801DE000963B46002220212046B5
:10190C00FFF702FF002841D1236933B923685B68D4
:10191C00C3F3080325F8023B0BE023685B68DBB2DA
:10192C0025F8013B05E023685B6803F07F0305F8AD
:10193C00013BE38D9BB2C3B1E28D92B2013A92B2FC
:10194C00E285A368B3F5805FD5D000963B460022B4
:10195C0020212046FFF7D8FED0B92369002BE2D115
:10196C0023685B6805F8013BE3E7202384F83A30F1
:10197C00002084F8380000E0022002B0BDE8F081BD
:10198C000120FAE70120F8E70220F6E70320F4E74C
:10199C000320F2E730B583B0044690F83A00C0B2A9
:1019AC0020283CD100293DD0002A3DD094F8383075
:1019BC00012B3BD0012384F83830A162A28500258D
:1019CC00E563222384F83A30636B19489862636BA1
:1019DC001848D862636B18481863636B5D632068A2
:1019EC0013460A46011D606BFFF72CF9019523681D
:1019FC001A6801925A680192019A84F83850DA6890
:101A0C0042F48072DA602268536943F00103536137
:101A1C002268536943F040035361284600E00220DA
:101A2C0003B030BD0120FBE70120F9E70220F7E706
:101A3C004B1A00088B1A0008971A0008704708B553
:101A4C000346406A1B681B6813F0200F13D1002358
:101A5C00C3850268D36823F48073D360026853692A
:101A6C0023F0010353610268536923F0400353616F
:101A7C00202380F83A30FFF7E1FF08BD704708B526
:101A8C00406AFFF7FBFF08BD704710B5446A236836
:101A9C005A6994F83930DBB2212B10D023685A697B
:101AAC0002F0400294F83A30DBB2222B11D0E36BF7
:101ABC0043F01003E3632046FFF7E6FF10BD02F08E
:101ACC008002002AEAD00023E3842046FFF72EFD93
:101ADC00E4E7002AEBD00023E3852046FFF72FFD37
:101AEC00E5E7000008B50268D36843F01003D36043
:101AFC000A68136843F0020313600A68136823F042
:101B0C00040313604FF480720149FFF743FF08BDD3
:101B1C00E801002070B5C56B03681A6812F0020F5B
:101B2C0029D00446244A934214D01432934223D031
:101B3C001432934222D01432934222D01432934264
:101B4C0022D01432934202D04FF0007203E04FF4D3
:101B5C00001200E00222194B5A604FF480720021EF
:101B6C00174801F027FC23685A6892B2C2F58072BC
:101B7C0092B2FF2A0BD970BD2022ECE74FF4007211
:101B8C00E9E74FF40052E6E74FF40032E3E70D4E7D
:101B9C0031460B4801F000FC226C3F239340AB60B4
:101BAC002368DE6023684FF480725A6022681368E1
:101BBC0043F001031360DEE708000240000002401E
:101BCC00E8000020E8010020034608461A68116866
:101BDC0011F0100F00D1704700B583B0116801915E
:101BEC005268019201680A6822F001020A601946E3
:101BFC00FFF790FF03B05DF804FB000008B501216E
:101C0C000148FFF76FF908BD00080140B0F5B47F3B
:101C1C0000D3704738B504460D46FFF7EFFF2B880D
:101C2C00054820F834306B8800EBC4046380AB8823
:101C3C00A380EB88E38038BDE802002008B50221C0
:101C4C000148FFF74FF908BD0008014008B5102105
:101C5C000148FFF747F908BD0008014008B51949CC
:101C6C001948FFF73FFF19491948FFF73BFF00F0F0
:101C7C00ABF800F00DF900F0C7F80023B3F5B47F12
:101C8C000BD2144A002122F8331002EBC30251800C
:101C9C009180D18001339BB2F0E7FFF7AFFFFFF7E4
:101CAC00CDFFFFF7D3FF4FF47A70FEF799FA00F0EF
:101CBC0039FEFEF78FFA084B18604FF47A729A804F
:101CCC0008BD00BFF80E0020001000203C0F0020C3
:101CDC00800F0020E80200202C0E002008B5FEF733
:101CEC0079FA014B186008BD280E002008B50E4883
:101CFC000E4B03600923436000238360C3604FF4E1
:101D0C00A0220261436183610122C26103624362CA
:101D1C008362C362FEF7FCFA00B908BD4721044890
:101D2C0000F022FDF9E700BFB40E00200064004073
:101D3C00983C00080268214B9A4200D0704730B59D
:101D4C0087B003F5D633DA6942F00072DA61DB69E9
:101D5C0003F000730193019B4FF4807302930024F2
:101D6C0003940494164D02A92846FEF7A5FF4FF4E0
:101D7C0000730293022303930323059302A92846BD
:101D8C00FEF79AFF0F4A536823F4C04343F0E06315
:101D9C0043F480435360224621461320FEF794FE01
:101DAC001320FEF7C5FE224621461420FEF78CFEBA
:101DBC001420FEF7BDFE07B030BD00BF006400402C
:101DCC00000C01400000014000B58BB000230093D3
:101DDC0001930293039304930593069301230793B2
:101DEC0008930E23099369460548FEF70DFA10B9BE
:101DFC000BB05DF804FBA421024800F0B5FCF7E73A
:101E0C00B40E0020983C000808B500210448FEF7E9
:101E1C00CBFB00B908BDC021024800F0A5FCF9E7D6
:101E2C00B40E0020983C000810B503460E48026B17
:101E3C00116003EBC10233F83110036B1975016BA0
:101E4C0000234B755488016B8C75016BCB75948892
:101E5C00016B0C76016B4B76D188026B9176026B21
:101E6C00D376FEF7F0FA10BDB40E002040F2213309
:101E7C0003600023436083600361C36104E0C21804
:101E8C00002111750133DBB2072BF8D97047000024
:101E9C0010B50A4C2046FFF7E9FF094B04F1240268
:101EAC001A635C634FF4407363620123A3620023E3
:101EBC002363E3620823636310BD00BF900000201E
:101ECC00B40E002010B5044603681022DA6000211D
:101EDC00FEF76AFB23682022DA60002284F83C209B
:101EEC0021684B6943F40F4343F05B034B6184F867
:101EFC003D2010BD00B583B00E4B5A6942F0010273
:101F0C005A615B6903F001030193019B00221146A6
:101F1C000D20FEF7D9FD0D20FEF70AFE002211461A
:101F2C001020FEF7D1FD1020FEF702FE03B05DF885
:101F3C0004FB00BF001002402DE9F04188B0214B9A
:101F4C009A6942F020029A619A6902F02002019289
:101F5C00019A9A6942F004029A619A6902F00402A9
:101F6C000292029A9A6942F008029A619B6903F004
:101F7C0008030393039BDFF85480002249F6137186
:101F8C004046FEF7A9FF104C002239212046FEF7EF
:101F9C00A3FF49F6137304930127059700260696B1
:101FAC000225079504A94046FEF786FE39230493C3
:101FBC0005970696079504A92046FEF77DFE08B006
:101FCC00BDE8F08100100240000C01400008014007
:101FDC00014490FBF1F0642303FB00F0704741FADD
:101FEC0000F010F0010000D00120704708B5234B21
:101FFC001B78712B00D008BD204B5B79FF2BFAD1DD
:10200C001E4B9B79FF2BF6D11C4BDB79FF2BF2D1AE
:10201C00FFF71CFE194B5B78052BECD8DFE803F0BF
:10202C00030A11181F26164B00201870587000F068
:10203C0095FCE0E7124B01201870587000F08EFCF4
:10204C00D9E70F4B02201870587000F087FCD2E7CC
:10205C000B4B03201870587000F080FCCBE7084B3A
:10206C0004201870587000F079FCC4E7044B05206C
:10207C001870587000F072FCBDE700BFE80000203B
:10208C00D000002010B5A74B1B78013B072B00F2AA
:10209C003982DFE813F008004800AE006101B90195
:1020AC00CF017D02E7029F4B9B787BB1012B14D0B3
:1020BC00022B19D0032B1ED0052B23D0062B2BD093
:1020CC00984BFF229A70FFF799FD1BE2964BB3F8E1
:1020DC00A211002000F084FC14E2934BB3F8A2117F
:1020EC00002000F0DDFC0DE28F4BB3F8361301201D
:1020FC0000F0A6FC06E28C4BB3F84813002000F06D
:10210C009FFCFFE1874BDB78002B40F0FB8187497C
:10211C00002000F039FCF5E1834BB3F8501302209A
:10212C0000F05EFCEEE17F4B9B78DBB1012B20D005
:10213C00022B25D0032B2AD0042B2FD0052B32D0E9
:10214C00062B3AD0072B4ED1774BB3F84633032BE3
:10215C003AD0022B3DD0012B40D00021084600F094
:10216C009FFCCFE1704BB3F8A211042000F038FCB7
:10217C00C8E16D4BB3F8A211012000F091FCC1E154
:10218C00694BB3F83613002000F05AFCBAE1664BE9
:10219C00B3F84E13012000F053FCB3E16449032063
:1021AC0000F01EFCAEE15F4BDB78002B40F0AA8107
:1021BC005E49002000F0E8FBA4E15B4BB3F8501340
:1021CC00002000F00DFC9DE16421002000F068FC73
:1021DC0098E14321002000F063FC93E122210020D0
:1021EC0000F05EFC8EE14F4BFF229A70FFF706FD6C
:1021FC0088E14C4B9B78CBB1012B1ED0022B23D00A
:10220C00032B28D0042B4DD0052B58D0062B61D096
:10221C00072B66D0082B72D0092B75D00A2B7AD0DD
:10222C00404BFF229A70FFF7E9FC6BE13E4BB3F891
:10223C00AE11002000F004FC64E13B4BB3F8B0118C
:10224C00012000F0FDFB5DE1374BB3F8AA11022031
:10225C0000F0F6FB56E1344BB3F83033042B0DD0C1
:10226C00012B10D0032B13D0022B16D0002B40F0D7
:10227C0049813049002000F087FB43E12E490020C2
:10228C0000F082FB3EE12D49002000F07DFB39E19E
:10229C002B49002000F078FB34E12A49002000F0A3
:1022AC0073FB2FE1204B9B8923B12749012000F0C0
:1022BC006BFB27E12549012000F066FB22E11A4B5C
:1022CC00B3F8A011224BA3FB01314909032000F004
:1022DC00B7FB17E1144BB3F83613042000F0B0FB36
:1022EC0010E1114BB3F8163523B91A49022000F04E
:1022FC004BFB07E11549022000F046FB02E10021EF
:10230C00022000F06DFBFDE0074BB3F854100020E9
:10231C0000F066FBF6E0044BB3F85610012000F019
:10232C005FFBEFE0D0000020E8020020A83C000892
:10233C00DD1F0008CC3C0008AC3C0008B43C000895
:10234C00BC3C0008C43C0008D43C0008E03C00083D
:10235C001F85EB51E43C0008BE4B9B78ABB1012BC5
:10236C001AD0022B1FD0032B24D0042B29D0052BE1
:10237C002ED0062B33D0072B38D0082B3DD0B54BA5
:10238C00FF229A70FFF73AFCBCE0B34BB3F8B018DD
:10239C00002000F025FBB5E0AF4BB3F8B2180520D8
:1023AC0000F01EFBAEE0AC4BB3F8B418062000F006
:1023BC0017FBA7E0A84BB3F8F81A012000F010FBAC
:1023CC00A0E0A54BB3F8FA1A042000F009FB99E041
:1023DC00A14BB3F8FC1A072000F002FB92E09E4BD5
:1023EC00B3F8001B022000F0FBFA8BE09A4BB3F819
:1023FC00021B032000F0F4FA84E0974BB3F8041BA3
:10240C00082000F0EDFA7DE0924BDB78012B07D031
:10241C00022B0AD08F4B5878187000F09FFA71E09D
:10242C008E49002000F0B0FA6CE08D49002000F0DD
:10243C00ABFA67E0884BB3F838130020FFF7CFFDF9
:10244C00012864D0844BB3F838130120FFF7C7FD83
:10245C00012861D0804BB3F838130820FFF7BFFD7B
:10246C0001285ED07C4BB3F838130920FFF7B7FD79
:10247C0001285BD0784BB3F838130A20FFF7AFFD77
:10248C00012858D0744BB3F83A130120FFF7A7FD7D
:10249C00012855D0704BB3F83A130220FFF79FFD7B
:1024AC00012852D06C4BB3F83A130320FFF797FD79
:1024BC0001284FD0684BB3F83A130420FFF78FFD77
:1024CC0001284CD0644BB3F83A130520FFF787FD75
:1024DC00012849D0604BB3F83A130620FFF77FFD73
:1024EC00012846D05C4BB3F83A130A20FFF777FD6E
:1024FC00012843D0584BB3F83A130B20FFF76FFD6C
:10250C00012840D0534A93780133937010BD0021B9
:10251C00084600F065FA95E70121084600F060FADC
:10252C0098E70821022000F05BFA9BE709210320C1
:10253C0000F056FA9EE70A21042000F051FAA1E7B8
:10254C000121082000F04CFAA4E70221092000F038
:10255C0047FAA7E703210A2000F042FAAAE7042170
:10256C000B2000F03DFAADE705210C2000F038FA05
:10257C00B0E706210D2000F033FAB3E70A210E2054
:10258C0000F02EFAB6E70B210F2000F029FAB9E77C
:10259C000A2000F03DFA0128B4D1002000F038FAEE
:1025AC002D4CA4F8A005012000F032FAA4F8A205E5
:1025BC00022000F02DFAA4F8A405032000F028FA5C
:1025CC00A4F8A605B4212046FFF72EFC042000F049
:1025DC001FFAA4F8A805052000F01AFAA4F8AA0519
:1025EC00062000F015FAA4F8AC05072000F010FA4C
:1025FC00A4F8AE05B5212046FFF716FC082000F024
:10260C0007FAA4F8B005092000F002FAA4F8B20504
:10261C00002000F02DFAA4F8B405012000F028FAEF
:10262C00A4F8B605B6212046FFF7FEFB022000F009
:10263C001FFAA4F8B805042000F01AFAA4F8BA0599
:10264C00052000F015FAA4F8BC05B7212046FFF7C9
:10265C00EBFB57E7D0000020E8020020EC3C000820
:10266C00F03C00080A2000F0D3F901287FF44AAFAF
:10267C00032000F0FDF93B4CA4F8C005042000F049
:10268C00F7F9A4F8C205052000F0F2F9A4F8C40586
:10269C00062000F0EDF9A4F8C605B8212046FFF796
:1026AC00C3FB072000F0E4F9A4F8CE05082000F0E5
:1026BC00DFF9A4F8CA05092000F0DAF9A4F8CC0572
:1026CC00002000F0D5F9A4F8CE05B9212046FFF77B
:1026DC00ABFB012000F0CCF9A4F8D005022000F0EF
:1026EC00C7F9A4F8D2050A2000F0C2F9A4F8D40561
:1026FC000B2000F0BDF9A4F8D605BA212046FFF74F
:10270C0093FB0C2000F0B4F9A4F8D8050D2000F0D0
:10271C00AFF9A4F8DA05042000F07AF9A4F8DC0586
:10272C00052000F075F9A4F8DE05BB212046FFF763
:10273C007BFB002000F06CF9A4F8E005012000F010
:10274C0067F9A4F8E205022000F062F9A4F8E405A8
:10275C00032000F05DF9A4F8E605BC212046FFF744
:10276C0063FBCFE6E8020020FEE7000000B591B065
:10277C00012206924FF480330793002108910A92AC
:10278C0002220D920E934FF4E0130F9306A8FEF75E
:10279C00C3FB08BB0F230193022102910023039377
:1027AC004FF480620492059301A8FEF7DBFDB8B9E3
:1027BC00FEF796FE0C4BA3FB00308009FEF7C4F924
:1027CC000420FEF7D7F9002211464FF0FF30FEF738
:1027DC007BF911B05DF804FB9D210448FFF7C4FFA1
:1027EC00AB210248FFF7C0FFD34D6210043D000837
:1027FC0008B5FDF7D1FCFFF7B9FFFFF79DFBFFF71D
:10280C0079FBFFF773FA00F03DFB00F059FB00F089
:10281C0075FBFFF723FA00F01DFBFFF733FCFFF706
:10282C005DFAF8E738B504460C4B1B681A6812F0D1
:10283C00200F01D05B68F7E72046FDF781FC074DC0
:10284C00322382B221462846FEF7C1FF32230322EF
:10285C0003492846FEF7BBFF38BD00BF800F0020A0
:10286C000800002000B583B00023019364230422E8
:10287C000DEB02010F48FFF71AF89DF80430012BFD
:10288C0003D0002003B05DF804FB9DF80530FF2B4E
:10289C0001D00020F6E79DF80630FF2B01D0002078
:1028AC00F0E79DF80730FF2B01D00020EAE701206C
:1028BC00E8E700BF800F002000B583B00023009331
:1028CC0001933223082269461548FEF7F0FF9DF864
:1028DC000030712B03D0002003B05DF804FB9DF891
:1028EC000530FF2B01D00020F6E79DF80630FF2BBA
:1028FC0001D00020F0E79DF80730FF2B01D000201D
:10290C00EAE79DF804309DF80300000440EA0360F8
:10291C009DF8023040EA03209DF801301843DBE7B4
:10292C00800F002010B50A48FFF77CFF0948FFF71D
:10293C0079FFFFF797FF04460748FFF773FFFFF790
:10294C0091FF14B110B1012000E0002010BD00BFB8
:10295C00943C0008143D00081C3D000800B585B0EF
:10296C000246002301930293ADF80C30054901A8EF
:10297C0000F028FD01A8FFF755FFFFF773FF05B026
:10298C005DF804FB243D0008F0B59BB006460D46EF
:10299C0000240D942E273A4621460EA800F00AFD7D
:1029AC0000943A46214601A800F004FD234605E0B8
:1029BC00EC5C1AAA1A4402F8684C0133132BF7DDAD
:1029CC006B46324605490DA800F0FCFC0DA8FFF73C
:1029DC0029FFFFF747FF1BB0F0BD00BF2C3D0008DF
:1029EC0010B584B002460B46002400940194029466
:1029FC00CDF80B400549684600F0E4FC6846FFF74B
:102A0C0011FFFFF72FFF04B010BD00BF483D0008B9
:102A1C0000B585B002460023009301930293CDF8D4
:102A2C000B300649684600F0CDFC6846FFF7FAFE0D
:102A3C00FFF742FF05B05DF804FB00BF543D0008F2
:102A4C0010B584B002460B46002400940194029405
:102A5C00CDF80B400549684600F0B4FC6846FFF71A
:102A6C00E1FEFFF7FFFE04B010BD00BF603D0008A3
:102A7C0000B585B002460023009301930293CDF874
:102A8C000B300649684600F09DFC6846FFF7CAFE0D
:102A9C00FFF712FF05B05DF804FB00BF943D000882
:102AAC0010B584B002460B460024009401940294A5
:102ABC00CDF80B400549684600F084FC6846FFF7EA
:102ACC00B1FEFFF7CFFE04B010BD00BF0C3E0008F6
:102ADC0000B583B0244B9A6942F001029A619A695D
:102AEC0002F001020092009ADA6942F08052DA6137
:102AFC00DB6903F080530193019B0320FDF7D2FFA8
:102B0C00002211466FF00B00FDF7DEFF002211468C
:102B1C006FF00A00FDF7D8FF002211466FF0090094
:102B2C00FDF7D2FF002211466FF00400FDF7CCFF39
:102B3C00002211466FF00300FDF7C6FF002211467C
:102B4C006FF00100FDF7C0FF002211464FF0FF307F
:102B5C00FDF7BAFF054A536823F0E06343F00073B6
:102B6C00536003B05DF804FB00100240000001400C
:102B7C007047FEE7FEE7FEE7FEE7704770477047D9
:102B8C0008B5FDF71BFBFEF706F808BD08B50249B2
:102B9C000248FEF7BFFF08BD800F00203C0F00204D
:102BAC0008B502490248FEF7B5FF08BD0010002029
:102BBC00F80E002008B50248FDF778FE08BD00BFEE
:102BCC00B40E002010B5064C2046FDF76FFE616B6D
:102BDC0031F8140BFFF71AF8FFF716F910BD00BF08
:102BEC00B40E002008B502490248FEF7EDFF08BDFF
:102BFC00F80E00200010002008B503490348FEF72A
:102C0C00E3FFFFF7F3F908BD3C0F0020800F002015
:102C1C000F4B1A6842F001021A6059680D4A0A40BB
:102C2C005A601A6822F0847222F480321A601A6890
:102C3C0022F480221A605A6822F4FE025A604FF481
:102C4C001F029A60044B4FF000629A60704700BFFD
:102C5C00001002400000FFF800ED00E010B582B05B
:102C6C004FF482740DE03B4901EBC402D38800930E
:102C7C009388528831F83410204600F0C9FA013498
:102C8C00A4B2B4F5847FEED340F209140DE03149BF
:102C9C0001EBC402D38800939388528831F8341026
:102CAC00204600F0B5FA0134A4B2B4F5867FEED913
:102CBC004FF487740DE0274901EBC402D3880093CD
:102CCC009388528831F83410204600F0A1FA013470
:102CDC00A4B2B4F5897FEED340F213140DE01D4974
:102CEC0001EBC402D38800939388528831F83410D6
:102CFC00204600F08DFA0134A4B2B4F58B7FEED9E6
:102D0C004FF48C740DE0134901EBC402D38800938B
:102D1C009388528831F83410204600F079FA013447
:102D2C00A4B2B4F58E7FEED340F21D140DE0094928
:102D3C0001EBC402D38800939388528831F8341085
:102D4C00204600F065FA0134A4B2B4F5907FEED9B8
:102D5C0002B010BDE802002010B582B00020009037
:102D6C00034602463A49098800F052FA33240DE032
:102D7C00374901EBC402D38800939388528831F809
:102D8C003410204600F044FA0134A4B2362CEFD9AA
:102D9C002F4CB4F856350093B4F85435B4F852258A
:102DAC00B4F85015AA2000F033FAB4F85E3500934D
:102DBC00B4F85C35B4F85A25B4F85815AB2000F0CB
:102DCC0027FAB4F80E350093B4F80C35B4F80A258C
:102DDC00B4F80815A12000F01BFAB4F80E350093D6
:102DEC00B4F80C35B4F80A25B4F80815A22000F094
:102DFC000FFA9C240DE0164901EBC402D388009312
:102E0C009388528831F83410204600F001FA0134CE
:102E1C00A4B29F2CEFD90E49CB8900938B894A8998
:102E2C000989012000F0F4F965240DE0084901EB53
:102E3C00C402D38800939388528831F8341020460A
:102E4C0000F0E6F90134A4B26B2CEFD902B010BD3E
:102E5C00E802002008B5094A1168094B1B685B1A87
:102E6C009288934202D8FFF777FF08BDFFF7F6FE72
:102E7C00FDF7B0F9014B1860F5E700BF2C0E0020F0
:102E8C00280E002008B50B480B4B03604FF4E133C0
:102E9C00436000238360C360036108224261836145
:102EAC00C361FEF765FC00B908BD47210348FFF775
:102EBC005BFCF9E7C00F0020003801406C3E0008B5
:102ECC0008B50B480B4B03604FF4E1334360002310
:102EDC008360C36003610C2242618361C361FEF7AE
:102EEC0047FC00B908BD5A210348FFF73DFCF9E740
:102EFC0000100020004400406C3E000808B50B4850
:102F0C000B4B03604FF4E133436000238360C360D9
:102F1C0003610C2242618361C361FEF729FC00B995
:102F2C0008BD6D210348FFF71FFCF9E7800F002057
:102F3C00004800406C3E000870B588B00368584AE1
:102F4C00934208D00446574A93422AD0564A934299
:102F5C0066D008B070BD554B9A6942F480429A61B4
:102F6C009B6903F480430193019B40230493022348
:102F7C000593032307934E4C04A92046FDF79CFEB2
:102F8C008023049300230593069304A92046FDF7A0
:102F9C0093FE484A536843F0E06343F004035360E4
:102FAC00D7E7424BDA6942F40032DA61DB6903F4A9
:102FBC0000330293029B04230493022305930323FF
:102FCC0007933D4E04A93046FDF776FE0823049383
:102FDC0000250595069504A93046FDF76DFE37488A
:102FEC00374B0360456085608023C3600561456194
:102FFC0085614FF48053C361FDF7E8FD58B92F4B41
:10300C0063635C62002211462620FDF75DFD2620DD
:10301C00FDF78EFD9DE7B4212A48FFF7A5FBEEE7EF
:10302C00224BDA6942F48022DA61DB6903F48023F3
:10303C000393039B4FF480630493022305930323B0
:10304C0007931B4E04A93046FDF736FE4FF4006380
:10305C00049300250595069504A93046FDF72CFE32
:10306C0019481A4B0360456085608023C360056175
:10307C0045618561C561FDF7A9FD58B9124B6363C4
:10308C005C62002211462720FDF71EFD2720FDF76C
:10309C004FFD5EE7E2210B48FFF766FBEEE700BF52
:1030AC00003801400044004000480040001002403D
:1030BC00000C01400000014000080140F80E002007
:1030CC006C0002406C3E00083C0F002030000240B7
:1030DC00F0B589B005460C467E238DF81F301023C1
:1030EC008DF81E3000278DF81D70474E05AB96E805
:1030FC00070003C31A70F368ADF810301B0C8DF881
:10310C0012308DF80F708DF80E70FF2C79DC04F1F5
:10311C000E06102302933B4607E008AA1A4412F845
:10312C000C1C029A0A4402920133072BF5DD002392
:10313C0007E008AA1A4412F8101C029A0A440292D8
:10314C000133012BF5DD002304E0E95C029A0A440B
:10315C0002920133A342F8DB9DF80830C3F1FF0360
:10316C0002932A4F642301220DF11F013846FEF70A
:10317C002EFB06F47F4301936423012201A93846F8
:10318C00FEF725FBF6B201966423012201A938460D
:10319C00FEF71DFB642301220DF11E013846FEF7DC
:1031AC0016FB642301220DF11D013846FEF70FFBBF
:1031BC006423082205A93846FEF709FB6423022282
:1031CC0004A93846FEF703FB642301220DF10F011D
:1031DC003846FEF7FCFA642301220DF10E01384645
:1031EC00FEF7F5FA6423A2B229463846FEF7EFFA49
:1031FC006423012202A93846FEF7E9FA012009B03E
:10320C00F0BD0020FBE700BF743C0008001000205C
:10321C000FB400B5A9B02AAB53F8042B27930023A5
:10322C0009E02799081D2790088828A901EB43017C
:10323C0021F80C0C0133032BF3DD2E4B1B78032BE5
:10324C0012D8DFE803F002192D438DF81420121266
:10325C008DF8152025AB03CBCDF81600CDF81A1040
:10326C000A2105A8FFF734FF0020FCF7B9FF29B0AD
:10327C005DF804EB04B07047BDF89630BDF89810BB
:10328C00BDF89A00029001910093BDF894301A4950
:10329C0005A800F097F8014605A8FFF719FFE3E72A
:1032AC00BDF89630BDF89810BDF89A0002900191C7
:1032BC000093BDF89430114905A800F083F86423FD
:1032CC0082B205A90E48FEF782FACDE71388ADF855
:1032DC00143025AB03CBCDF81600CDF81A100A2309
:1032EC001B788DF81E3064230B2205A90448FEF7C9
:1032FC006EFAB9E7D40000207C3E00088C3E000832
:10330C0000100020002103E00B4B5B5843500431AC
:10331C000A480B4B42189A42F6D30A4A02E00023A1
:10332C0042F8043B084B9A42F9D3FFF771FC00F0CA
:10333C000FF8FFF75DFA7047D83E00080000002038
:10334C00740000207400002050100020FEE70000E4
:10335C0070B500260C4D0D4C641BA410A64209D16F
:10336C0000F06AFC00260A4D0A4C641BA410A6420D
:10337C0005D170BD55F8043B98470136EEE755F87A
:10338C00043B98470136F2E7D03E0008D03E0008D7
:10339C00D03E0008D43E00080A44914200F1FF33AD
:1033AC0000D1704710B511F8014B914203F8014F51
:1033BC00F9D110BD03460244934200D1704703F883
:1033CC00011BF9E70EB46FF0004100B59CB01DABCA
:1033DC0002900690079104910848094953F8042B70
:1033EC000591006802A9019300F068F80022029B85
:1033FC001A701CB05DF804EB03B07047100000208D
:10340C000802FFFF2DE9F0478E6882469E420C466B
:10341C0090461F4638D88A8912F4906F32D02568AE
:10342C0009690133A5EB010965694B4405EB4505B9
:10343C0005EBD5756D109D4238BF1D46530531D532
:10344C00294600F045FB064650B90C234FF0FF30DF
:10345C00CAF80030A38943F04003A381BDE8F0878C
:10346C004A462169FFF798FFA38923F4906343F040
:10347C008003A38126614E4426603E466561A5EB20
:10348C000905A560BE4200D93E4632464146206839
:10349C0000F0B8FAA36822689B1B32440020A3609A
:1034AC002260DBE72A4600F06DFB06460028E1D1DE
:1034BC005046216900F0C0FAC7E700002DE9F04F33
:1034CC0098468B8907461B060D4614469DB00ED5B3
:1034DC000B6963B9402100F0FBFA2860286120B920
:1034EC000C233B604FF0FF30D1E040236B61002395
:1034FC00099320238DF8293030234FF00109CDF8A2
:10350C000C80DFF8A4818DF82A3023469A4613F8F4
:10351C00012B0AB1252AF9D1BAEB040B0BD05B466F
:10352C00224629463846FFF76DFF013000F0AA808D
:10353C00099A5A4409929AF80030002B00F0A280A4
:10354C0000234FF0FF32CDE905230AF1010A049361
:10355C0007938DF853301A935446052214F8011B27
:10356C00514800F041FA049AD8B9D00644BF202340
:10357C008DF85330110744BF2B238DF853309AF834
:10358C0000302A2B15D0544600204FF00A0C079A15
:10359C00214611F8013B303B092B4ED9B0B10792B3
:1035AC0014E0A0EB080309FA03F31343A2460493B7
:1035BC00D2E7039B191D1B680391002BBBBF5B4219
:1035CC0042F0020207930793B8BF049223782E2B84
:1035DC000CD163782A2B35D1039B02341A1D1B683E
:1035EC000392002BB8BF4FF0FF330593DFF8C8A050
:1035FC0003225046217800F0F7F940B14023A0EBAC
:10360C000A0003FA00F0049B01340343049314F8FA
:10361C00011B062225488DF8281000F0E5F900283A
:10362C0038D0234B1BBB039B073323F00703083312
:10363C000393099B3344099367E70C4601200CFB69
:10364C000232A5E700234FF00A0C1946013405930A
:10365C00204610F8012B303A092A03D9002BC5D08B
:10366C000591C3E7044601230CFB0121F0E703ABF2
:10367C0000932A4638460F4B04A9AFF30080421C36
:10368C000646D6D1AB895B063FF52CAF09981DB029
:10369C00BDE8F08F03AB00932A463846054B04A9CE
:1036AC0000F07CF8EBE700BF9C3E0008A63E00084B
:1036BC000000000011340008A23E00082DE9F0477C
:1036CC00164699468A680B6907469342B8BF13465B
:1036DC00336091F843200C46DDF820800AB10133A9
:1036EC0033602368990642BF336802333360256820
:1036FC0015F0060506D104F1190AE36832689B1A25
:10370C00AB4228DC94F84320131E226818BF012317
:10371C0092062DD44946384604F14302C047013085
:10372C0020D02368E56803F00603042B18BF00259E
:10373C0032684FF00006A36808BFAD1A226908BFB3
:10374C0025EAE5759342C4BF9B1AED181A34B542AD
:10375C001AD1002008E00123524649463846C0479A
:10376C00013003D14FF0FF30BDE8F0870135C4E7DD
:10377C003020E11881F843005A1C94F8451022447B
:10378C00023382F84310C5E70123224649463846E6
:10379C00C0470130E6D00136D9E700002DE9FF47DC
:1037AC000C46277E9146782F80469A460C9904F158
:1037BC00430207D8622F0AD8002F00F0D980582F67
:1037CC0000F0A48004F1420684F842703AE0A7F1BC
:1037DC006303152BF6D801A050F823F041380008EC
:1037EC0055380008D1370008D1370008D137000808
:1037FC00D137000855380008D1370008D1370008F8
:10380C00D1370008D1370008633900088538000823
:10381C0045390008D1370008D13700088539000830
:10382C00D137000885380008D1370008D137000897
:10383C004D3900080B6804F142061A1D1B680A601A
:10384C0084F842300123A4E0256808682E0600F1B4
:10385C0004030AD505680B60002D03DA2D236D4295
:10386C0084F843300A235E4819E015F0400F0568D0
:10387C000B6018BF2DB2EFE70B682568181D0860A8
:10388C00280601D51D6802E06906FBD51D886F2F3F
:10389C000CBF08230A235248002184F843106668A1
:1038AC00002EA8BF2168A660A4BF21F004012160EE
:1038BC000DB9002E4DD01646B5FBF3F103FB115795
:1038CC00C75D06F8017D2F46BB420D46F4D9082B87
:1038DC000BD12368DF0708D5236961689942DEBFE5
:1038EC00302306F8013C06F1FF36921B22614B4651
:1038FC0021464046CDF800A003AAFFF7DFFE0130B9
:10390C004CD14FF0FF3004B0BDE8F087344884F858
:10391C0045700E68236856F8045B1F060E6014D5BC
:10392C00D90744BF43F0200323601DB9236823F05B
:10393C00200323601023AFE7236843F020032360A8
:10394C007823284884F84530E3E75E0648BFADB2DB
:10395C00E6E71646BBE70B6826681D1D60690D601F
:10396C0035061B6801D5186002E07106FBD518807E
:10397C00002316462361BAE70B681A1D0A601E68FD
:10398C0000213046626800F02FF808B1801B60609F
:10399C0063682361002384F84330A8E73246494624
:1039AC0040462369D0470130ABD023689B0713D422
:1039BC00E068039B9842B8BF1846A4E7012332463F
:1039CC0049464046D04701309BD00135E368039906
:1039DC005B1AAB42F2DCEBE7002504F11906F5E7C4
:1039EC00AD3E0008BE3E0008034610B5C9B2024405
:1039FC009342184601D1002003E0047801338C4235
:103A0C00F6D110BD884210B501EB020402D98442F4
:103A1C00234607D8431EA14208D011F8012B03F806
:103A2C00012FF8E7014602448A4200D110BD13F879
:103A3C00014D02F8014DF7E738B50546002943D092
:103A4C0051F8043C0C1F002BB8BFE41800F0D0F860
:103A5C001E4A1368104633B9636014602846BDE8EB
:103A6C00384000F0CBB8A3420AD9216862189342BF
:103A7C0001BF1A685B685218226063600460EDE74E
:103A8C001A465B680BB1A342FAD911685018A042D0
:103A9C000BD120680144501883421160DED11868A4
:103AAC005B68014411605360D8E702D90C232B608A
:103ABC00D4E7206821188B4201BF19685B6809188C
:103ACC00216063605460C9E738BD00BFD800002096
:103ADC00F8B5CD1C25F0030508350C2D38BF0C2589
:103AEC00002D064601DBA94203D90C2333600020CC
:103AFC00F8BD00F07DF821490A6814469CB9204FA6
:103B0C003B6823B92146304600F062F838602946FC
:103B1C00304600F05DF8431C23D10C233046336053
:103B2C0000F06CF8E3E723685B1B17D40B2B03D96D
:103B3C0023601C44256004E06368A2420CBF0B6048
:103B4C005360304600F05AF804F10B00231D20F0AE
:103B5C000700C21ACCD01B1AA350C9E722466468CE
:103B6C00CCE7C41C24F00304A042E3D0211A304655
:103B7C0000F02EF80130DDD1CFE700BFD8000020D7
:103B8C00DC000020F8B5074614460E4621B9114654
:103B9C00BDE8F840FFF79CBF22B9FFF74DFF254663
:103BAC002846F8BD00F030F8A0420FD22146384626
:103BBC00FFF78EFF05460028F2D031462246FFF76C
:103BCC00EBFB31463846FFF737FFE9E73546E7E7C9
:103BDC0038B50023054D044608462B6000F01EF84E
:103BEC00431C02D12B6803B1236038BD4010002068
:103BFC00014800F011B800BF48100020014800F047
:103C0C000CB800BF4810002051F8043C181F002BC2
:103C1C00BCBF0B58C018704770477047044B024626
:103C2C00196809B903491960186802441A60704789
:103C3C00E000002050100020F8B500BFF8BC08BC14
:103C4C009E467047F8B500BFF8BC08BC9E4670474E
:103C5C000000000000000000010203040607080930
:103C6C0000000000010203040013A20041932DE3A5
:103C7C00000000000000000002030405060708090C
:103C8C000A0B0C0D0E0F1010000000002E2E2F53DF
:103C9C0072632F63616E2E63000000004F4E0000B4
:103CAC00456E6475726F0000416363656C000000C3
:103CBC004175746F78780000536B696470616400AF
:103CCC0052657665727365004150505320455252CF
:103CDC004F5200004F4B00004552524F5200000013
:103CEC00474C560042534500536B69647065640041
:103CFC0044657520506175002E2E2F5372632F6D05
:103D0C0061696E2E63000000626B636D643D31006F
:103D1C007061676520300000706167652025640064
:103D2C007425642E7478743D2225732200000000E3
:103D3C00676574207425642E747874006E25642E67
:103D4C0076616C3D25640000676574206E25642ED9
:103D5C0076616C007825642E76616C3D25640000DC
:103D6C007025642E7069633D2564000067657420BE
:103D7C006225642E747874006225642E7478743D08
:103D8C002225732200000000676574206325642ED1
:103D9C0076616C006325642E76616C3D25640000B1
:103DAC0067657420627425642E76616C00000000D7
:103DBC00627425642E76616C3D2564006765742001
:103DCC00627425642E74787400000000627425649B
:103DDC002E7478743D2225732200000067657420D0
:103DEC007A25642E76616C007A25642E76616C3DA2
:103DFC0025640000676574206A25642E76616C006A
:103E0C006A25642E76616C3D25640000676574201C
:103E1C007225642E76616C007225642E76616C3D81
:103E2C002564000067657420766125642E76616CCC
:103E3C0000000000766125642E76616C3D256400DF
:103E4C0067657420766125642E7478740000000018
:103E5C00766125642E7478743D222573220000004F
:103E6C002E2E2F5372632F75736172742E630000A4
:103E7C002575092575092575092575092575000010
:103E8C0025750925750925750925750925750A00F6
:103E9C00232D302B2000686C4C0065666745464727
:103EAC0000303132333435363738394142434445AA
:103EBC004600303132333435363738396162636419
:043ECC006566000027
:043ED00031010008B4
:043ED4000D010008D4
:103ED8000100000010000000FFFFFF0000A24A04DC
:103EE8001400002000000000000000000000000096
:103EF80000000000000000000000000000000000BA
:103F080000000000000000000000000000000000A9
:103F18000000000000000000000000000000000099
:103F28000000000000000000000000000000000089
:103F38000000000000000000000000000000000079
:043F48000000000075
:0400000508003311AB
:00000001FF
